:020000040800F2
:1000000070370020A11900087F740008817400086F
:1000100083740008857400088774000800000000DD
:1000200000000000000000000000000089740008CB
:100030008B740008000000008D7400088F740008A5
:100040009D1900089D1900089D1900089D190008B8
:100050009D1900089D1900089D1900089D190008A8
:100060009D1900089D1900089D1900089D19000898
:100070009D1900089D1900089D1900089D19000888
:100080009D1900089D1900089D1900089D19000878
:10009000917400089D1900089D190008614A000824
:1000A0009D1900089D1900089D1900089D19000858
:1000B0002D020008750400089D1900089D1900080C
:1000C0009D1900089D1900089D1900089D19000838
:1000D0009D190008E15D00089D1900089D190008A0
:1000E000115900089D1900089D1900080000000022
:1000F0000000000000000000000000000000000000
:1001000000000000000000005FF808F110B51F4C6F
:100110004FF4004194F849201D4812F0040218BF22
:10012000012201F0CAFC94F830201A4902EB820245
:100130000B6B02EB82020B61D343CB81164B188809
:1001400040F001001880188840F0800018809A85DF
:10015000022201201A8500229A8498829A890243F9
:100160009A811A8842F004021A804FF000530B4A19
:10017000C2F88030CB6A4FF080415B68013B9BB294
:100180008B854FF080538882136010BDD80F0020FC
:1001900000100140280500200004004000E100E0BC
:1001A0004FF0805238B51A4B1A4DC3F88020002208
:1001B000194B95F8340083F83420184AFF28127838
:1001C0001BD1174B1B7803F0FF04B3B9802A16D05C
:1001D00095F849305B0748BF84F00104ACB10122B7
:1001E0004FF400410F4801F068FCBDE838400022A0
:1001F0004FF480410C4801F060BC042A03D001F0A8
:1002000051FB0124E4E70024E2E72246E8E700BFCF
:1002100000E100E0D80F002028050020F40A0020AB
:100220002C0B002000100140000C01402DE9F84388
:100230004FF080452B8ADF0740F1FB802B8A844EEC
:1002400023F001031B041B0C2B820023AB8496F8C4
:1002500034303446002B40F0EC807E4801F028FC1E
:10026000716920F4F07021F4FC414004400C21F04D
:100270001F01014389B2774801F024FC764B012726
:100280001A884FF0005942F001021A801A88DFF8EC
:10029000E08142F080021A80704A6E4892F8302065
:1002A00002EB820202EB82029A8502221A859F8269
:1002B0009A893A439A81C8F8009001F0F9FB3169B4
:1002C00020F00700014389B2624801F0FBFB3A4687
:1002D0004FF48041624801F0F0FBC8F80090D6F876
:1002E0002C8086F83470B8F1000F3ED1F38E328F37
:1002F0009A4200F0A0800C23F18E06F13C024B43A1
:100300001A4433441B6CF262013B9BB2AB85284616
:10031000394605F0B2F9F26A1368B384107A96F898
:10032000263083420ED01423434306F1CC011944F6
:100330003344D3F8D83086F82600FB40C6E90133B1
:10034000B1623360A36AD4F8A801198A414061619F
:10035000517A1868C840A06158689B68C840E0613D
:10036000CB405089236206F09DF83E4B1B78012B51
:1003700001D105F0CBFE0023A06A22682361A369A6
:10038000C1681A448A4222600CD90123521A2260A1
:10039000354A058A23611368AE064CBF03F1FF336B
:1003A000013313606268E3691A44914262600ED2BD
:1003B0002369521A62602C4A43F00203058A2361C2
:1003C00053686D064CBF03F1FF3301335360A368DC
:1003D000226A13449942A3600ED222695B1A42F04A
:1003E00004022261204A018AA360936809064CBF77
:1003F00003F1FF33013393601C4B1A78042A01BFC9
:100400009B79226913402361A38C013B9BB2A38497
:1004100043B9E362E38E0133DBB20C2B08BF002348
:100420009BB2E3862369226B53402361002384F847
:100430003430BDE8F883FFF7B3FEB36A9B7C13B199
:10044000404606F02FF8BDE8F843042004F0BABB9C
:10045000280500200008014000040040D80F0020BB
:10046000000C0140130B0020200B0020F40A002098
:1004700000E100E0134A08B5138ADB0720D5138A90
:10048000114823F001031B041B0C13824FF0005290
:100490000E4BC3F8802001F00BFB0D4B20F0070042
:1004A000196B01F00701014389B2074801F00AFB0B
:1004B000BDE8084000224FF48041064801F0FDBA33
:1004C00008BD00BF000400400008014000E100E05A
:1004D00028050020000C014000232DE9F0411749B8
:1004E0001C4691F83170B1F832C01D4619461846C5
:1004F000134A144E1363C2F8A83106F10C0E47FAE2
:1005000003F818F0010F18BF56F823504CFA03F8FF
:100510001CBF2843012518F0010F18BF5EF82340C7
:1005200003F101031CBF21430124032BE7D105B1D3
:1005300010630CB1C2F8A811BDE8F081D80F0020FB
:1005400028050020B0A3000838B5224CFFF728FE8C
:1005500000224FF48041204801F0AFFA38220021F8
:1005600004F5D67009F0DAFE00213022204609F0A9
:10057000D5FE00230122194DA4F8E821E386C4F832
:10058000E431238784F83430FFF7A6FFD4F8A8318C
:100590002846636101F08CFA216B20F0070001F01E
:1005A0000701014389B2284601F08CFA284601F080
:1005B0007FFAD4F8A81120F4F07021F4FC41400433
:1005C000400C21F01F01014389B22846BDE83840A4
:1005D00001F078BA28050020000C01400008014015
:1005E00038B50A4CD4F8E45175B194F8AD31D4F86B
:1005F000C81143F0010384F8AD31084609F034FC1A
:1006000000236861C4F8E43138BD00BF280500202C
:100610002DE9F04FB04B8DB01B79DD0700F132832F
:10062000DFF8B8B2BBF83620BBF8E811914200F011
:100630002983DBF8E421002A52D1A74F3A795407E5
:1006400040F1DA8002F078FFCBF8E401DBF8E44116
:10065000002C00F017839BF8AD61F00740F1CF80CC
:1006600000228BF8AD210023DBF8E461CBF8C43124
:10067000D6F81C804FF07C50414609F0A9FC3A792D
:10068000044612F00201356A00F0328102228BF832
:10069000C02176690146304609F0E6FB014628464E
:1006A00009F0D8FA0021044609F07CFD002800F08A
:1006B0000D814146404609F0CFFA294609F0D4FBA6
:1006C0000146304609F0C6FA08F040FF07F080F80E
:1006D00009F06CFACBF8D0013A7942F008023A718D
:1006E000BBF838300C22194601937C4B02FB0132D7
:1006F000DBF8E4319BF8AC1102931B6A82F84410DA
:100700001846DBF8BC11089309F0A4FA00210A90FE
:1007100009F048FD08B100230A93DBF8D431DBF877
:10072000CCA10493DBF8D83104990593DBF8C431EC
:1007300005980693DBF8D031DBF8C8419BF8C081FF
:10074000099309F025FD002800F09E814FF0020377
:100750000027DBB20B930023BB46614EDDF82090EF
:1007600003930796B8F1010F00F0DD81029B30463C
:10077000D969C0F0A281B8F1030F40F0F18109F00E
:1007800073FB07465146204609F064FA394609F0E2
:1007900013FD002800F07B810499089809F05AFAAB
:1007A000014609F059FA21460546504609F054FA27
:1007B0000146284609F00CFC012706465446BB4674
:1007C000B846049D3146039809F046FA0390014665
:1007D000079809F005FD002800F0F48103990798B7
:1007E00009F038FA29460646069809F0DBFC00288D
:1007F00000F0EE81A946B5E702F0A8FE24E79BF8D9
:10080000AC2114210132D2B20B2A08BF00228BF88E
:10081000AC214A43314B334D218A15441A44A2F886
:10082000DC102168E068C900C2F8CC106168CBF820
:10083000EC51C900C2F8D010A168C900C2F8D410A8
:10084000C100C2F8D81009F0B7FA216ACBF8B40198
:1008500009F0BEFB0146CBF8B801234809F0B8FB0C
:1008600000233A79CBF8BC019107CBF8B03101D421
:10087000320721D5DBF8D01126F00806CBF8C811D5
:10088000084609F0F1FA8BF8AD6160610022AA74A4
:10089000164A92F8492093077FF5E5AEA27C9606AA
:1008A0007FF5E1AEE16A4FF07E5009F091FB012245
:1008B000CBF8DC01AA74D6E6606908F047FE06F0C2
:1008C00087FF09F073F9CBF8C801DFE70023CBF805
:1008D000C441CBF8D031FFE6F40A002028050020FF
:1008E0005304E938F40500200000A03FD80F002091
:1008F00050078BF8C011CBF8D45147D50023984648
:10090000CBF8D031DBF8E40102F04EFE0146029054
:1009100009F0AAFADBF8E43105465E690146304683
:100920000193D3F820A009F05BFC00284AD02946A7
:10093000304609F08FF9214609F096FA01465046F3
:1009400009F088F90021CBF8D40109F035FC48B34F
:100950000222019B8BF8C021D969084609F07CF975
:10096000514609F081FA0146304609F073F908F062
:10097000EDFD06F02DFF09F019F99BF8AD21CBF83C
:10098000D00142F008028BF8AD21A5E602F0ECFDA3
:10099000804608F0DBFD06F01BFF09F007F9CBF8F5
:1009A000D001AFE74146284609F054F9214609F045
:1009B0005BFA0322029BCBF8D801CBF8CC318BF841
:1009C000C02189E64146304609F044F9214609F044
:1009D0004BFA514609F040F94FF07C5109F044FAC6
:1009E0000021814609F0FCFB002845D049465046CD
:1009F00009F0F6FB00283DD04146284609F02AF9C7
:100A0000214609F031FA4946CBF8D80109F0CAFB72
:100A1000C0B1029B2946CBF8CC31304609F0B8FB77
:100A200008B10122CBE73146284609F013F92146E7
:100A300009F01AFA0146DBF8D40109F00BF9CBF8FA
:100A4000D40149E6019BCBF8D491D969CBF8D89170
:100A5000084609F001F9494609F006FA414609F04D
:100A6000FBF808F073FD06F0B3FE09F09FF8CBF831
:100A7000CC0131E60222A2E70023DBF8D021CBF83B
:100A8000D431CBF8CC2127E64FF0010360E64FF0DC
:100A90007C51384609F0E8F90146204609F0DAF8B9
:100AA000314609F0E1F90146484609F0D3F8054618
:100AB0003946204609F0CEF832E009F0D5F94FF07A
:100AC0007C51074609F0D0F9214609F0C5F83146B6
:100AD00009F0CAF90146484609F0BCF80546014646
:100AE000049809F07DFBB8B10499089809F0B2F8B0
:100AF000014609F0B1F821460546504609F0ACF828
:100B00000146284609F064FA012706465446DDF8F6
:100B10002C80049DBB4655E63946204609F09CF8DA
:100B2000044601274EE63146504609F09DF901463C
:100B3000484609F08FF805460146059809F050FB34
:100B400000283FF43FAE0599484609F083F8514626
:100B500009F03EFAC3460646059D4FF0020831E60D
:100B600009F082F92146074609F01CFBB0B14FF0AD
:100B70007C51384609F078F90146204609F06AF8B8
:100B8000314609F071F90146484609F063F8054617
:100B90000146069809F006FB002889D106994846C7
:100BA00009F058F8014609F057F82146054609981A
:100BB00009F052F80146284609F00AFA099C06464F
:100BC000069DAEE70A99284609F00AFB00285CD189
:100BD0007E4BBBF1000F01D083F8C0810FB1C3F889
:100BE000C8417A4C7A4FD4F8EC3126469A7C12B937
:100BF0003B7919071CD5029B9B7C13F030034BD02B
:100C0000029BD3F8308052B1D4F8DC11D4F8C8017B
:100C100009F02AF90146404609F026F98046404687
:100C200005F066FCA4F8E0013B7923F008033B7172
:100C30000C23019AD4F8B81103FB0263B4F8E02145
:100C40002846A3F84620029309F00EF9824606F0E2
:100C5000F7FC8046D4F8B40106F0F2FC4146814628
:100C600008F0F8FF09F002FB029B1FFA80FBC3F8B3
:100C70003CB0BBF1000F14D13B799A0711D543F07A
:100C800001033B710DB0BDE8F08F5249079808F0A1
:100C9000E3FF03990790A3E50022A4F8E0313A614D
:100CA000C2E7D4F8B011039808F0D6FF514602907D
:100CB000484608F0CFFF029B0146184609F088F924
:100CC000454B464A1B688146B3FBF2F05043029302
:100CD00009F072F8494609F0C7F8414909F0C4F82B
:100CE00006F0AEFC09F0C2FA4FF4FA62029BB3FBC5
:100CF000F2F282423BD90C23019A03FB02630022E9
:100D000083F845200C23019AB0F5803F03FB026372
:100D10002ABF4FF6FF7218641A64B4F8E8315146DE
:100D2000238701339BB20C2B08BF0023A4F8E831C2
:100D3000D4F8E431C4F8B4811D62404608F08AFF5B
:100D4000494609F091F82946C4F8B001D4F8C40125
:100D500009F01EFA00283FF463AC002128463C79D4
:100D600009F03EFA48B344F001043C718AE74FF4BD
:100D70007A62B3FBF2F2824211D90C23019A03FB8F
:100D80000263012283F845200C22019B02FB0362CF
:100D900092F84530D8400BFA03F3D363B2E74FF42F
:100DA000FA52B3FBF2F383424FF00C03019A03FBB8
:100DB00002638CBF02220322E4E714F00403D2D1C1
:100DC000C6F8E43102F0A4FB2AE400BF28050020A5
:100DD000F40A00205304E9380000002040420F00CC
:100DE00000007042044B1B7813F07C0F1ABF034BBA
:100DF000D3F8C80100207047F40A0020280500201D
:100E000030B5013A85B00446ADF80420002201391E
:100E1000ADF8081001A91D46ADF80A20ADF806206E
:100E200004F07EFB0121204604F03FFC0121204616
:100E300004F023FC01222046114604F0FAFB0121B4
:100E4000204604F0EBFB4FF4407000F0B3F8B4F12F
:100E5000804F0ED11C238DF80030012368468DF899
:100E600001508DF802308DF8033000F0ADF805B078
:100E700030BD054B9C4201D11D23ECE7034B9C4246
:100E8000EBD11E23E7E700BF00040040000800404C
:100E90002DE9F7434FF400490224102602ADDFF894
:100EA00010810121102001F093F825F8049D2946B6
:100EB00040468DF807608DF8064000F095FD012151
:100EC000042001F085F848F2E7134FF480472946E3
:100ED0003148ADF804308DF807608DF8064000F019
:100EE00083FD0121082001F073F88DF807602B4E77
:100EF000294630462A4D8DF80640ADF8047000F0C2
:100F000073FD49464046002200F0D7FD3946304681
:100F1000002200F0D2FDEB694FF0804043F0010366
:100F2000EB6101231A461946FFF76AFF01212046AB
:100F300001F05AF8EB692343EB611A4B1A8842F02F
:100F400001021A801A8842F001021A801A8842F0BF
:100F500080021A80144A92F8302002EB820202EBDF
:100F600082029A8500221C859A849A8942F00102A5
:100F70009A811A8822F004021204120C1A804FF08F
:100F800000520A4BC3F880204FF08052C3F88020F3
:100F900003B0BDE8F08300BF00080140000C014031
:100FA0000010024000040040D80F002000E100E0E3
:100FB0000010014040F0BF60024B40F40030D860A8
:100FC000704700BF00ED00E070B50125017801F029
:100FD0001F039D40C3784C09C3B10F4BDA684378B7
:100FE000D243C2F30222C2F1040603FA06F6837862
:100FF0000F2020FA02F213403343084A1B01DBB2F0
:10100000114481F8003342F8245070BD034B203462
:1010100043F82450F9E700BF00ED00E000E100E0F4
:1010200038B50B6905460360037A01F1480443F0C3
:10103000040303720F4B93F849309B0610D42946E2
:101040000D4D204603F07AFF2C7884B902F07EFA29
:1010500068B120232B70FFF7DBFAFFF757F807E0A2
:10106000204603F07FFD0028E9D00F2400E0002493
:10107000204638BDD80F0020F40A002008B502F041
:1010800065FA20B1BDE80840022003F09BBD08BD11
:10109000F8B5374B374C1B78374E03F0FF0593B14B
:1010A00001272846013D277003F010F8BD4208D8FB
:1010B000384603F01DF8102003F000FF3378DB06FC
:1010C000FCD503F00FFF337803F0FF05002B00F091
:1010D000AF80EF0602D501236370F8BDEE0704D59B
:1010E00003F0DCFA012003F0E9FE15F0E80F59D017
:1010F00023786EB2980747D113F0280F10D0A37849
:1011000013F0C00F0CD1FFF76BFA02232371237881
:10111000202B05D1002E07DBA37863F07F03A3709B
:1011200023780BB90122A270690605D59A065EBF25
:10113000A27842F04002A2702F0704D513F0E00F0E
:1011400004BF10232370A8061ED5062002F0D0FF8E
:10115000A378190614D42278402A0FD11A0704D58F
:1011600023F01C0343F00203A3704023237007E025
:101170002C0B0020F40A0020120B0020802AF4D14E
:10118000A37843F02003A370002E08DA2378012B04
:1011900002BFA37843F00503A37080232370E820E7
:1011A00003F08CFEAF0723D515F0680F1DD123780F
:1011B000402B07D1A37813F0200203D1DE0640F1C3
:1011C000D58022702378002B00F0D680D9060CD56C
:1011D000A278D20709D5102B40F0CE80A37A002B3D
:1011E00000F0CA8043F00803A372022003F066FEF9
:1011F0006B071DD5227894F9023012F0D00F00F061
:10120000D080E278002A40F0CC80002BC0F2CB8066
:1012100002F0BEFB23799F0748BFA27823F00603A4
:1012200044BF42F00102A2702371042003F046FE85
:101230006C4B1B7803F0FF05002B37D003F06EFEDC
:10124000E07915F0010F0CBF03466423AE0748BFD9
:101250000A33690744BF0A3B9BB22F0744BF0133DF
:101260009BB2EE0644BF03F1FF339BB2FF2B28BFB6
:10127000FF230A2B38BF0A23217A15F0200F14BF51
:1012800064220A4615F0400F18BF322215F0800F75
:1012900018BF1922984201D18A4207D0E371002376
:1012A0002272237302F0B8F902F072FB4E4B1F88D2
:1012B000BFB217F0FF0650D003F038FE627A16F086
:1012C000010F0CBF13466423B10744BF0A33DBB2DE
:1012D000750744BF0A3BDBB2300744BF0133DBB2C2
:1012E000F10644BF03F1FF33DBB2C82B28BFC8238C
:1012F0000A2B38BF0A239A4206D063720023227950
:10130000237342F008022271B506227806D5102A0E
:1013100004D1A37A002B5FD10223A37216F0C00F71
:101320001BD012B112F0180F17D0304B17F0800FEE
:101330001D7A1F4605D029064CBF05F07F0545F0F4
:101340008005720605D56B064CBF05F0BF0545F05C
:101350004005284604F036FA3D72237813F0FC0F5E
:101360003FF4BBAEBDE8F840FFF752B9580744BFA1
:1013700043F00803A37025E70023237102F0E6F889
:1013800058B1A37813F0400307D1A370082323704A
:10139000FFF73EF9FEF7BAFE27E70023A37023709C
:1013A00023E7002B09DA0023237102F0A5F8FFF7E9
:1013B000CBF800F03BFE02F0CBFAA37813F020024A
:1013C0001FBF03F07F0343F00103A37040230ABF54
:1013D000A2702370227028E7D8079FD543F004033A
:1013E0009BE700BFF10A0020100B0020300B00200B
:1013F0002DE9F84F7B4CFFF74BFEA378002B51D023
:1014000002F0A4F800283AD1774B5E7A1A7A1F6965
:101410001643764D95F8493098070AD5202003F0F9
:1014200073FD4FF4806003F06FFD4FF4006003F034
:101430006BFD4FF000084FF0814AA07890B394F80C
:101440000190B9F1000F2DD1C10715D5227812F006
:10145000C00B6AD010F0040B14D14146584684F8F2
:101460000AB005F08FF8584604F0ACF9A37823F0E1
:10147000020343F00403A370FFF70AFEDDE7867C56
:10148000076BC6E7802A12D10B2002F031FE002143
:10149000484605F077F8484604F094F9FEF780FED8
:1014A00063780BB1BDE8F88FFFF7F2FDF8E7402A4B
:1014B00006D103F009FB18B9A37823F02003A37029
:1014C000A3781A07D8D5DFF820B19BF809204AB1D4
:1014D0009B0707D495F8493098071CD5237943F02A
:1014E000080323719BF808305BB1A378990708D4EF
:1014F00006F0400004F066F901214FF07E5000F044
:10150000AFF9A3789A07B7D443F010030220A37071
:1015100003F058FBB0E7394606F0300005F032F82A
:101520000121504600F09CF9DCE7A37A002B4BD058
:10153000980712D52C4B5B7A002B37D04146584682
:1015400005F020F841F20103638195F84A3019074C
:1015500092D5584604F036F98EE713F00C0F8BD075
:10156000DFF884B09BF8093093B10A2002F0C0FD87
:1015700095F849309A071CD5237943F00803237165
:1015800095F84A301B0703D59BF8080004F01AF9B8
:10159000A37A19070AD5022003F014FB95F84A3004
:1015A0001A0703D59BF8080004F00CF900236381A7
:1015B00062E706F03000394604F0E4FF95F84A305F
:1015C0001807E5D50020E1E723791B077FF554AF25
:1015D000394606F0300004F0D5FF237923F00803E4
:1015E000237149E7F40A0020300B0020D80F0020B7
:1015F0002DE9F041444B454E93F8493013F0080F64
:1016000007D004F065F920B101230720337002F000
:101610006FFD337813F0810314D0022002F068FDCF
:101620000123337000242546394F04F019FBFF28AD
:1016300017D1FFF723FDFFF7DBFE7378002BF4D003
:10164000BDE8F081337003F03FFA30B1314A1378CE
:1016500043F020031370FFF7CBFE2D4803F042FA4E
:10166000E0E70A2801D00D282AD1FFF7C1FE96F83D
:101670000180B8F1000FE3D115F0010507F80480EF
:1016800005D00B2002F00CFD44462546CDE73C7802
:101690001CB9204602F004FDF7E7242C06D1384699
:1016A00003F09AFA02F0FCFC2C46EEE7337813F0D4
:1016B000210401D00920F5E7384600F0BFFCE9E736
:1016C00035B12928B1D1AB07AFD505F0FD05ACE7A1
:1016D0002028AAD92F28A8D028280FD03B280FD0FF
:1016E0004E2C0FD82346A0F16102D2B2192A04F180
:1016F000010498BF2038E4B2F85496E7022594E735
:10170000042592E7012590E7D80F0020F40A002075
:1017100018070020120B002010B5FFF7AFFC064C95
:10172000FFF766FE637833B901F010FF0028F7D1A8
:101730002378082BF4D010BDF40A00200020044BBD
:10174000044A18604FF406431380034A136070473D
:10175000445C004028130020405C004070B500F05D
:101760007F0528460E4605F075FE0446284605F01E
:1017700035FE22460146304604F0C9FB204670BDC6
:101780002DE9F84F0B789146C218C35C06462D2B05
:10179000884618D101275378951C00210A460C462B
:1017A0000846303BDBB2092B19D80132D2B2082AE5
:1017B00010D809B1013C64B200EB800003EB40009B
:1017C00015F8013BEDE72B2B12BF551C951C5378E8
:1017D0000027E2E70029F3D1013464B2F0E7FE2BE1
:1017E00002D109B90121EBE7D2B108F0E5FA0021F5
:1017F000824608F0CDFC48B9DFF85CB0631C12DB10
:1018000019D15046134908F02FFB82460FB10AF157
:10181000004A0122AD1B013DC9F800A088F8005024
:101820001046BDE8F88F5046594608F01DFB0234BB
:10183000824664B2E2E7002CE8D0DFF820B05046E0
:10184000594608F011FB013CE3B282465CB2002B22
:10185000F5D1DBE7CDCCCC3D0AD7233C00002041BD
:1018600070B50E460D4908F0FFFA05F0E9FE08F0E4
:10187000FDFC0B4D84B27CB16B786BB93EB9FFF7C0
:10188000B7FD3220013C00F075FAA4B2F3E7FFF790
:10189000FFFBAB789B07F4D570BD00BF0000A041F3
:1018A000F40A002038B504464FF6FF75013CA4B297
:1018B000AC4200D138BD012000F05CFAF6E738B543
:1018C0000D46014608F0D0FA29460446284608F09D
:1018D000CBFA0146204608F0BFF907F037FE05F0C5
:1018E00077FF08F063F938BD2DE9F8430025044679
:1018F000A946061F00F1080856F8047F49463846F5
:1019000008F046FC40B93946384608F0ADFA0146C1
:10191000284608F0A1F905464645EDD1284605F0D0
:10192000B5FF064601464FF07E5008F051FB0546D4
:101930000146206808F098FA29462060606808F09F
:1019400093FA29466060A06808F08EFAA0603046DD
:10195000BDE8F8832DE9F8430746884600244FF098
:1019600000090D4D58F824604946304608F010FC37
:1019700060B9314657F8240008F02AFB20F00046F1
:101980002946304608F02CFC00B935460134032CBA
:10199000E8D12846BDE8F883FFFF7F7FFEE700001F
:1019A00008B50C4A0C4B0D498B420ED30C480D491F
:1019B0004FF000028842B8BF40F8042BFADB00F079
:1019C000A1F8BDE8084000F0FDB952F8040F43F853
:1019D000040BE9E75CA900080000002028050020AE
:1019E000280500206C130020CA782DE9F041D306A9
:1019F00048BF8B780E8802F00F0548BF1D4316F0D4
:101A0000FF0F1AD000214FF0010C4FF00F0E0368AA
:101A10000CFA01F737EA06040BD18C000EFA04F831
:101A200023EA080305FA04F4282A43EA040326D12A
:101A3000476101310829EBD10360FF2E1DD908242D
:101A40004FF0010C4FF00F0E41680CFA04F737EA23
:101A500006030ED104F18043083B9B000EFA03F805
:101A600021EA080105FA03F3282A41EA03010AD111
:101A700047610134102CE8D14160BDE8F081482A6B
:101A800008BF0761D5E7482A08BF0761F1E74FF6AD
:101A9000FF730380022383700423C370704783683D
:101AA000194214BF012000207047806880B270473F
:101AB000C06880B27047416170470AB101617047E8
:101AC00041617047C160704741F480338361816137
:101AD000836183698369704710B50F2401F00303A4
:101AE00001F0FC0101F1804101F580318A689B0021
:101AF0009C4022EA04028A608A6898401043886009
:101B000010BD0000374B82B01A6842F001021A6023
:101B10005968354A0A405A601A6822F0847222F4E1
:101B200080321A601A6822F480221A605A6822F4FD
:101B3000FE025A604FF41F029A6000220092019246
:101B40001A6842F480321A601A6802F40032019274
:101B5000009A01320092019A1AB9009AB2F5A06F68
:101B6000F2D11A6812F4003218BF01220192019AD0
:101B7000012A30D11D4A116841F01001116011682D
:101B800021F003011160116841F0020111605A68EF
:101B90005A605A685A605A6842F480625A605A68B9
:101BA00022F47C125A605A6842F4E8125A601A68A9
:101BB00042F080721A601A689201FCD55A6822F0CD
:101BC00003025A605A6842F002025A605A6802F0F0
:101BD0000C02082AFAD14FF00062054B9A6002B05D
:101BE000704700BF001002400000FFF800200240D4
:101BF00000ED00E000232DE9F743DFF87091DFF8F6
:101C00007081ADF80630D9F80030524A99B21B0401
:101C100011804CD5138803F00F0388F80030002B97
:101C200065D14BF6BF764C4C4C4D23684C4F9BB264
:101C30002B802B8803F030033B802B8803F4405328
:101C40002B802368334083F4005383F0200343F454
:101C5000004343F080032360138813F0100F2368C0
:101C600028D123F4E14323F070031B041B0C2360F1
:101C700005F014F923682A883340D6042A8848BF1F
:101C800083F4805395043A8848BF83F40053D40604
:101C90003A8848BF83F01003900648BF83F02003C2
:101CA00043F4004343F080032B4A9BB2136003B01C
:101CB000BDE8F0839BB2ADF80630BDF806301A05DA
:101CC00008D5236823F070031B051B0D236004F067
:101CD000FFFECFE7BDF806301B0494D5236823F040
:101CE00070031B051B0D236005F054F8C2E79A0032
:101CF00002F1804202F5B842116889B2ADF80610CF
:101D0000BDF8061009040AD51168013B21F07001E5
:101D10000905090D1160134A52F823309847BDF8A0
:101D200006301A067FF56FAF98F80020930003F194
:101D3000804303F5B8431968013A21F4E14121F0E9
:101D400070010904090C1960074B53F822309847B9
:101D500059E700BFD40F0020005C0040EA0A0020D1
:101D6000EC0A0020A8000020C4000020445C0040D1
:101D70000013002042F2283300225843064B5860DB
:101D80009A6001221A601A6802F00112012AFAD040
:101D900000221A609A60704710E000E010B5074C0E
:101DA0004FF4005122780648FFF787FE237813F19D
:101DB000FF3318BF0123237010BD00BF14000020A3
:101DC000001001402DE9F341002000F0DDF84FF450
:101DD000806000F0E3F8002000F0EAF80121102014
:101DE00000F0F6F810238DF807304FF4C0430225B9
:101DF00002AC24F8043D214647488DF80650FFF711
:101E0000F3FD0121042000F0E3F804238DF80730EE
:101E1000182321464148ADF804308DF80650FFF7ED
:101E2000E3FD03F038FB03F041FB04F04FFC05F049
:101E300065F801F0D5F83A4A00241368394D23F0CB
:101E400004031360384AA8469369334F43F00103F3
:101E500093614FF00072354B5A6003F0BBFE02F005
:101E600043F8FFF715F802F08DFD002004F092F919
:101E70002F4B2C70C3E900449C601C22002140467B
:101E80002E7808F04BFA6423EB712B726B72294B9E
:101E90002E70C3E900449C60274B284E1C70284BD1
:101EA0001C70284B1C70284B1C70284B1C70284B36
:101EB0001C70284B1C8004F015F800F0A1F896F86F
:101EC0005C0004F067F996F85C0002F00DF804F08D
:101ED00043F803F02DFC03F0BDFC04F0FDF801F025
:101EE0000BFBFEF731FB01F033FD00F09FF801F032
:101EF000EBF950B102F040F901224FF4005138469D
:101F0000FFF7DBFDFFF774FBB7E7C820FFF7CAFC5C
:101F1000FFF744FFEBE700BF00100140000801405D
:101F200010E000E0F40A0020001002400000014030
:101F3000200B0020140B0020130B0020D80F0020D2
:101F40002D0B0020F00A0020120B00202C0B00208B
:101F5000F10A0020100B002008B5012003F0C5FA9B
:101F600001220020054B06491A60064A18601060DD
:101F70004FF4E0520A801A6008BD00BF405C004088
:101F800028130020445C0040034A536823F0F00308
:101F900018435060704700BF00100240034A536866
:101FA00023F4E06318435060704700BF0010024004
:101FB000034A536823F4605343EAC00050607047FB
:101FC00000100240014B1860704700BFD800424229
:101FD000044B9A6911B110439861704722EA0000DE
:101FE000FAE700BF00100240044BDA6911B1104358
:101FF000D861704722EA0000FAE700BF00100240F3
:1020000008B500214822074808F088F90649002051
:1020100001F0B7FD20B9BDE80840072002F040B844
:1020200008BD00BF300B00205C0B002001490248B6
:1020300002F08ABD200B0020500B00202DE9F04F4C
:102040005C2299B081460021AC4808F067F9AC4B9E
:10205000AC4A984603F108051C4603CCAC4210601C
:102060005160234602F10802F6D1206810602379FE
:10207000137199F80030242B4FF000033CD01D461B
:102080008DF8433000242646CDE9094407949DF895
:10209000433019F803B0BBF1000F35D126B1079BCF
:1020A000002B08BF02230793A30605D5934BDA6ADA
:1020B000954B9A4200F34787EF0740F1F781E0071D
:1020C00040F106828D4FFB78012B04D138698F498E
:1020D00007F0CAFE386114F4807F08BFD8F81030CA
:1020E000864F08BF3B643B78042B40F002826306B6
:1020F00000F1FC811C25DFE0804A01259370032359
:1021000055708DF84330BDE7ABF1410A5FFA8AF2B2
:10211000192A00F20687013311AA0DF1430148463E
:102120008DF84330FFF72CFB002800F0FD86119B53
:102130001846089305F038FB08F098F8C7B23846FF
:1021400007F03EFE089B0146184607F083FD7049E4
:1021500007F08AFE05F0FCFABBF1470F82B222D0ED
:10216000BBF14D0F00F0DC80BAF1190F4AD8DFE85F
:102170001AF0170134014900490049003B014900A8
:1021800049004001490152015B01490060014900D9
:1021900067016C01710175017A014900490049002C
:1021A00088018F019601282F00F0A58032D8132FC7
:1021B00023D8112F79D2042F09D06FD30A2F21D120
:1021C0002AB9079B002B40F0B286012307934B4BA3
:1021D00007F0FD011C291F7002D05C2F40F09C808D
:1021E0000AB10A2A0ED13844187000230A9A1A41FB
:1021F000D00740F1CD8015255EE01C2FE0D003D83C
:10220000152F69D9142557E0212F47D0262F45D007
:102210001E2FD4E73D2F6AD01BD8352FD7D011D829
:102220002B2F01D0312FEDD1079B002B40F07F8663
:10223000312F57D1314B9DF81C209A71032208236E
:102240000792D3E73B2FDDD82C4B363FDF710923B4
:102250002FE05B2F18D85A2F32D2502FD2D12749D6
:10226000262F4F705AD1A2F114039BB21E2BC9D84E
:10227000284820FA03F3DF07C4D50A23B2FBF3F2A0
:10228000763A4A700123B1E75C2F99D05E2FB9D816
:102290001A4BC7F15E079F7005230AE0079B002BCE
:1022A00040F0458602230793D9E7144B113F5F7135
:1022B0000223002A9AD01725284619B0BDE8F08FCE
:1022C00022B90E4B5A3F1F7103238FE70A2A99D177
:1022D0005A2F97D0042389E7084BC7F11507DF7001
:1022E0000623E6E70A2A8DD1044B0122A5E7002A3E
:1022F00088D10A237AE70723DBE700BF780B0020A9
:10230000300B0020790B0020809698003333CB41AE
:102310000000C842010410400023CAE70123C8E7B7
:10232000002AC8D1052F0AD8032F1BD3042FAA4B8C
:1023300021D0052F21D010229A720C2356E7092FA5
:102340000AD8072FA44B1AD3082F1DD0092F1DD050
:1023500080225A720D2349E71E2F7FF453AF9E4B04
:102360001F7202E01FB1012FF9D10B233EE70322B8
:10237000994B1A72F9E72022DEE70022DCE70422FB
:1023800045F48075DA72D8E74022E2E70022E0E700
:10239000012202FA03F30A9A13439BB20A9376E6E8
:1023A0000D278D4B119A46F008065A6544FA07F33B
:1023B000D90700F1C28540F261333B41DA0706D507
:1023C0000021119807F0EEFE002840F0B9850123A6
:1023D00003FA07F73C43A4B259E67F4B119A46F043
:1023E00010069A650E27E1E77B4B119A00271A61C8
:1023F000DCE7794B119A01275A61099B43F00103ED
:102400000993D3E7744B119A02279A61099B43F011
:1024100002030993CAE7704B119A0327DA61099BFB
:1024200043F004030993C1E76B4B83F8287004273A
:10243000BCE7119807F0F4FE674B0527D862B5E7B3
:10244000654B119A06271A63B0E7634B119A5A63DA
:102450000727ABE7604B119ADA63F9E75E4B119AF5
:1024600008271A64A2E75D49119807F0B9FE002811
:1024700040F060850222584B83F844701A73092794
:1024800094E7554B119A46F001069A640A278DE7A6
:10249000514B119A46F00206DA640B2786E74E4B41
:1024A000119A46F004061A650C277FE74A4FBB785D
:1024B000012B0FD1079B022B7FF40DAE7B78502BA5
:1024C0003FF409AE002B3FF406AEE1073FF503AE43
:1024D0001625F1E698F80130002B7FF4FCADE207F9
:1024E0003FF5F1ADD8F814303B61F4E524F0400439
:1024F000A4B27B79002B7BD0012B0CBF01230023DE
:102500000D930CBF002302230C930CBF0223012365
:102510000B93FB78012B18D14FF000092E4BDFF8FD
:10252000C8B046FA09F2D0070AD503EB890ADAF8EF
:1025300048005946089307F097FC089BCAF84800E2
:1025400009F10109B9F1030FEBD1079B032B05D169
:10255000BB79012B02D1042E40F0F884204A12AB43
:1025600007CA83E807000A9A1B4F12F4007F45D17F
:1025700097F80090B9F10A0F50D0B9F15C0F00F054
:10258000AD80079B032B18D0BEB13B790027089381
:10259000D8F84430DFF854A0DFF83C800E9346FAB8
:1025A00007F3DB0700F1D180BB0003EB08025344C3
:1025B0001B6A93640137032FF1D1B9F11E0F00F0AC
:1025C000EE80B9F1350F00F00581B9F11C0F40F034
:1025D000B58004490620E4E0780B002000007F432A
:1025E0005C0B00208C0B00203333CB41300B0020E0
:1025F00001224FF0020CCDE90C2C89E7F87906286E
:1026000001D91D2558E698F806208242B0D0194617
:1026100001F0B7FA0028ABD107254DE60EB91A250F
:102620004AE614F0500F3FF465AD386B05F0BCF886
:1026300007F01CFEC0B20628E3D897F82830142B08
:1026400005D0022B7FF4DEAD21063FF5DBAD00287F
:102650003FD00138C3B208939F49089801F091FA1E
:102660000028D9D097F828900027D8F84430DFF810
:1026700070820E9346FA07F3DA0719D5BB0003EB15
:10268000080AB9F1140FDAF848B024D1934A134478
:10269000996B186A07F0DEFA594607F0DBFA022F49
:1026A000CAF8140004D10E9907F0D4FAC8F81C0037
:1026B0000137032FDED124F05004A4B2884B5F7899
:1026C0009A46502F40F08C80002E00F0AF801F25DE
:1026D000F2E5FB79BFE7CAF814B0E9E7002E9ED017
:1026E0004FF0000BD8F84430DFF808827B4F089396
:1026F0000DF14809A8F1480A46FA0BF212F0010F51
:102700004FEA8B023A441CD059F82B10106A07F09C
:10271000A1FAD8F8001007F09DFABBF1020FC8F833
:10272000000004D1089907F095FACAF850000BF19F
:10273000010BBBF1030F08F10408DDD1002308935E
:10274000BCE7926BC8F80020F1E7B9F1350F3FF410
:1027500031AFBA00089902EB080BDBF84830B1B989
:1027600052440F9312AB53F82710906B07F074FA92
:102770000F9B194607F070FA022FCBF848007FF440
:1027800019AF0E9907F068FAC8F8500012E75244E2
:102790001946106A07F060FACBF848000AE70720EC
:1027A0004D4901F0EEF900283FF436AF16B9CDE9F6
:1027B000076683E700234A49484846FA03F2D707E9
:1027C00004D49A0057180244126A7A610133032B29
:1027D000F3D1B3E7424B5B78012BAFD91E256BE5F4
:1027E000079A022A22D12FB91346002E08BF0023D0
:1027F00007931BE00021186907F0CAFC00287FF44A
:1028000067AE8C2F00F09E8108D8022F74D0032F62
:1028100074D0012F0AD1002E079BE7E78E2F00F01E
:102820009181C0F08D818F2F00F08A8115F0010712
:10283000079B15BF24F0210424F44874A4B224F0AB
:10284000010413B124F4F844A4B2002C40F08A83AC
:1028500008212448FFF723F9012805D1224804F074
:10286000BBFB224804F0B8FB10211E48FFF717F904
:10287000012805D11E4804F0AFFB1C4804F0ACFB56
:102880000023CDE915331793002F00F07D810A9BBB
:1028900023F04903002B40F06883114B1B78352B44
:1028A00002D0002B40F061830C4C0D492369227A41
:1028B0001693637A15A813438DF85C30FEF7B0FBCE
:1028C000054600287FF4F8AC0A4E20340FCE0FC422
:1028D00033682360F0E400BF8C0B0020300B002035
:1028E000780B002000080140D4A300083EA4000893
:1028F0000AA40008C00B002045F00405002E3FF498
:102900008EAE01230B9A03FA02F90C9A934049EA1E
:10291000030916EA090F00F01C830B9B0B9ADFF8E2
:102920005CB2123308325BF822105AF8230007F029
:1029300091F90C9B0C9A1233083207465BF822106F
:102940005AF8230007F086F914F08003804600F05F
:102950008F8024F080040C2283490BF12000A4B264
:1029600007F0AAFC08B92125A6E49AF80330DAF8A2
:102970003C00012B04D17D4907F076FACAF83C00EF
:10298000DFF8FCA14FF08141DAF83C90484607F0AF
:102990006BFA494607F068FA39468146384607F02F
:1029A00063FA0146484607F055F9414681464046DC
:1029B00007F05AFA0146484607F04CF900218146D3
:1029C00007F0F0FB002840F0C782484606F0BEFD45
:1029D00004F0FEFE8346894638464146FEF76FFF07
:1029E00006F0B4FD09F100490B4602464946584637
:1029F00006F02EFF07F0DAF89AF80130DFF880A130
:102A0000032BDAF83CB081464FF0000108BF00F11B
:102A10000049584607F0C6FB28B10BF1004B09F1FD
:102A20000049CAF83CB00B9B4146484603F1040BF1
:102A300007F01AFA0146384607F00CF94FF07C51BE
:102A400007F012FA0C9B0AEB8B0B0433CBF8040053
:102A5000394648460AEB830A07F006FA414607F072
:102A6000FBF84FF07C5107F0FFF9CAF80400DDE6EF
:102A7000099A19EA020F00F072829AF8032024F0F2
:102A80000E04012AA4B217D19946DFF8F8A0DFF8A6
:102A9000DCB0099B43FA09F3D90706D5DAF8000040
:102AA000594607F0E1F9CAF8000009F10109B9F146
:102AB000030F0AF1040AECD10C9BDFF8C4A003F168
:102AC00004090AEB8909D9F80410404607F0C2F856
:102AD00083460B9B384603F104080AEB8808D8F8B4
:102AE000041007F0B7F85946FEF7E9FED9F80410CC
:102AF0000746D8F80400FEF7E2FE0146CAF83C009B
:102B00008046384607F0A6F820F0004718493846B6
:102B100007F066FB00283FF489AE4FF07C51384641
:102B200007F05EFB00287FF41EAF1249404607F015
:102B30009BF9394607F036FB00283FF477AE12E7E1
:102B400045F010057237FFB2012F98BF45F0080518
:102B5000002E3FF464AD0C220349074807F0ACFB9C
:102B600000287FF463AEFEE6C00B00203333CB4178
:102B70000AD7A33B6F12833A500B0020300B002082
:102B8000780B00208C0B0020AC4BAD4C93F84930F7
:102B9000AC4F13F0020F0ED07B78013B022B88BFA5
:102BA00045F04005002E00F0D980079B022B40F035
:102BB000D58045F08005FB6AE361BB78637013B193
:102BC00008238DF85C303B69D7F84080636141464B
:102BD0002069159307F0DCFA05F0400608B1AA0653
:102BE0000BD5607A38B12B0605D4002E00F0CA80D0
:102BF000002103F011FD3B6C23610EB9236916938C
:102C000097F84430B87A2376637A834204D01699D1
:102C100003F002FDBB7A63729DF85C30627A787AC9
:102C200013438DF85C30237A834206D002F002FE13
:102C30007B7A002B40F0A88023729DF85C30227ACA
:102C4000E80543EA02038DF85C3015D5F87AA37ADB
:102C5000834200F09C8003F00BFAFB7A012B1CBF2F
:102C6000A27A1343A3729DF85C30A27A25F4807592
:102C70001343ADB28DF85C30387BE37A834200F0C9
:102C8000948003F005FA3B7B002B40F08B80E372CD
:102C90009DF85C30E27A13438DF85C303B78042B6E
:102CA00002D1386B02F026FB7B792371FB78A3708D
:102CB000079B032B0DD1BB7963710BB900233B65D7
:102CC0003E6D606C314607F063FA10B9666401F03E
:102CD00023FFFB79A2799A4207D0A3715A4B12AA1B
:102CE00007CA83E8070001F017FF3B79E3703B78E0
:102CF000262B00F0938060D81C2B78D01E2B76D02A
:102D00000A2B63D07B78502B23700FD0079A022AAE
:102D10000CD1012B40F0AA8015A94C4802F00EF905
:102D20004B4D4A4E0FCE0FC533682B603D7AE5718F
:102D3000002D3FF4C1AAFEF7EFFCE379032B454BCE
:102D400040F0C6801B78022B04D0082001F03AFF27
:102D5000FEF74EFB0025E571FFF7AEBA637A102B44
:102D60007FF429AF237805F04002013B022B05D800
:102D7000002A3FF420AF45F020051CE7002A7FF42D
:102D80001AAFF8E7414634E7227A134354E759076C
:102D90007FF569AF184603F06BF90423A372012392
:102DA000FB7260E7E27A134371E79A077FF570AF31
:102DB000184603F06DF9002369E75C2B33D0662BCE
:102DC0004ED0282B9ED12249072029E0224E089878
:102DD000314600F001FEA379089A934292D196E819
:102DE0000700194B83E8070001F096FE8AE79DF87B
:102DF0005C3043F001038DF85C30079B1BB115A9D3
:102E0000124802F09BF8144E15A9304602F096F8CD
:102E100096E807000E4B83E8070073E706200C498D
:102E200000F0DAFD6EE70D4EDFF820C0BCE80F00C1
:102E30000FC6DCF800303360D6E700BFD80F0020A3
:102E4000300B0020780B00205C0B0020C00B002012
:102E5000500B0020F40A00208C0B0020680B00208F
:102E60000023434AA363C2E90133BDE733B99DF8A8
:102E70005C3043F001038DF85C304DE7023B012BE1
:102E800012D80D9BC5F3800503930C9B0495029308
:102E90000B9B384A0193FB6B15A90093364B03F14A
:102EA000340002F081F83BE79DF85C30EAB243F071
:102EB000040315A931488DF85C3002F04BFA002864
:102EC0003FF42EAF01287FF431AFFFF7AFF82DE7C5
:102ED000642200250126DA711A725A721B78257154
:102EE000022BE5702680A5712581A67215D0244994
:102EF000284600F046FE00283FF48EAB01F00CFEA1
:102F00000021284603F03EFB284602F05BFC3046D9
:102F100003F090F8284603F067F8082001F0E8F87D
:102F200018E70125FFF7C8B90225FFF7C5B918252D
:102F3000FFF7C2B92625FFF7BFB91925FFF7BCB9BE
:102F40000425FFF7B9B91B25FFF7B6B92525FFF70B
:102F5000B3B92025FFF7B0B92225FFF7ADB9232576
:102F6000FFF7AAB92425FFF7A7B91025FFF7A4B9E1
:102F7000680B0020500B00208C0B0020C00B0020A1
:102F80005C0B00202DE9F041114803F0E9FF042813
:102F90001CD14FF6FF750E4C0E4E0F4FA31903F1C7
:102FA0007843A3F5FE33198807EB0408A94202D041
:102FB000204603F0F5FFB8F80010A94202D0A01C8B
:102FC00003F0EEFF054B04349C42E7D1BDE8F081ED
:102FD00000FC0108D40B0020D60FFE1700000208E9
:102FE0000C4A30B510460C4B0C4C1D7803F178415F
:102FF0000133A1F5FE31A3425554F6D113780A2BC3
:1030000006D00023FF22C2540133B3F5806FFAD1FA
:1030100030BD00BFD40B002000FC010800000208F6
:10302000014B185C704700BFD40B0020014B1954B2
:10303000704700BFD40B0020F0B400242346094D94
:103040002F18A24204D115442B54F0BCFFF79ABFAD
:1030500033B9DB090E5D33443E55DBB20134F0E792
:103060000123F7E7D40B00200A4B10B519440023C5
:103070000244904211F8014F03D11B1B58425841A2
:1030800010BD2BB9DB092344DBB200F8014BF0E79C
:103090000123F8E7D30B0020034B9B7A13B10522E1
:1030A000024B1A60704700BF04130020680700201D
:1030B0000422014B1A60704768070020034B1A78FE
:1030C000202A04BF00221A70704700BF6C0700203E
:1030D00070470000212810B50BD1114B1B681B78DD
:1030E00003F07F03212B19D000220E4B02205A60DF
:1030F00013E02028F8D10A4B1B681B7803F07F03EC
:10310000212B084B1870EFD1074B0024044A2046AE
:103110001268936154829847204610BD034BF4E730
:10312000241300206C070020893100087131000849
:10313000094B1A68137803F07F03212B0AD1022868
:1031400006D0222806D1D378044A03F00103536045
:103150000020704702207047241300206C070020D5
:1031600021B901288CBF022000207047022070473F
:1031700020B90822024B1B681A8270470148704729
:103180002413002018000020FFF7F2BF10B5002420
:1031900002F0ACF9044B1B689C72FEF7DDFEFEF7F3
:1031A000CDFA024B1C6010BD2413002068070020DC
:1031B00010B50024324B334A1B68D2795C815A72B5
:1031C000204604F037F84FF40071204604F03AF836
:1031D0001021204604F044F84021204604F0E0F895
:1031E0008021204604F0CCF8204604F0A1F8264BBC
:1031F000204693F8341004F00DF9204604F075F8D9
:103200002146012004F01EF8C021012004F0B8F886
:103210002021012004F024F82146012004F039F88F
:103220004FF4C061022004F00DF84FF480710220C9
:1032300004F0A6F82146022004F02BF820210220F9
:1032400004F00EF82146032003F0FCFF4FF48871D0
:10325000032004F0A5F84021032004F0DBF84FF42C
:103260004051032004F015F82146032003F0F8FF35
:10327000204603F0F3FD0122044B1A6010BD00BF8D
:1032800024130020E2A60008180000206807002090
:10329000014903F0EFBB00BF50000020014903F0DB
:1032A000E9BB00BF58000020054B1B68DB78042BEE
:1032B00004D8044901EBC30103F0DCBB00207047D4
:1032C0002413002060000020054B1B68052B05D14E
:1032D000044B5868003018BF012070470020704729
:1032E000680700206C07002070B5164C164E226847
:1032F000164D92B23280298832880A40910509D54C
:103300004FF6FF53124A236013780133DBB2137078
:1033100003F084FF2A88338813401A0401D5FEF78E
:1033200069FC33882A8813405B0509D54FF6FF33C3
:103330002360084B5B689847BDE8704003F078BF96
:1033400070BD00BF445C0040D40F00202813002053
:1033500074070020200000202DE9F04F5E4D85B05D
:103360002C786F78002C08BF1024013CE4B2A742EF
:103370006FD0342606FB0458D8F82010D8F81C90DB
:10338000084606F069FCD8F8241006F06DFD80466A
:103390000146484606F006FF00B1C846002C06FB71
:1033A00004F608BF1024013CE4B2AB19A742C3F8ED
:1033B0001880DFF828912FD04FF034084E446B78F6
:1033C000A3422FD0002C274608FB049A08BF1024E4
:1033D00095F84433013CE4B2A34201D1FDF700F972
:1033E00008FB0757D7F81CB0B869594606F0D0FE5D
:1033F00080B9396A084606F02FFC796A06F034FD78
:10340000716906F029FC06460146584606F0E8FEBA
:1034100010B3BE615646D2E795F84433BB4201D1A2
:10342000FDF7DEF895F801A034260AF10104E4B2B4
:10343000102C08BF00244FF0000806FB0A9B2B78D5
:103440000293029BA3420AD1B8F1000F01D085F884
:1034500001A005B0BDE8F08FC7F818B0DAE706FBA9
:1034600004F709EB07030393DBF814302F440093B0
:10347000BB6900981946019306F094FEB0B1DBF8E1
:103480001C10084606F0E8FBDBF8201006F0ECFC08
:10349000009906F0E1FB83460146019806F0A0FE84
:1034A00020B1A2464FF00108C7F818B006FB04523D
:1034B000D169906906F06CFE002818BFA24604F19D
:1034C0000104E4B218BF4FF00108102C08BF00241B
:1034D000DDF80CB0B5E700BF780700207C070020BE
:1034E00000220121034B83F844231A7083F845130B
:1034F0005A7070477807002008B51C220021034845
:1035000006F00CFFBDE80840FFF7EABFC00A002044
:10351000084B93F844131A788A420AD04A1CD2B254
:10352000102A08BF0022587883F84423884208BF35
:103530005A707047780700203420034B1A1D1B78FF
:1035400000FB0320704700BF78070020054B93F86D
:1035500044031A7882421DBF3422043302FB003038
:103560000020704778070020084A92F84433117809
:103570000133DBB2102B08BF002399421DBF342159
:1035800001FB032398690020704700BF78070020E3
:10359000044B93F8440393F84533C31A58425841F7
:1035A000704700BF7807002038B5837C0546DA07EE
:1035B000C46A15D5164B187A06F002FC154906F0B8
:1035C00053FC0146204606F04FFC04464FF07E5166
:1035D000204606F005FE08B94FF07E54204638BD5F
:1035E0005B070BD40A4BD87906F0EAFB094906F0D1
:1035F0003BFC0146204606F037FC0446AD6A2146F6
:10360000284606F0CFFD0028E0D02C46DEE700BFBC
:10361000F40A00200AD7233C2DE9F84F4FF0340874
:103620001A4DDFF86CB095F8444395F8009005F119
:10363000040AA14503D1C5F860B3BDE8F88F08FBC3
:1036400004F60AEB0600FFF7AFFF014607465846AF
:1036500006F0A8FD2E44B0B15946584606F004FCC9
:10366000F06108FB0456D6F828B0F069594606F018
:10367000B7FD08B1C6F81CB00134E4B2102C08BF85
:103680000024BB46D5E739463846E7E778070020EF
:10369000FFFF7F7F2DE9F04FA24C3422A0468B46DE
:1036A00018F8045B91B002FB05F6B04401900021CC
:1036B000404606F033FE9BF80830264413F0020F14
:1036C000DBF80420B37518BF974B726308BF04F58D
:1036D000527393E80700342300260DF11C0A8AE890
:1036E000070003FB0549914A019B52F8261053F845
:1036F0002600029206F0B8FB05F028FF03F012FF47
:103700005AF8261004AB43F82600401A80EAE07706
:10371000A7EBE07748F82670D9F810103B468F42A7
:1037200038BF0B46C9F81030039306F049FB029AE4
:103730000AAF52F8261006F04BFC002147F826008D
:1037400006F030FD039B38B1794AB9F8141052F8ED
:1037500026200A43A9F814200136032EC3D1002BDA
:1037600000F0DB804FF034093846FEF7BDF809FB66
:1037700005493946C9F824006E48FEF7EBF839468A
:10378000C9F820006C48FEF7E5F899F81660C9F80A
:103790002C00F1074DD5C9F83000227894F8443355
:1037A0004FF0000A9A4202D016F002064CD03423A1
:1037B00003FB0543C3F818A0C3F828A0342606FB72
:1037C0000546B37D9B0732D44046FFF7EDFED4F8A3
:1037D000609380460146484606F0E4FC002800F06D
:1037E00099804946484606F03FFB342303FB0545D4
:1037F000F061AE6AE869314606F0F2FC00B1EE61B4
:103800004E4B97E80700C4F8608383E8070004AADA
:1038100007CA03E9070094F8453323700133DBB28C
:10382000102B08BF002384F84533FFF795FD0120D6
:1038300074E0DBF800103207C9F83010ADD5D9F8C4
:10384000240006F011FBA6E7D1460DF1340B3C4BEA
:103850003344DA68BB59104619460393019206F0C7
:1038600003FB0146484606F0F5F9019A039B8146A1
:103870001146184606F0EEF94BF8060004360C2EF9
:10388000E5D13049484606F0ABFC18B1342303FBC0
:10389000054391E72C49484606F084FC28B13423BF
:1038A00003FB0543294A9A6288E75846FEF71CF84D
:1038B00059462048FEF74EF8494682464FF07E5062
:1038C00006F0C8F94FF07C5106F0CEFA05F03EFE46
:1038D00003F07EFF06F06AF90646029B5046996B9C
:1038E00006F0C2FA314606F0BFFA314681464FF083
:1038F0007E5006F0AFF90146484606F069FB00210C
:10390000064606F04FFC00B10026342303FB0543B6
:103910009E6253E74146404665E7184611B0BDE850
:10392000F08F00BF78070020200B0020D80F002068
:10393000BCA30008F00F0020E40F0020CC0A0020F8
:10394000C00A0020EFFF7F3FEFFF7FBFFFFF7F7FB9
:10395000054A064B1168C3F8481351689268C3F8CA
:103960004C13C3F850237047200B00207807002029
:10397000064B1A7893F844339A422CBF03F10F0098
:1039800003F1FF30801AC0B2704700BF78070020F3
:1039900008B5FCF725FE044B93F844235A70BDE8A4
:1039A0000840FFF7D9BC00BF7807002038B50546AE
:1039B0000C46FDF7B1FE512303FB05F02146BDE89F
:1039C0003840502200F54070FFF736BB01465022C8
:1039D00040F2AE30FFF730BB38B505460C46FDF778
:1039E0009BFE0D2303FB05F02146BDE838400C2269
:1039F00000F50070FFF720BB08B50A210020FFF793
:103A000015FBBDE80840A02201490120FFF714BBC7
:103A1000D80F002030B5C30785B005463ED5384BDA
:103A2000384A39489A63394A394CDA63394A1A6450
:103A30004FF07E525A64032283F84B20364ADA64F0
:103A4000364A1A65FA22A3F854204FF081429A654B
:103A5000052283F85C20562283F849200B2283F844
:103A60004A202F4AC3E9002202F540329A602D4ACB
:103A7000C3E903025A612C4AC3E906421A622B4A7F
:103A80005A62A2F568129A62A2F5F012DA62284A26
:103A90001A6340F2FF129A86FFF7AEFFA9070AD514
:103AA0000024CDE901440394E0B201A90134FFF7F9
:103AB00093FF082CF8D16A0713D500214FF440700A
:103AC000FFF7B4FA002140F20130FFF7AFFA00210E
:103AD00040F25130FFF7AAFA002140F25230FFF7CE
:103AE000A5FA2B0709D5002140F2AE30FFF79EFA68
:103AF000002140F2AF30FFF799FA05B030BD00BFAA
:103B0000D80F00200AD7233C00803B466F12033BAE
:103B100000BADB4B00007A440000FA440080BB4549
:103B200000001D4300409C4580CB244B0000A0C3F7
:103B30000A00020070B50D4651214143064650224D
:103B400001F540712846FFF78FFA044630B9287016
:103B500029463046FFF72AFF204670BD0120FCE7CA
:103B600038B5502240F2AE310546FFF77DFA0446E3
:103B700028B928702846FFF729FF204638BD0120C4
:103B8000FCE770B50D460D21414306460C2201F5B8
:103B900000712846FFF768FA044648B9002330460A
:103BA0002B606B60AB602946FFF716FF204670BDA7
:103BB0000120FCE708B50020FFF732FA0A2808D1F7
:103BC000A02201210448FFF74FFA003018BF01205E
:103BD00008BD0020FCE700BFD80F002038B50D4617
:103BE00004460021284606F0DDFA002840F07681E0
:103BF000632C30D9643CE4B2022CC3B224D8032B2A
:103C000006D8DFE803F002090E1AB24B43F824503D
:103C1000FFF7F2FE002038BDAE4B03EB8404E560F5
:103C2000F6E7AD49284606F01FF9AB4906F01CF946
:103C3000A84B063443F82400EAE7A64B05F10045FB
:103C400003EB84046562E3E7092C1AD901300528E7
:103C500017D00A3CCFE7284603F0A6FD06F006FB86
:103C6000172CC0B200F0DE803DD8062C00F09C80FE
:103C700015D8022C00F0828005D8002C73D0012CBE
:103C800078D00320C7E7042C924B7FD07CD993F8DF
:103C90004920002800F0858042F040027BE00D2C96
:103CA00000F097800AD80B2C00F08D8000F28E80F7
:103CB0000A2CE6D1874B83F83500A9E7152C00F0D4
:103CC000998000F2A580142CDBD1824A92F8493009
:103CD000002800F08C80D90640F1048143F02003D5
:103CE00082F8493094E71F2C00F0B48017D81A2CC2
:103CF00000F09F8007D8182C00F09880192CC0D1B4
:103D0000744B1D6584E71C2C00F09A80C0F09580F0
:103D10001E2CB6D16F4B1D6493F85C0097E0602CAD
:103D200000F0B4800FD85E2C00F09A8000F2A480DE
:103D3000202CA6D1674A92F84930002800F08D80E7
:103D400043F00203CCE7622C00F0B480C0F0A880FE
:103D5000632C96D15F4B93F84A20002800F0B68080
:103D600042F00202ACE0002800F0BA80594B83F820
:103D700030004DE7574B83F8340049E7554B83F843
:103D80003100FCF7A9FB43E75886FAE793F849208E
:103D900020B142F0040283F8492039E722F00402FE
:103DA000F9E722F04002F6E74A4A92F8493038B182
:103DB00063F07F03002082F8493002F079F927E7A9
:103DC00003F07F03F6E7434B9D6321E7414BDD633F
:103DD0001EE7404A92F8493030B143F0010382F8BF
:103DE000493000F099FE13E723F00103F7E723F0D1
:103DF000200375E7374A92F8493030B143F00803A1
:103E000082F8493001F026FD02E723F00803F7E7C6
:103E1000304A92F8493010B143F0100360E723F0C4
:103E200030035DE72B4B83F84B00F1E6294BDD6453
:103E3000EEE6284BA3F85400EAE6264B9D65E7E63C
:103E4000284606F013FA234BC0B283F85C0002F058
:103E5000A1F9DDE61F4B5D645EE723F002033FE757
:103E60001C4A92F84A3020B143F0200382F84A30CD
:103E7000CEE623F02003F9E7164A92F84A3010B153
:103E800043F01003F2E723F01003EFE7114A92F832
:103E90004A3010B143F00803E8E723F00803E5E7F0
:103EA0000C4A92F84A3010B143F00403DEE723F0E5
:103EB0000403DBE7074B93F84A2020B142F00102EC
:103EC00083F84A2028E722F00102F9E722F00202F3
:103ED000F6E700BFD80F00200000704204209AE6E9
:103EE000062098E60A2096E608B5FFF763FE48B973
:103EF000072000F0D5F8FF20FFF78CFDBDE8084053
:103F000000F04CB908BD0000014803F065B800BFDF
:103F10003EA4000808B55D2001F074FEBDE808402D
:103F2000FFF7F2BF38B50446202001F06BFE2820D1
:103F300001F068FE202C2FD013D81E2C28D029D8B1
:103F40001C2C1BD00023643CE4B2092CDDB203F12D
:103F5000010327D8042C2BD8DFE804F027303234B3
:103F60003600612C1AD003D8602CEBD11B4806E038
:103F7000622C15D0632CE5D1194800E0194803F0F4
:103F80002BF8292001F03EFEBDE83840FFF7BCBF0A
:103F90001548F4E71548F2E71548F0E71548EEE74D
:103FA0001548ECE70A3CE4B2CFE7144803F014F8F4
:103FB000032DE6D8DFE805F00A0C0E101048F5E7EF
:103FC0001048F3E71048F1E71048EFE71048D6E74C
:103FD0001048D4E71048D2E71048D0E765A400089D
:103FE00071A4000841A400084FA4000857A40008C9
:103FF0005FA400080BA5000869A400089EA400089F
:1040000078A400087AA400087CA400087EA4000814
:1040100080A4000888A4000890A4000898A40008C0
:10402000014802F0D9BF00BFA0A4000810B50446A3
:10403000006803F067F82C2001F0E4FD606803F0ED
:1040400061F82C2001F0DEFDA068BDE8104003F00F
:1040500059B810B50446242001F0D4FD204602F0E2
:10406000C4FFBDE810403D2001F0CCBD10B50C46AA
:10407000C0B2FFF7EEFFE0B202F0B7FFBDE81040BC
:10408000FFF742BF38B50C461546FFF7E2FF294659
:10409000204602F0D3FFBDE83840FFF735BF0000EF
:1040A00010B5044620B9BDE81040064802F094BFA0
:1040B000054802F091FF204602F097FFBDE810404E
:1040C000FFF722BFA3A40008A8A4000810B5044667
:1040D000064802F081FF204602F087FFFFF714FF39
:1040E000BDE810404FF4FA70FDF7DCBBAFA4000848
:1040F00010B50446144802F06FFF601E0A280AD863
:10410000DFE800F0060D0F11131517191B1D1F0016
:104110000E4802F061FFBDE81040FFF7F5BE0C4805
:10412000F7E70C48F5E70C48F3E70C48F1E70C48D3
:10413000EFE70C48EDE70C48EBE70C48E9E70C48E3
:10414000E7E70C48E5E700BFB6A40008BCA40008F8
:10415000CEA40008E2A40008F4A40008FCA400080F
:1041600005A5000810A500081DA5000825A5000844
:1041700038A500084AA5000808B54FF4FA70FDF705
:1041800091FBBDE80840014802F026BF53A5000896
:10419000014802F021BF00BF70A500082DE9F843D7
:1041A0007B4C002094F83010FFF760FF94F8341037
:1041B0000120FFF75BFF94F831100220FFF756FF54
:1041C000618E0320FFF752FF94F849100420C1F3D9
:1041D0008001FFF74BFF94F849100520C1F38011CF
:1041E000FFF744FF94F949100620C90FFFF73EFF7F
:1041F00094F835100A20FFF739FF0322A16B0B203A
:10420000FFF740FF0322E16B0C20FFF73BFF94F820
:1042100049100D2001F00101FFF728FF94F8491023
:104220001420C1F34011FFF721FF94F84910152025
:10423000C1F3C001FFF71AFF94F849101620C1F32B
:104240000011FFF713FF94F84B101720FFF70EFF34
:104250000322E16C1820FFF715FF0322216D1920BE
:10426000FFF710FFB4F854101A20FFF7FFFE0322E7
:10427000A16D1B20FFF706FF94F85C0005F09CFD84
:10428000002201461C20FFF7FDFE1C20FFF74AFE1E
:104290000022216C1E20FFF7F5FE0022616C1F201A
:1042A000FFF7F0FE94F849102020C1F34001FFF71A
:1042B000DDFE94F84A105E20C1F34011FFF7D6FEF0
:1042C00094F84A105F20C1F30011FFF7CFFE94F875
:1042D0004A106020C1F3C001FFF7C8FE94F84A10ED
:1042E0006120C1F38001FFF7C1FE94F84A106220FB
:1042F00001F00101FFF7BAFE94F84A106320C1F300
:104300004001FFF7B3FE64260027DFF88890002500
:10431000032F10D8DFE807F0021A2330032206EB40
:10432000050854F825105FFA88F84046FFF7AAFE02
:104330004046FFF7F7FD0135032DE9D10A36F6B205
:104340000137962EFFB2E2D1BDE8F88306EB0508EF
:1043500004EB85035FFA88F80322D968E5E704EBEC
:1043600085034946986905F033FE06EB05085FFAB8
:1043700088F803220146D8E704EB8503596A06EB67
:1043800005085FFA88F801F100410322CDE700BF7C
:10439000D80F0020000061451FB50B4802F01CFE3D
:1043A0000A4901A800F0D0FB01A8FFF73FFE3A2020
:1043B00001F028FC064B587902F017FEFFF7AAFD22
:1043C00005B05DF804FB00BFBAA50008140B00207F
:1043D000F40A00202DE9FF410025234E234FDFF88A
:1043E000A480ECB201A92046FFF7CBFB50B92048CE
:1043F00002F0F2FD072002F0F8FDFFF785FD04B0A2
:10440000BDE8F081304602F0E7FD062C07D0072C0E
:1044100027D004F13600C0B202F0E7FD02E03846D2
:1044200002F0DAFD3A2001F0EDFB013501A8FFF7BB
:10443000FDFDFFF76FFD082DD3D10E4802F0CCFD36
:104440000D48FFF7F3FDFFF765FD0C4802F0C4FDD2
:104450000B4B586C02F056FEFFF75CFDFFF79CFF1C
:10446000CDE74046DCE700BFC0A50008C3A50008B3
:10447000A8A40008C9A50008680B0020CFA5000863
:10448000300B0020C6A5000810B5484C484802F083
:10449000A3FD20788B2805D9464802F09DFD2078A1
:1044A0007630C0B202F0A1FD434802F095FDA0793C
:1044B0003630C0B202F099FD3F4802F08DFD207900
:1044C0001130C0B202F091FD3B4802F085FDA078AA
:1044D000C0F11500C0B202F088FD374802F07CFD43
:1044E000E0785A30C0B202F080FD334802F074FD2B
:1044F0006078C0F15E00C0B202F077FDE37973B17D
:10450000FFF78EFDE079032806D01E2801D002288F
:1045100005D102F06AFD02E0302001F073FBFFF7E5
:104520007FFD637A102B04D0202B38D023B935209F
:1045300000E0332001F066FBFFF772FDA37A23B1A0
:10454000FFF76EFD362001F05DFBFFF769FD237A72
:104550003BB31A0604D5FFF763FD372001F052FB89
:10456000237A5B0604D5FFF75BFD382001F04AFB98
:10457000124802F031FD207E02F037FD104802F0B3
:104580002BFD606902F0D2FD0E4802F025FD206986
:10459000002102F053FDBDE81040FFF7BBBC342002
:1045A000C8E7FFF73DFD3920E0E700BF300B0020F2
:1045B000D5A50008DBA50008DFA50008E2A50008D6
:1045C000E5A50008E8A5000838B505460C460848EA
:1045D00002F002FD284602F008FD3D2001F012FB2A
:1045E000204602F0F9FCBDE83840FFF78DBC00BF63
:1045F000EBA5000838B505460C463E2001F002FB4D
:10460000284602F0E9FC3A2001F0FCFA2046BDE819
:104610003840FFF745BD000010B504461B4802F0C6
:10462000DBFC204602F0D8FCFFF774FC184802F0CF
:10463000D3FC204602F0D0FCFFF76CFC154802F0DA
:10464000CBFC204602F0C8FCFFF764FC124802F0E5
:10465000C3FC562001F0D6FA4D2001F0D3FA5A20BF
:1046600001F0D0FA4C2001F0CDFA2C2001F0CAFA6A
:104670000F2002F0BAFC2C2001F0C4FAFA2002F05C
:10468000B4FCBDE81040FFF745BC00BFEEA5000834
:1046900002A6000826A6000842A600082DE9F04F51
:1046A000A34A8BB001AB04AF07CAA24C83E8070052
:1046B0001946384600F048FA3C2001F0A3FA237866
:1046C000082B00F0A78000F28680012B00F0A88064
:1046D000C0F09C80022B00F0A580042B00F09E808F
:1046E000954B93F83580994618F0010800F0AC809E
:1046F000637B002B00F0A880904802F06DFC3846E8
:10470000FFF794FC99F8353098070ED58C4802F0E5
:1047100063FCFFF72DF902F068FC2C2001F072FA1F
:1047200001F048FAC0B202F060FC864802F054FC86
:10473000FCF758FB02F0FAFC2C2001F063FA002190
:10474000206902F07BFC01F0C3F8064600F05CF93A
:10475000054601F0CBFC46EA0503184310F0FF0FB5
:1047600027D0794802F038FC4EB1F10702D5582025
:1047700001F048FAB20702D5592001F043FAC5B159
:10478000EB0702D5442001F03DFAAF0702D55220D5
:1047900001F038FA6E0702D5482001F033FA2807F5
:1047A00002D5532001F02EFAE90602D5462001F089
:1047B00029FA637B002B70D0013B6373237B002BB2
:1047C0007DD0013B23733E2001F01CFAFFF79CFBD8
:1047D0000BB0BDE8F08F202B1ED010D8102B7FF42B
:1047E0007FAF94F90230002B16DB584802F0F4FB3F
:1047F000A378D90724D5302001F004FA70E7402BC4
:1048000012D0802B7FF46CAF514800E0514802F089
:10481000E3FB65E75048FAE75048F8E75048F6E709
:104820005048F4E75048F2E7504802F0D5FBA3782F
:104830001A0701D53320DFE75E0703D59D06DAD5D9
:104840003120D9E73220D7E70025494E0DF11C0B66
:10485000D6F844A0343656F8080C56F8041F05F074
:10486000FBF9022D4BF8250003D1514605F0F4F970
:104870000990B8F1000F07D157F825005BF8251013
:1048800005F0E8F947F825000135032DE3D1B8F12B
:10489000000F7FF431AF37482FE7237813F07C0FF8
:1048A00014BF1D2313236373237B0BB901232373CD
:1048B000314802F091FB07A8FFF7B8FB7EE72378A9
:1048C0002E4813F07C0F14BF13230E23237302F022
:1048D00083FBE07902F089FB2C2001F093F9207A28
:1048E00002F083FB2C2001F08DF9607A02F07DFB51
:1048F00001F026FC054600F0DDFE044615B900284F
:104900003FF461AF1E4802F067FB2DB1012D0CBFD3
:104910005320432001F076F9E20702D5462001F04A
:1049200071F9A3077FF54FAF4D2001F06BF94AE70E
:10493000200B0020F40A0020D80F002080A60008D9
:104940008EA6000893A6000898A6000859A600089D
:104950007AA6000850A6000855A600085FA6000821
:1049600063A6000868A600086EA6000874A60008E2
:10497000300B002087A600089DA60008A3A600080B
:10498000A8A6000830B5012185B00920FDF720FB5D
:1049900048238DF8033040F6E153022504A921F89D
:1049A000103D18488DF80250FDF71EF80521012032
:1049B000FDF792F806210120FDF78EF8072101206E
:1049C000FDF78AF808210120FDF786F84FF4F0730F
:1049D0000293002301248DF80C300C2302A88DF8DB
:1049E0000D308DF80E4001F029FE40F2172301A88A
:1049F000ADF804308DF806508DF80740FCF7E4FA66
:104A000005B030BD000C014010B51248FDF74DF85F
:104A100004461148FDF749F8B4F5F07F18D00F4A65
:104A200084F4F07392F84A009BB210F0040018BFAF
:104A3000C3F30020990648BF40F002005A0648BF61
:104A400040F004001B0601D540F00800C0B210BDC4
:104A50000020FBE7000C014000080140D80F0020B7
:104A600010B54FF4F07001F02BFEFFF7CDFF0446B8
:104A7000A0B1830713D5114B93F84A30980601D59E
:104A800000F0CAFCE30741BF0D4A137843F020034E
:104A900013704FF400020B4BC3F8802110BD0107C7
:104AA00005D5074A137843F002031370EAE742077B
:104AB000E8D5034A137843F00803F6E7D80F00203F
:104AC000120B002000E100E008B5054B93F84A0006
:104AD00010F0040003D0FFF797FF00F0010008BDBD
:104AE000D80F002038B50446002521462846FFF798
:104AF00021F840B9072120702046FFF77BFD05B162
:104B000038BD0125F1E72378002BF8D02046FDF7CA
:104B100095FA0146F0E7000008B5FCF7FDFD00221C
:104B2000014B5A7308BD00BFF40A002010B50C46B3
:104B300050F8210005F044F9024B53F8241005F019
:104B400047FA10BDD80F002070B505460E46002468
:104B5000A1B23046FFF7EAFF45F824000134032CE8
:104B6000F6D170BD2DE9F843814600240027144D8D
:104B700095F84B8059F8246048FA04F3DB0739466E
:104B8000304611D505F00EFBC0B905EB8403586A19
:104B9000314600F1004005F005FB78B90134032CE3
:104BA000E8D10020BDE8F88305F01AFB30B905EB29
:104BB00084033146586A05F013FBEEE70120F1E764
:104BC000D80F002072B6034A13781843107062B6EB
:104BD000704700BF120B00207FB5012344780546C3
:104BE000432C8DF8073003D00BD884B1242C54D13A
:104BF000AD78D5B9432C38D01DD8242C29D0002429
:104C000007E04A2C08D0582CF2D0472CEFE7FFF7EA
:104C1000BFFA204604B070BDA54B1B7813F0DF0F20
:104C200040F0448183783D2B01D00324F1E7FDF768
:104C300005FA0446EDE7472C14D0582CDFD19C4DE3
:104C40002B78012BDBD1FFF73FFF044600B30D2487
:104C5000DFE7974B1C7814F0180440F02781FFF72A
:104C60009DFAD6E7FFF710FCC9E7914B1C78022CA0
:104C700005D100F0D1FB0520FFF73AFABFE7002C81
:104C800040F01481022204201A70FFF731FAC0E7C5
:104C90000320FFF72DFA2C70BBE7854E3378012BEC
:104CA00000F20481492C62D005D8232C28D0482C4E
:104CB0002CD00024A9E0522C77D0532C47D04E2C76
:104CC000F7D10222AC788DF80720002C40F09A80B2
:104CD00029462046FEF72EFF002800F08B8029464B
:104CE0002046FFF771FC29460120FEF723FF04460A
:104CF000002800F0838029460120FFF765FC7EE74D
:104D0000AC78002C91D1FFF765FB82E7694B93F8F3
:104D10004930DB0640F1C880FFF7D6FE002896D167
:104D200004233370AB78002B7FF47FAF00F0F4FAEC
:104D30007478002C7FF463AF3470FBF731FAAB78F2
:104D4000002B7FF45CAF2846FFF7CCFE61E7AB7821
:104D50004C2B7FF46AAFEB78502B7FF466AF2C7945
:104D6000002C7FF462AF8020FFF72CFF51E7022375
:104D7000AC788DF8073034B92846FEF7F1FE2846A6
:104D8000FFF74AFC45E73D2C7FF44FAF0323EC5C73
:104D9000EA18013302F8034CDBB2002CF7D12846A5
:104DA0008DF80730FEF712FE33E7AB78532B7FF414
:104DB0003CAFEB78542B7FF438AF2B793D2B7FF44D
:104DC00034AFAB79002B7FF430AF6B79242B06D056
:104DD0002A2B0DD0232B7FF428AF022000E00120E6
:104DE000FEF718FE0920FFF783F900F015FB06E730
:104DF000FF20F5E70720FFF753F974E70720FFF7D7
:104E00004FF906E7002B51D1012402AA0DF1070149
:104E10002846FCF7B5FC08B90224FAE69DF80730ED
:104E20005A1CEB5CD2B23D2B8DF807207FF4FDAE0F
:104E3000E4B11346EC5C981AE9182C540978013354
:104E4000DBB20029F6D128468DF80730FDF7F6F8D9
:104E5000044600287FF4DDAE029802F0A5FC05F0C0
:104E600005FA2946C0B2FEF7A1FDD2E603AA0DF16C
:104E700007012846FCF784FC0028CDD09DF80730B8
:104E8000EB5C002B7FF4D1AE029C0B49204605F071
:104E9000A7F900287FF4C9AE204605F0E7F9039989
:104EA000C0B2FEF79BFEC4E60524B2E60824B0E6D5
:104EB000F40A0020D80F002000007F4372B6034A96
:104EC000137823EA0000107062B67047120B0020BE
:104ED00072B6034A13781843107062B6704700BF69
:104EE0002C0B002072B60022014B1A7062B670477C
:104EF0002C0B002072B6034A13781843107062B668
:104F0000704700BFF10A002072B6034B1A881043A5
:104F1000188062B6704700BF100B002072B60022E6
:104F2000014B1A7062B67047F10A002072B6002277
:104F3000014B1A8062B67047100B0020F8B5174C71
:104F4000074694F849200D4612F0200F144E04D065
:104F50003378202B01D000F00DFE3378022B1BD0CC
:104F6000FCF746FA7378BBB9FEF712FB10B1FCF7F9
:104F700085F8F5E729463846FEF78CFB60B994F8CA
:104F800049309A0708D52B7ADB0605D569681020C9
:104F9000BDE8F84001F040BBF8BD00BFD80F0020CD
:104FA000F40A0020000000002DE9F04F1C46924654
:104FB0008FB09DF86C309DF8645003939DF870306D
:104FC00054F825700493AB001A44CDE90110E3189E
:104FD0005AF8251038460892099304F03DFE9DF8D2
:104FE000688005904FEA88030AEB0302E31854F83F
:104FF00028405AF8281020460A920B9304F02CFE01
:10500000029B0599069053F8250004F023FE029BAD
:105010000546069953F8280004F01CFE07F10047E6
:1050200083462946384604F01FFF04F100448046B9
:105030005946204604F018FF0146404604F00CFE95
:1050400004F084FA804689463846594604F00CFF3D
:1050500029468346204604F007FF0146584604F0DF
:10506000F9FD04F073FA4B464246189E02F0AEFB7F
:1050700004F09CFD049B0546002B48D004F066FA22
:1050800093A3D3E900238046894604F03DFD48B14F
:1050900091A3D3E900234046494604F0F7F804F011
:1050A00085FD0546904B3146D3F83C80304604F0F0
:1050B000D3FD414604F0CEFD414604F0D5FE04F098
:1050C00045FA02F085FB8046894628464FF07C5120
:1050D00004F0CAFE314604F0C7FE20F0004004F0A0
:1050E00035FA42464B4604F0B3FB04F05FFD02F094
:1050F000EBFA05F0BBF81FFA80FBBBF1000F19D1EA
:10510000DDE901100FB0BDE8F04FFFF717BF04F065
:105110001DFA73A3D3E900238046894604F0EAFC14
:105120000028BFD06CA3D3E900234046494604F0D1
:10513000AFF8B4E7019B58461E7A04F041FE3307EE
:10514000804609D5019B0146186804F08DFE019B3D
:1051500026F0080618601E724146284604F038FF03
:10516000039B06460AEB83030493039B5AF8231020
:10517000DDE9023253F8220004F06CFD414604F0F0
:1051800027FF31460C90304604F06EFE01464FF08A
:10519000804004F05FFD55490546304604F064FE4A
:1051A0004FF081418046284604F056FD01464046B6
:1051B00004F05AFE4FF07C510390284604F054FE50
:1051C00001254FF000080790ABB29B4598D9B8F184
:1051D0000B0F3FD80399384604F046FE07998146E5
:1051E000204604F041FE0146484604F035FD07998B
:1051F0008146384604F038FE03990746204604F0FD
:1052000033FE0146384604F025FD4C46074608F1BA
:1052100001085FFA88F80599384604F01DFD089BDF
:1052200006991860204604F017FD0A9B0C99186037
:10523000049B0135186804F00FFD049B0199186068
:105240005046FFF77BFE2A4B5B78002BBCD00FB09B
:10525000BDE8F08F284604F0B3FD314604F004FEAB
:1052600004F074F98046894602F014F904F09EFCBB
:1052700049460446404602F09BF904F097FC099B1E
:105280000B9A1B68814603F1004318462146D2F869
:1052900000800D9304F0E8FD49460746404604F0BF
:1052A000E3FD0146384604F0D7FC0D9B494607460E
:1052B000184604F0D9FD21468146404604F0D4FD4D
:1052C0000146484604F0C6FC4FF000080446A2E739
:1052D0008DEDB5A0F7C6A0BE182D4454FB21194092
:1052E0008DEDB5A0F7C6A03ED80F0020ABAA2A3E90
:1052F000F40A002010B5074B04461B78022B07D098
:10530000FCF70AFA2046BDE810400021FCF7A8BAD5
:1053100010BD00BFF40A002008B500F0D1FA032048
:1053200000F02CFBFCF764F8084B5B786BB9FCF7DA
:105330007DFEFEF70DFB4FF4B84001F0C1F94FF4CC
:105340008072034BC3F884215A6008BDF40A002020
:1053500000E100E02DE9F8432B4C80462378894694
:10536000022B174625464DD0FCF7D6F9667816B1C4
:105370000220BDE8F883C7F3C000667100F098FE14
:1053800000F0B4FE40B10420FFF7A2FDFCF730F8B6
:10539000304600F08DFEEBE740464946FFF7CEFD74
:1053A00001231A4C02202370FFF70CFCFCF720F8B5
:1053B0006B78002BDCD12B78002BF7D12378012BD5
:1053C0001DD1FB0617D5124B124A07CA83E8070006
:1053D0000020207000F06CFEFCF70AF8FBF7B4F830
:1053E000FEF78AF8FEF7B4FAFEF7D6FF68790030C8
:1053F00018BF0120BDE70520FFF76AFDE8E701239C
:105400006B71E5E70020B4E7F40A0020130B0020DD
:10541000140B0020200B002008B5114B1B78DB0675
:105420001DD41020FFF7CEFB00F096FE00F054F9DB
:105430000C4A137813F02C0F03D1127912F0060FD7
:105440000DD0042B09D1084B1B7813B90620FFF7A8
:105450003FFDBDE80840FAF7A3BE0320F7E708BD0B
:10546000120B0020F40A00202C0B0020002370B542
:105470001E46050FECB2092D94BF3034373401F8C5
:10548000134001EB430401336670DCB2A2424FEAE1
:105490000010EED870BD08B50020FCF793FDBDE804
:1054A000084001214FF40000FCF79EBD37B54FF4D2
:1054B000C060FBF77FFD00254FF48A73012401A82B
:1054C000ADF804308DF806508DF80740FBF77CFDF1
:1054D0004FF4957301A8ADF804308DF806508DF89F
:1054E0000740FBF771FD03B030BD7047094B10B5A5
:1054F00018685C6808331B68C0180AD0082206497F
:10550000FFF7B4FF2046BDE8104004220349FFF72F
:10551000ADBF10BDE8F7FF1FE2000020F200002041
:10552000224A038890429BB212D002F50062904258
:105530000ED0B0F1804F0BD0A2F59832904207D038
:1055400002F58062904203D002F58062904203D15E
:105550004A8823F070031343154A904208D002F59D
:10556000806290421FBF23F44073CA889BB21343EA
:1055700003808B8883850B8803850C4B98420FD062
:1055800003F5006398420BD003F54063984207D0BF
:1055900003F58063984203D003F58063984201D1FC
:1055A0000B7A038601238382704700BF002C0140E1
:1055B00000100040038C70B523F480531B041B0CB7
:1055C0000384038C8488828B0D8822F4E6421204C3
:1055D000120C42EA052223F400530D894E881B0465
:1055E00035431B0C43EA05330B4DA4B2A84292B2DB
:1055F0009BB203D005F50065A84205D18D8924F43E
:10560000804444EA8514A4B284808283CA88A0F8C6
:105610004020038470BD00BF002C0140038819B1F5
:1056200043F001030380704723F001031B041B0CAC
:10563000F8E7838912B119438181704723EA010198
:10564000FAE7038923F007031B041B0C038170474F
:10565000038819B143F080030380704723F080036F
:105660001B041B0CF8E7838B23F400631B041B0C47
:1056700043EA012189B281837047038819B143F05D
:1056800004030380704723F004031B041B0CF8E79A
:10569000038923F080031B041B0C03810389194336
:1056A00001817047A0F840107047C94389B2018258
:1056B0007047000010B50748FCF7FAF9C0F3C03492
:1056C0000448FCF7F5F9C30648BF44F0020420463D
:1056D00010BD00BF000C014070B5124E124D96F87F
:1056E0004A20124CD243284602F010024FF40041E7
:1056F000FCF7E3F9204600224FF48041FCF7DDF986
:1057000096F84A202846D243102102F01002FCF7F6
:10571000D4F92046BDE8704000224FF48041FCF7E8
:10572000CCB900BFD80F0020000C01400010014090
:10573000F7B501210820FCF74BFC48F210031025B7
:1057400002271D4C02AE26F8043D314620468DF856
:1057500006708DF80750FCF747F920464FF40041DA
:10576000FCF7B2F901210820FCF732FC3146134E58
:1057700020468DF806708DF80750ADF80450FCF700
:1057800033F996F84A202046D2434FF400412A408C
:10579000FCF793F900224FF480410948FCF78DF99A
:1057A00096F84A202946D24320462A40FCF785F93C
:1057B000FFF792FF03B0F0BD000C0140D80F0020AE
:1057C0000010014038B5174C0546627822B920B95F
:1057D000FFF782FF0023237338BD42060FD5124B1B
:1057E0004FF4004193F84A20104802F01002FCF7F1
:1057F00064F901224FF480410D48FCF75EF92B0655
:10580000E8D5094B102193F84A20084802F010020D
:10581000FCF753F901224FF480410548FCF74DF99C
:10582000D8E700BFF40A0020D80F0020000C014088
:105830000010014010B5064B04461B78022B06D021
:10584000FBF76AFF2046BDE81040FFF7BBBF10BD65
:10585000F40A00201FB5184B93F849301B0724D5D4
:105860000A210120FCF738F90B210120FCF734F95B
:105870004FF440630293002301248DF80C30102371
:1058800002A88DF80D308DF80E4000F0D7FE4FF4D1
:105890000A73ADF80430032301A88DF806308DF8A3
:1058A0000740FBF791FB04B010BD4FF48072034B2F
:1058B000C3F88420F7E700BFD80F002000E100E024
:1058C0004FF48072014BC3F88420704700E100E080
:1058D00008B50C48FCF7E9F80B4B93F849305B0628
:1058E0005CBF80F4406080B258B1084A13685268C7
:1058F00018420CBF0023012310420CBF184643F08E
:10590000020008BD000C0140D80F0020C8A3000809
:1059100008B54FF4806000F0C5FE18B14FF4806008
:1059200000F0CEFE4FF4006000F0BCFE18B14FF462
:10593000006000F0C5FE4FF4805000F0B3FE18B1D7
:105940004FF4805000F0BCFE4FF48072084BC3F857
:105950008421084B1B78012B09D0074B1B7833B9E6
:10596000FFF75AFDBDE808400120FFF7B1BA08BDB6
:1059700000E100E0F40A00202C0B00202DE9F04F9C
:10598000744B8DB05C7882469846002C40F0A9801C
:1059900006234FF00009CDE906446F4D6F4E704F5E
:1059A00008940DF1140B8DF8203055F82420A30035
:1059B00004F80B204AFA04F2D0070BD533443946D9
:1059C000586A04F051FA4946009004F0EBFB08B91C
:1059D000009B99460134032CE7D1604D01272B6DC4
:1059E00000930423019309AB18465E490393FFF724
:1059F000ABF800200646014695F84B3009F1004C03
:105A00000293039B4AFA01FE1EF0010F17D00024F7
:105A1000544A013042F82140029AC0B242FA01FED3
:105A20001EF0010F03D027B143F821C003E0002F7F
:105A3000FAD043F821901BF801E046EA0E06013146
:105A40000329DFD104F0B8F901F020FF88F80660DF
:105A50000146009804F008FA06A9069009A8FDF787
:105A600019FE042388F80430FAF7D2FDFAF74EFB4A
:105A7000DFF8FC9087B1FFF72BFF00231BF8032012
:105A8000324204D040FA03F1C90748BF96430133BC
:105A9000032BF3D188F80660FAF7BAFD99F80030C5
:105AA00013F0340F4BD099F80060F6B2F30602D52C
:105AB0000620FFF70DFAB40602D50720FFF708FA13
:105AC000002F43D1FFF704FF10EA0A0F02D008208D
:105AD000FFF7FEF9244B1B7833B1FFF79DFCFBF772
