:020000040800F2
:10000000682C0020391800080F75000811750008C9
:10001000137500081575000817750008000000002A
:10002000000000000000000000000000197500083A
:100030001B750008000000001D7500083518000839
:10004000351800083518000835180008351800085C
:10005000351800083518000835180008351800084C
:10006000351800083518000835180008351800083C
:10007000351800083518000835180008351800082C
:10008000351800083518000835180008351800081C
:100090001F7500083518000835180008A14A000827
:1000A00035180008351800083518000835180008FC
:1000B000F9010008FD03000835180008351800088C
:1000C00035180008351800083518000835180008DC
:1000D00035180008A15D000835180008351800081B
:1000E0009158000835180008351800080000000075
:1000F0000000000000000000000000000000000000
:1001000000000000000000005FF808F138B5174D4E
:10011000174C95F849204FF4004112F0040218BF23
:100120000122144801F015FC236B1348236195F854
:1001300030300125043BC3EBC30203EBC203DB43B6
:100140009BB2E381013B9BB283852946858205F002
:10015000B5FA4FF08042E36A5B68013B9BB293853E
:1001600095824FF08052054B1A6038BDD0100020A8
:1001700040050020001001400004004000E100E0C4
:100180004FF08052164B10B5C3F880200022154C5A
:10019000154B94F8340083F83420144AFF28117862
:1001A00015D1134B1B7803F0FF0283B9802910D0BF
:1001B00094F849305B0748BF82F0010202B1012286
:1001C000BDE810404FF400410A4801F0C2BB0429C9
:1001D00003D001F0B3FA0122EAE70022E8E700BF0A
:1001E00000E100E0D010002040050020EC0B0020D2
:1001F000240C002000100140F8B54FF080452B8AF8
:10020000DF0740F1DE802B8A754E23F001031B04CB
:100210001B0C2B820023AB8496F834303446002B21
:1002200040F0CF806F4801F08FFB716920F4F070CF
:1002300021F4FC414004400C21F01F01014389B22C
:10024000684801F08BFB0121674805F037FA6548E3
:1002500001F07AFB316920F01F00014389B2614847
:1002600001F07CFB4FF00052604BF76A1A600123EB
:1002700086F83430002F40D1F38E328F9A4200F04E
:10028000A180F38E06F13C019AB20C23534319442A
:100290003344F162196C013989B2A985D96B93F89D
:1002A000440096F82630B18483420ED01423434391
:1002B00006F1840119443344D3F8903086F82600BF
:1002C0005B08C6E90133B1623360A16AD4F8E80083
:1002D0000B8A434063610C2303FB02430A6893F8D3
:1002E0004500C240A2614A68C240E2618A68C240D9
:1002F000B3F84600226206F00BF93D4B1B78012B48
:1003000001D105F0E3FE0023A06A22682361A369FE
:10031000C1681A448A4222600CD90123521A226011
:10032000344A058A23611368AE064CBF03F1FF33DC
:10033000013313606268E3691A44914262600ED22D
:100340002369521A62602B4A43F00203058A236133
:1003500053686D064CBF03F1FF3301335360A3684C
:10036000226A13449942A3600ED222695B1A42F0BA
:10037000040222611F4A018AA360936809064CBFE8
:1003800003F1FF33013393601B4B1A78042A01BF3A
:100390009B79226913402361A38C013B9BB2A38408
:1003A00043B9E362E38E0133DBB2062B08BF0023BF
:1003B0009BB2E3862369226B53402361002384F8B8
:1003C0003430F8BDFFF7DCFEB36A9B7C13B13846CE
:1003D00006F09EF8BDE8F840042004F003BC00BF1E
:1003E00040050020000801400004004000E100E05A
:1003F0000A0C0020180C0020EC0B0020114A08B554
:10040000138ADB071CD5138A0F4823F001031B0452
:100410001B0C1382002393844FF000520B4BC3F844
:10042000802001F091FA0A4B20F01F00196BBDE803
:10043000084001F01F01014389B2034801F08EBA60
:1004400008BD00BF000400400008014000E100E0DA
:100450004005002000232DE9F04117491C4691F882
:100460003170B1F832C01D4619461846134A144E71
:100470001363C2F8E83006F10C0E47FA03F818F0DF
:10048000010F18BF56F823504CFA03F81CBF28433D
:10049000012518F0010F18BF5EF8234003F1010396
:1004A0001CBF21430124032BE7D105B110630CB11C
:1004B000C2F8E810BDE8F081D0100020400500200F
:1004C00040A4000838B51F4CFFF75AFE382200211F
:1004D00004F1EC0009F06AFF00213022204609F007
:1004E00065FF00230122184DA4F82821E386C4F8F3
:1004F0002431238784F83430FFF7ACFFD4F8E83098
:100500002846636101F020FA216B20F01F0001F002
:100510001F01014389B2284601F020FA284601F064
:1005200013FAD4F8E81020F4F07021F4FC414004F0
:10053000400C21F01F01014389B22846BDE8384034
:1005400001F00CBA400500200008014038B50A4C03
:10055000D4F8245175B194F8ED30D4F8081143F073
:10056000010384F8ED30084609F0C6FC00236861F9
:10057000C4F8243138BD00BF400500202DE9F04FFC
:10058000B04B8DB01B79DD0700F13283DFF8B8B2D4
:10059000BBF83620BBF82811914200F02983DBF824
:1005A0002421002A52D1A74F3A79540740F1DA802A
:1005B00002F074FFCBF82401DBF82441002C00F09A
:1005C00017839BF8ED60F00740F1CF8000228BF895
:1005D000ED200023DBF82461CBF80431D6F81C8031
:1005E0004FF07C50414609F03BFD3A79044612F049
:1005F0000201356A00F0328102228BF8002176690F
:100600000146304609F078FC0146284609F06AFBAD
:100610000021044609F00EFE002800F00D8141463D
:10062000404609F061FB294609F066FC0146304668
:1006300009F058FB08F0D2FF07F012F909F0FEFAB2
:10064000CBF810013A7942F008023A71BBF8383021
:100650000C22194601937C4B02FB0132DBF824315A
:100660009BF8EC1002931B6A82F844101846DBF8E2
:10067000FC10089309F036FB00210A9009F0DAFD1E
:1006800008B100230A93DBF81431DBF80CA10493C2
:10069000DBF8183104990593DBF8043105980693CB
:1006A000DBF81031DBF808419BF80081099309F071
:1006B000B7FD002800F09E814FF002030027DBB257
:1006C0000B930023BB46614EDDF820900393079601
:1006D000B8F1010F00F0DD81029B3046D969C0F00E
:1006E000A281B8F1030F40F0F18109F005FC074643
:1006F0005146204609F0F6FA394609F0A5FD0028D2
:1007000000F07B810499089809F0ECFA014609F0A1
:10071000EBFA21460546504609F0E6FA014628461E
:1007200009F09EFC012706465446BB46B846049D88
:100730003146039809F0D8FA03900146079809F06A
:1007400097FD002800F0F4810399079809F0CAFA90
:1007500029460646069809F06DFD002800F0EE8156
:10076000A946B5E702F0A4FE24E79BF8EC2014218B
:100770000132D2B2052A08BF00228BF8EC204A438E
:10078000314B334D218A15441A44A2F89410216844
:10079000E068C900C2F884106168CBF82C51C90028
:1007A000C2F88810A168C900C2F88C10C100C2F854
:1007B000901009F049FB216ACBF8F40009F050FCD5
:1007C0000146CBF8F800234809F04AFC00233A79A7
:1007D000CBF8FC009107CBF8F03001D4320721D5DB
:1007E000DBF8101126F00806CBF80811084609F0CE
:1007F00083FB8BF8ED6060610022AA74164A92F8C0
:10080000492093077FF5E5AEA27C96067FF5E1AE21
:10081000E16A4FF07E5009F023FC0122CBF81C0165
:10082000AA74D6E6606908F0D9FE07F019F809F055
:1008300005FACBF80801DFE70023CBF80441CBF839
:100840001031FFE6EC0B0020400500205304E9388E
:10085000C40500200000A03FD010002050078BF8F6
:100860000011CBF8145147D500239846CBF810312E
:10087000DBF8240102F04AFE0146029009F03CFB3D
:10088000DBF8243105465E69014630460193D3F812
:1008900020A009F0EDFC00284AD02946304609F096
:1008A00021FA214609F028FB0146504609F01AFAC0
:1008B0000021CBF8140109F0C7FC48B30222019BC8
:1008C0008BF80021D969084609F00EFA514609F063
:1008D00013FB0146304609F005FA08F07FFE06F0EA
:1008E000BFFF09F0ABF99BF8ED20CBF8100142F007
:1008F00008028BF8ED20A5E602F0E8FD804608F03E
:100900006DFE06F0ADFF09F099F9CBF81001AFE7E5
:100910004146284609F0E6F9214609F0EDFA03229E
:10092000029BCBF81801CBF80C318BF8002189E63B
:100930004146304609F0D6F9214609F0DDFA514624
:1009400009F0D2F94FF07C5109F0D6FA0021814626
:1009500009F08EFC002845D04946504609F088FC35
:1009600000283DD04146284609F0BCF9214609F04F
:10097000C3FA4946CBF8180109F05CFCC0B1029BF0
:100980002946CBF80C31304609F04AFC08B1012267
:10099000CBE73146284609F0A5F9214609F0ACFA23
:1009A0000146DBF8140109F09DF9CBF8140149E682
:1009B000019BCBF81491D969CBF81891084609F03E
:1009C00093F9494609F098FA414609F08DF908F083
:1009D00005FE06F045FF09F031F9CBF80C0131E6D0
:1009E0000222A2E70023DBF81021CBF81431CBF868
:1009F0000C2127E64FF0010360E64FF07C513846AA
:100A000009F07AFA0146204609F06CF9314609F0FE
:100A100073FA0146484609F065F90546394620460D
:100A200009F060F932E009F067FA4FF07C510746AF
:100A300009F062FA214609F057F9314609F05CFAEB
:100A40000146484609F04EF905460146049809F06A
:100A50000FFCB8B10499089809F044F9014609F06F
:100A600043F921460546504609F03EF9014628461D
:100A700009F0F6FA012706465446DDF82C80049D5D
:100A8000BB4655E63946204609F02EF904460127B3
:100A90004EE63146504609F02FFA0146484609F025
:100AA00021F905460146059809F0E2FB00283FF4CC
:100AB0003FAE0599484609F015F9514609F0D0FABC
:100AC000C3460646059D4FF0020831E609F014FAC8
:100AD0002146074609F0AEFBB0B14FF07C513846D5
:100AE00009F00AFA0146204609F0FCF8314609F0FF
:100AF00003FA0146484609F0F5F80546014606980E
:100B000009F098FB002889D10699484609F0EAF8CF
:100B1000014609F0E9F821460546099809F0E4F88C
:100B20000146284609F09CFA099C0646069DAEE758
:100B30000A99284609F09CFB00285CD17E4BBBF14A
:100B4000000F01D083F800810FB1C3F808417A4C3F
:100B50007A4FD4F82C3126469A7C12B93B79190782
:100B60001CD5029B9B7C13F030034BD0029BD3F827
:100B7000308052B1D4F81C11D4F8080109F0BCF946
:100B80000146404609F0B8F98046404605F0DAFCD7
:100B9000A4F820013B7923F008033B710C23019A50
:100BA000D4F8F81003FB0263B4F820212846A3F818
:100BB0004620029309F0A0F9824606F089FD80469E
:100BC000D4F8F40006F084FD4146814609F08AF825
:100BD00009F094FB029B1FFA80FBC3F83CB0BBF109
:100BE000000F14D13B799A0711D543F001033B71F3
:100BF0000DB0BDE8F08F5249079809F075F80399D8
:100C00000790A3E50022A4F820313A61C2E7D4F8A6
:100C1000F010039809F068F851460290484609F030
:100C200061F8029B0146184609F01AFA454B464AFC
:100C30001B688146B3FBF2F05043029309F004F9BC
:100C4000494609F059F9414909F056F906F040FDC5
:100C500009F054FB48F6A042029BB3FBF2F2824239
:100C60003BD90C23019A03FB0263002283F8452041
:100C70000C23019AB0F5803F03FB02632ABF4FF0BB
:100C8000FF3218641A64B4F82831514623870133BF
:100C90009BB2062B08BF0023A4F82831D4F82431D6
:100CA000C4F8F4801D62404609F01CF8494609F07A
:100CB00023F92946C4F8F000D4F8040109F0B0FA89
:100CC00000283FF463AC002128463C7909F0D0FAB3
:100CD00048B344F001043C718AE744F25062B3FB2C
:100CE000F2F2824211D90C23019A03FB0263012222
:100CF00083F845200C22019B02FB036292F84530E9
:100D0000D8400BFA03F3D363B2E742F22832B3FBC5
:100D1000F2F383424FF00C03019A03FB02638CBF92
:100D200002220322E4E714F00403D2D1C6F82431EE
:100D300002F0A0FB2AE400BF40050020EC0B0020DD
:100D40005304E9380000002040420F0000007042C8
:100D5000044B1B7813F07C0F1ABF034BD3F8080128
:100D600000207047EC0B00204005002030B5013A10
:100D700085B00446ADF8042000220139ADF8081012
:100D800001A91D46ADF80A20ADF8062004F0DCFBF1
:100D90000121204604F092FC01222046114604F075
:100DA0005CFC0121204604F04DFC4FF4407000F043
:100DB00079F8B4F1804F0ED11C238DF80030012357
:100DC00068468DF801508DF802308DF8033000F040
:100DD00073F805B030BD054B9C4201D11D23ECE7F3
:100DE000034B9C42EBD11E23E7E700BF0004004009
:100DF000000800402DE9F3414FF400464FF002088F
:100E0000102702AC224D0121102001F0B5F824F882
:100E1000046D214628468DF806808DF8077000F095
:100E20002FFD0121042001F0A7F848F2FF1321460D
:100E30001848194CADF804308DF806808DF807700D
:100E400000F01EFD31462846002200F082FDE369D5
:100E50004FF0804043F00103E36101231A46194635
:100E6000FFF784FFE3690D4843EA0803E3610123C8
:100E70001A461946FFF77AFF4FF00052084BC3F8A5
:100E800080204FF08052C3F8802002B0BDE8F0818E
:100E90000010014000080140001002400004004022
:100EA00000E100E040F0BF60024B40F40030D86049
:100EB000704700BF00ED00E070B50125017801F03A
:100EC0001F039D40C3784C09C3B10F4BDA684378C8
:100ED000D243C2F30222C2F1040603FA06F6837873
:100EE0000F2020FA02F213403343084A1B01DBB201
:100EF000114481F8003342F8245070BD034B203474
:100F000043F82450F9E700BF00ED00E000E100E005
:100F100038B50B6905460360037A01F1480443F0D4
:100F2000040303720F4B93F849309B0610D42946F3
:100F30000D4D204604F016F82C7884B902F0B8FA6A
:100F400068B120232B70FFF719FBFFF7DFF807E0EC
:100F5000204603F017FE0028E9D00F2400E000240B
:100F6000204638BDD0100020EC0B002008B502F060
:100F70009FFA20B1BDE80840022003F033BE08BD4F
:100F8000F8B5374B374C1B78374E03F0FF0593B15C
:100F900001272846013D277003F0ACF8BD4208D870
:100FA000384603F0B9F8102003F09CFF3378DF06D1
:100FB000FCD503F0ABFF337803F0FF05002B00F006
:100FC000AF80EE0602D501236370F8BDE80704D5B3
:100FD00003F080FB012003F085FF15F0E80F59D0E6
:100FE00023786EB2990747D113F0280F10D0A37859
:100FF00013F0C00F0CD1FFF7A9FA02232371237855
:10100000202B05D1002E07DBA37863F07F03A370AC
:1010100023780BB90122A2706A0605D59F065EBF30
:10102000A27842F04002A270280704D513F0E00F26
:1010300004BF10232370A9061ED5062003F06CF808
:10104000A3781A0614D42278402A0FD11F0704D59A
:1010500023F01C0343F00203A3704023237007E036
:10106000240C0020EC0B0020090C0020802AF4D175
:10107000A37843F02003A370002E08DA2378012B15
:1010800002BFA37843F00503A37080232370E820F8
:1010900003F028FFA80723D515F0680F1DD123788A
:1010A000402B07D1A37813F0200203D1D90640F1D9
:1010B000D38022702378002B00F0D480DF060CD57B
:1010C000A278D60709D5102B40F0CC80A37A002B4C
:1010D00000F0C88043F00803A372022003F002FF6F
:1010E00068071DD5227894F9023012F0D00F00F075
:1010F000CE80E278002A40F0CA80002BC0F2C9807E
:1011000002F0F8FB2379990748BFA27823F0060381
:1011100044BF42F00102A2702371042003F0E2FEFA
:101120006B4B1B7803F0FF05002B37D003F00AFF51
:10113000E07915F0010F0CBF03466423AA0748BFEE
:101140000A336F0744BF0A3B9BB22E0744BF0133EB
:101150009BB2E90644BF03F1FF339BB2FF2B28BFCC
:10116000FF230A2B38BF0A23217A15F0200F14BF62
:1011700064220A4615F0400F18BF322215F0800F86
:1011800018BF1922984201D18A4207D0E371002387
:101190002272E37202F0F2F902F0ACFB4D4B1B78C5
:1011A00003F0FF06002B4ED003F0D4FE627A16F057
:1011B000010F0CBF13466423B70744BF0A33DBB2E9
:1011C000750744BF0A3BDBB2300744BF0133DBB2D3
:1011D000F10644BF03F1FF33DBB2C82B28BFC8239D
:1011E0000A2B38BF0A239A4206D063720023227961
:1011F000E37242F008022271B706227806D5102A5F
:1012000004D1A37A002B5DD10223A37216F0C00F84
:1012100019D012B112F0180F15D02F4F30063D7AA9
:1012200005D529064CBF05F07F0545F080057206FF
:1012300005D56B064CBF05F0BF0545F040052846B7
:1012400004F086FA3D72237813F0FC0F3FF4BDAE34
:10125000BDE8F840FFF792B95A0744BF43F00803CE
:10126000A37027E70023237102F022F958B1A37875
:1012700013F0400307D1A37008232370FFF77EF912
:10128000FEF744FF29E70023A370237025E7002B16
:1012900009DA0023237102F0E1F8FFF713F900F0F7
:1012A00099FE02F007FBA37813F020021FBF03F0A2
:1012B0007F0343F00103A37040230ABFA270237091
:1012C00022702AE7DD07A1D543F004039DE700BFA4
:1012D000E90B0020080C0020280C00202DE9F84F15
:1012E000654CFFF74DFEA378002B48D002F0E0F8E4
:1012F00090BB624B5D7A1A7A1F691543604E96F86F
:1013000049309B0702D5202003F012FE4FF0000861
:101310004FF0814AA37893B394F80190B9F1000F8C
:101320002DD1D80715D5217811F0C0006AD013F05F
:10133000040B14D14146584684F80AB005F04CF924
:10134000584604F005FAA37823F0020343F004039F
:10135000A370FFF715FEDDE7857C076BCEE78029DC
:1013600012D10B2002F0D8FE0021484605F034F9D6
:10137000484604F0EDF9FEF703FF63780BB1BDE8D2
:10138000F88FFFF7FDFDF8E7402906D103F0B4FB25
:1013900018B9A37823F02003A370A3781907D8D530
:1013A000DFF8D8B09BF809204AB19A0707D496F81D
:1013B00049309B071CD5237943F0080323719BF820
:1013C00008305BB1A378980708D405F0400004F01A
:1013D000BFF901214FF07E5000F08EF9A3789907F4
:1013E000B7D443F010030220A37003F0FBFBB0E777
:1013F000394605F0300005F0EFF80121504600F0C5
:101400007BF9DCE7A37A4BB39A0708D51B4B5B7AD1
:10141000E3B1414605F0E0F80123A37299E713F028
:101420000C0F96D0154B5B7A53B10A2002F074FE74
:1014300096F8493099070BD5237943F008032371B7
:10144000A37A1A0702D5022003F0CCFB0023E4E7BD
:10145000394605F0300005F0BFF8F1E723791B07A6
:101460007FF577AF394605F0300005F0B5F8237900
:1014700023F0080323716CE7EC0B0020280C0020FC
:10148000D01000202DE9F041454B464E93F84930ED
:1014900013F0080F07D004F0D3F920B1012307207F
:1014A000337002F039FE337813F0810314D0022038
:1014B00002F032FE01233370002425463A4F04F037
:1014C000B5FBFF2817D1FFF751FDFFF707FF737832
:1014D000002BF4D0BDE8F081337003F00DFB30B188
:1014E000324A137843F020031370FFF7F7FE2E48BB
:1014F00003F008FBE0E70A2801D00D282CD1FFF704
:10150000EDFE96F80180B8F1000FE3D107F80480F2
:1015100000F0E0FB15F0010505D00B2002F0D4FD32
:1015200044462546CBE73C781CB9204602F0CCFD6A
:10153000F7E7242C06D1384603F05EFB02F0C4FD29
:101540002C46EEE7337813F0210401D00920F5E7AB
:10155000384600F047FDE9E735B12928AFD1AB07A0
:10156000ADD505F0FD05AAE72028A8D92F28A6D0DB
:1015700028280FD03B280FD04E2C0FD82346A0F19F
:101580006102D2B2192A04F1010498BF2038E4B2F2
:10159000F85494E7022592E7042590E701258EE7A9
:1015A000D0100020EC0B002070060020090C002059
:1015B00010B5FFF7DBFC064CFFF790FE637833B9FC
:1015C00001F076FF0028F7D12378082BF4D010BD66
:1015D000EC0B00200020044B044A18604FF4064333
:1015E0001380034A13607047445C004020140020BD
:1015F000405C004070B500F07F0528460E4605F0BF
:1016000071FF0446284605F031FF22460146304668
:1016100004F05DFC204670BD2DE9F84F0B78914633
:10162000C218C35C06462D2B884618D10127537873
:10163000951C00210A460C460846303BDBB2092BBC
:1016400019D80132D2B2082A10D809B1013C64B2CB
:1016500000EB800003EB400015F8013BEDE72B2B7E
:1016600012BF551C951C53780027E2E70029F3D1DF
:10167000013464B2F0E7FE2B02D109B90121EBE796
:10168000D2B108F0E1FB0021824608F0C9FD48B95B
:10169000DFF85CB0631C12DB19D15046134908F027
:1016A0002BFC82460FB10AF1004A0122AD1B013D1D
:1016B000C9F800A088F800501046BDE8F88F5046E1
:1016C000594608F019FC0234824664B2E2E7002C65
:1016D000E8D0DFF820B05046594608F00DFC013C38
:1016E000E3B282465CB2002BF5D1DBE7CDCCCC3D3A
:1016F0000AD7233C0000204170B50E460D4908F082
:10170000FBFB05F0E5FF08F0F9FD0B4D84B27CB161
:101710006B786BB93EB9FFF7E1FD3220013C00F078
:10172000C5FAA4B2F3E7FFF72BFCAB789B07F4D51F
:1017300070BD00BF0000A041EC0B002038B504468E
:101740004FF6FF75013CA4B2AC4200D138BD012078
:1017500000F0ACFAF6E738B50D46014608F0CCFBD0
:1017600029460446284608F0C7FB0146204608F0F3
:10177000BBFA07F033FF06F073F808F05FFA38BDE4
:101780002DE9F84300250446A946061F00F1080884
:1017900056F8047F4946384608F042FD40B93946BC
:1017A000384608F0A9FB0146284608F09DFA054690
:1017B0004645EDD1284606F0B1F8064601464FF001
:1017C0007E5008F04DFC05460146206808F094FB69
:1017D00029462060606808F08FFB29466060A06899
:1017E00008F08AFBA0603046BDE8F8832DE9F84395
:1017F0000746884600244FF000090D4D58F8246034
:101800004946304608F00CFD60B9314657F82400CF
:1018100008F026FC20F000462946304608F028FD56
:1018200000B935460134032CE8D12846BDE8F883D9
:10183000FFFF7F7FFEE7000008B50C4A0C4B0D4907
:101840008B420ED30C480D494FF000028842B8BFBE
:1018500040F8042BFADB00F0A1F8BDE8084000F0E6
:101860004DBA52F8040F43F8040BE9E72CAA00081C
:1018700000000020400500204005002064140020E6
:10188000CA782DE9F041D30648BF8B780E8802F064
:101890000F0548BF1D4316F0FF0F1AD000214FF06F
:1018A000010C4FF00F0E03680CFA01F737EA06043B
:1018B0000BD18C000EFA04F823EA080305FA04F4AD
:1018C000282A43EA040326D1476101310829EBD1D4
:1018D0000360FF2E1DD908244FF0010C4FF00F0EAE
:1018E00041680CFA04F737EA06030ED104F180438D
:1018F000083B9B000EFA03F821EA080105FA03F3FE
:10190000282A41EA03010AD147610134102CE8D1A9
:101910004160BDE8F081482A08BF0761D5E7482A41
:1019200008BF0761F1E74FF6FF730380022383705E
:101930000423C37070478368194214BF012000203C
:101940007047806880B27047C06880B2704741615C
:1019500070470AB10161704741617047C1607047CB
:1019600041F4803383618161836183698369704756
:1019700010B50F2401F0030301F0FC0101F18041D7
:1019800001F580318A689B009C4022EA04028A604B
:101990008A6898401043886010BD0000374B82B0C1
:1019A0001A6842F001021A605968354A0A405A60C2
:1019B0001A6822F0847222F480321A601A6822F4C3
:1019C00080221A605A6822F4FE025A604FF41F0205
:1019D0009A600022009201921A6842F480321A60E2
:1019E0001A6802F400320192009A01320092019AC0
:1019F0001AB9009AB2F5A06FF2D11A6812F4003247
:101A000018BF01220192019A012A30D11D4A1168A2
:101A100041F010011160116821F00301116011689B
:101A200041F0020111605A685A605A685A605A6857
:101A300042F480625A605A6822F47C125A605A68F2
:101A400042F4E8125A601A6842F080721A601A680A
:101A50009201FCD55A6822F003025A605A6842F09B
:101A600002025A605A6802F00C02082AFAD14FF0BA
:101A70000062054B9A6002B0704700BF0010024040
:101A80000000FFF80020024000ED00E000232DE9F7
:101A9000F743DFF87091DFF87081ADF80630D9F8C0
:101AA0000030524A99B21B0411804CD5138803F0C0
:101AB0000F0388F80030002B65D14BF6BF764C4CF5
:101AC0004C4D23684C4F9BB22B802B8803F0300386
:101AD0003B802B8803F440532B802368334083F4EE
:101AE000005383F0200343F4004343F0800323605A
:101AF000138813F0100F236828D123F4E14323F057
:101B000070031B041B0C236005F0EAF923682A8884
:101B10003340D6042A8848BF83F4805395043A881A
:101B200048BF83F40053D4063A8848BF83F01003BB
:101B3000900648BF83F0200343F4004343F0800342
:101B40002B4A9BB2136003B0BDE8F0839BB2ADF8A3
:101B50000630BDF806301A0508D5236823F0700357
:101B60001B051B0D236004F0D5FFCFE7BDF8063041
:101B70001B0494D5236823F070031B051B0D236001
:101B800005F02AF9C2E79A0002F1804202F5B84254
:101B9000116889B2ADF80610BDF8061009040AD51F
:101BA0001168013B21F070010905090D1160134A0C
:101BB00052F823309847BDF806301A067FF56FAF0C
:101BC00098F80020930003F1804303F5B8431968A7
:101BD000013A21F4E14121F070010904090C196076
:101BE000074B53F82230984759E700BFCC1000202C
:101BF000005C0040E20B0020E40B0020BC00002051
:101C0000D8000020445C0040F813002070B5064660
:101C100086B04FF44070FFF745F90125252301A850
:101C2000ADF804308DF80750FFF746F9294644F225
:101C3000050000F0A1F94FF40073ADF8003018234F
:101C40008DF803300323184C694620468DF8023086
:101C5000FFF716FE4FF48063ADF8003004236946A9
:101C600020468DF80330FFF70BFE00234FF440228F
:101C7000CDE9033204F54054ADF81430A38902963F
:101C800043F00C03A38102A9204604F039FA2A4646
:101C9000204640F2255104F08EFA2946204604F0F1
:101CA0007FFA06B070BD00BF000801404FF47A72A1
:101CB000074B5A6000229A6001221A601A6802F0EB
:101CC0000112012AFAD000221A609A60704700BF00
:101CD00010E000E010B5074C4FF4005122780648A0
:101CE000FFF737FE237813F1FF3318BF012323706A
:101CF00010BD00BF14000020001001402DE9F34189
:101D0000002000F0D5F84FF4806000F0DBF80020F0
:101D100000F0E2F80121102000F02EF902238DF8E6
:101D2000063010238DF807304FF400530024464D41
:101D300002A92F4621F8043D4448FFF7A1FD4FF4C6
:101D40006130FFF763FF03F0BAFB03F0C3FB04F05D
:101D5000DFFC05F0F5F801F0F5F83D4ADFF8EC801E
:101D6000136823F00403136003F006FF02F0A0F8E9
:101D7000FFF740F802F036FE002004F061FA354B20
:101D80002C70C3E900449C601C22002138462E7848
:101D900008F00CFB6423EB712B726B722E4B2E70D0
:101DA000C3E900449C602D4B2D4E1C702D4B1C70C4
:101DB0002D4B1C702D4B1C702D4B1C702D4B1C7013
:101DC0002D4B1C7004F06EF800F0EEF896F85C00F5
:101DD00004F036FA96F85C0002F06AF804F09CF819
:101DE00003F092FC03F0E2FC04F056F901F036FB3C
:101DF000FEF768FB01F05EFD00F0ECF84FF4804167
:101E00004046FFF798FD012812D01C4E10213046A5
:101E100004F0EDF980B94FF44870FFF78FFCFFF73D
:101E200059FFF3E74FF47A70FFF788FCFFF752FF92
:101E300001F0FCF90028F5D002F0B2F9FFF74AFFF3
:101E4000FFF720FBA0E700BFEC0B002000100140D3
:101E500010E000E0180C00200C0C00200A0C002000
:101E6000D0100020250C0020E80B0020090C0020D9
:101E7000240C0020E90B0020080C00200038014051
:101E800008B5012003F045FB01220020054B06495F
:101E90001A60064A186010604FF4E0520A801A6017
:101EA00008BD00BF405C004020140020445C00409E
:101EB000034A536823F0F00318435060704700BF93
:101EC00000100240034A536823F4E0631843506053
:101ED000704700BF00100240034A536823F4605368
:101EE00043EAC0005060704700100240014B186088
:101EF000704700BFD80042421B4A10B5536803F038
:101F00000C03082B1FD0194B036053681849C3F307
:101F10000313CC5C0368E34043605468C4F30224B9
:101F20000C5D23FA04F484605468C4F3C2240C5D8D
:101F3000E340C3605268C2F3813211440A7CB3FBB0
:101F4000F2F3036110BD53685168C3F38343CC03BC
:101F500003F1020302D407494B43D5E751688903D3
:101F6000F9D40249F8E700BF0010024000127A00DD
:101F70001500002000093D00044B9A6911B110437F
:101F80009861704722EA0000FAE700BF00100240A3
:101F9000044BDA6911B11043D861704722EA00009E
:101FA000FAE700BF0010024008B5002148220748A8
:101FB00008F0FCF90649002001F0CFFD20B9BDE88A
:101FC0000840072002F080B808BD00BF280C0020A0
:101FD000540C00200149024802F0C6BD180C002034
:101FE000480C00202DE9F04F5C2299B08146002179
:101FF000AC4808F0DBF9AC4BAC4A984603F1080555
:102000001C4603CCAC4210605160234602F108022A
:10201000F6D1206810602379137199F80030242BD1
:102020004FF000033CD01D468DF843300024264677
:10203000CDE9094407949DF8433019F803B0BBF18A
:10204000000F35D126B1079B002B08BF0223079351
:10205000A30605D5934BDA6A954B9A4200F3258780
:10206000EF0740F1F781E00740F106828D4FFB78E2
:10207000012B04D138698F4907F03EFF386114F411
:10208000807F08BFD8F81030864F08BF3B643B788C
:10209000042B40F00282630600F1FC811C25DFE086
:1020A000804A01259370032355708DF84330BDE7B6
:1020B000ABF1410A5FFA8AF2192A00F2E486013391
:1020C00011AA0DF1430148468DF84330FFF7A4FAF9
:1020D000002800F0DB86119B1846089305F0ACFB46
:1020E00008F00CF9C7B2384607F0B2FE089B01466B
:1020F000184607F0F7FD704907F0FEFE05F070FB8B
:10210000BBF1470F82B222D0BBF14D0F00F0DC8053
:10211000BAF1190F4AD8DFE81AF017013401490063
:10212000490049003B014900490040014901520171
:102130005B0149006001490067016C017101750193
:102140007A0149004900490088018F019601282F32
:1021500000F0A58032D8132F23D8112F79D2042F65
:1021600009D06FD30A2F21D12AB9079B002B40F049
:102170009086012307934B4B07F0FD011C291F702C
:1021800002D05C2F40F09C800AB10A2A0ED138445C
:10219000187000230A9A1A41D00740F1CD80152506
:1021A0005EE01C2FE0D003D8152F69D9142557E025
:1021B000212F47D0262F45D01E2FD4E73D2F6AD0A0
:1021C0001BD8352FD7D011D82B2F01D0312FEDD1DF
:1021D000079B002B40F05D86312F57D1314B9DF886
:1021E0001C209A71032208230792D3E73B2FDDD8E6
:1021F0002C4B363FDF7109232FE05B2F18D85A2F65
:1022000032D2502FD2D12749262F4F705AD1A2F166
:1022100014039BB21E2BC9D8284820FA03F3DF070A
:10222000C4D50A23B2FBF3F2763A4A700123B1E730
:102230005C2F99D05E2FB9D81A4BC7F15E079F70FB
:1022400005230AE0079B002B40F023860223079317
:10225000D9E7144B113F5F710223002A9AD017254A
:10226000284619B0BDE8F08F22B90E4B5A3F1F71B6
:1022700003238FE70A2A99D15A2F97D0042389E79D
:10228000084BC7F11507DF700623E6E70A2A8DD150
:10229000044B0122A5E7002A88D10A237AE7072305
:1022A000DBE700BF700C0020280C0020710C002020
:1022B000809698003333CB410000C842010410409F
:1022C0000023CAE70123C8E7002AC8D1052F0AD88E
:1022D000032F1BD3042FAA4B21D0052F21D010226E
:1022E0009A720C2356E7092F0AD8072FA44B1AD34A
:1022F000082F1DD0092F1DD080225A720D2349E7C7
:102300001E2F7FF453AF9E4B1F7202E01FB1012FAF
:10231000F9D10B233EE70322994B1A72F9E72022E9
:10232000DEE70022DCE7042245F48075DA72D8E7A4
:102330004022E2E70022E0E7012202FA03F30A9AD0
:1023400013439BB20A9376E60D278D4B119A46F004
:1023500008065A6544FA07F3D90700F1A08540F250
:1023600061333B41DA0706D50021119807F062FF7F
:10237000002840F09785012303FA07F73C43A4B2F5
:1023800059E67F4B119A46F010069A650E27E1E751
:102390007B4B119A00271A61DCE7794B119A0127D0
:1023A0005A61099B43F001030993D3E7744B119AD7
:1023B00002279A61099B43F002030993CAE7704B15
:1023C000119A0327DA61099B43F004030993C1E7DB
:1023D0006B4B83F828700427BCE7119807F068FF5F
:1023E000674B0527D862B5E7654B119A06271A6334
:1023F000B0E7634B119A5A630727ABE7604B119A1A
:10240000DA63F9E75E4B119A08271A64A2E75D497F
:10241000119807F02DFF002840F03E850222584B0E
:1024200083F844701A73092794E7554B119A46F0C4
:1024300001069A640A278DE7514B119A46F002066D
:10244000DA640B2786E74E4B119A46F004061A65AC
:102450000C277FE74A4FBB78012B0FD1079B022B3C
:102460007FF40DAE7B78502B3FF409AE002B3FF488
:1024700006AEE1073FF503AE1625F1E698F8013008
:10248000002B7FF4FCADE2073FF5F1ADD8F8143036
:102490003B61F4E524F04004A4B27B79002B7BD0AF
:1024A000012B0CBF012300230D930CBF002302233B
:1024B0000C930CBF022301230B93FB78012B18D143
:1024C0004FF000092E4BDFF8C8B046FA09F2D007EA
:1024D0000AD503EB890ADAF848005946089307F051
:1024E0000BFD089BCAF8480009F10109B9F1030F77
:1024F000EBD1079B032B05D1BB79012B02D1042E15
:1025000040F0D684204A12AB07CA83E807000A9A33
:102510001B4F12F4007F45D197F80090B9F10A0FD4
:1025200050D0B9F15C0F00F0AD80079B032B18D0A1
:10253000BEB13B7900270893D8F84430DFF854A0A7
:10254000DFF83C800E9346FA07F3DB0700F1D180F9
:10255000BB0003EB080253441B6A93640137032F4B
:10256000F1D1B9F11E0F00F0EE80B9F1350F00F096
:102570000581B9F11C0F40F0B58004490620E4E064
:10258000700C002000007F43540C0020840C0020BD
:102590003333CB41280C002001224FF0020CCDE94F
:1025A0000C2C89E7F879062801D91D2558E698F8FA
:1025B00006208242B0D0194601F0CFFA0028ABD1F4
:1025C00007254DE60EB91A254AE614F0500F3FF4E0
:1025D00065AD386B05F030F907F090FEC0B2062803
:1025E000E3D897F82830142B05D0022B7FF4DEAD0A
:1025F00021063FF5DBAD00283FD00138C3B2089378
:10260000AF49089801F0A9FA0028D9D097F8289086
:102610000027D8F84430DFF8B0820E9346FA07F36B
:10262000DA0719D5BB0003EB080AB9F1140FDAF881
:1026300048B024D1A34A1344996B186A07F052FB9F
:10264000594607F04FFB022FCAF8140004D10E9927
:1026500007F048FBC8F81C000137032FDED124F037
:102660005004A4B2984B5F789A46502F40F08C806B
:10267000002E00F0AF801F25F2E5FB79BFE7CAF816
:1026800014B0E9E7002E9ED04FF0000BD8F844308C
:10269000DFF838828B4F08930DF14809A8F1480AFA
:1026A00046FA0BF212F0010F4FEA8B023A441CD0AB
:1026B00059F82B10106A07F015FBD8F8001007F036
:1026C00011FBBBF1020FC8F8000004D1089907F014
:1026D00009FBCAF850000BF1010BBBF1030F08F125
:1026E0000408DDD100230893BCE7926BC8F80020F2
:1026F000F1E7B9F1350F3FF431AFBA00089902EBB9
:10270000080BDBF84830B1B952440F9312AB53F8C1
:102710002710906B07F0E8FA0F9B194607F0E4FAD0
:10272000022FCBF848007FF419AF0E9907F0DCFABE
:10273000C8F8500012E752441946106A07F0D4FA5C
:10274000CBF848000AE707205D4901F006FA0028A7
:102750003FF436AF16B9CDE9076683E700235A493F
:10276000584846FA03F2D70704D49A00571802448F
:10277000126A7A610133032BF3D1B3E7524B5B78D2
:10278000012BAFD91E256BE5079A022A22D12FB95A
:102790001346002E08BF002307931BE00021186991
:1027A00007F03EFD00287FF467AE8C2F00F07D819E
:1027B00008D8022F4AD0032F4AD0012F0AD1002E69
:1027C000079BE7E78E2F00F07081C0F06C818F2FA0
:1027D00000F0698115F00103079A15BF24F0210468
:1027E00024F44874A4B224F0010412B124F4F8448F
:1027F000A4B2002C40F06883CDE915441794002B57
:1028000000F074810A9B23F04903002B40F05F83A2
:102810002D4B1B78352B02D0002B40F05883294CD0
:1028200029492369227A1693637A15A813438DF8F0
:102830005C30FEF76DFB054600287FF411AD234E9A
:1028400020340FCE0FC43368236009E545F004053A
:10285000002E3FF4B8AE01230B9A03FA02F90C9A4A
:10286000934049EA030916EA090F00F024830B9B01
:102870000B9ADFF850B0123308325BF822105AF886
:10288000230007F02FFA0C9B0C9A123308320746EC
:102890005BF822105AF8230007F024FA14F08003A2
:1028A000804600F0988024F080040C2207490BF148
:1028B0002000A4B207F048FD50B92125D0E400BFA4
:1028C000840C0020280C0020700C0020B80C002084
:1028D0009AF80330DAF83C00012B04D17C4907F068
:1028E0000BFBCAF83C00DFF8FCA14FF08141DAF89D
:1028F0003C90484607F000FB494607F0FDFA394690
:102900008146384607F0F8FA0146484607F0EAF9EA
:1029100041468146404607F0EFFA0146484607F037
:10292000E1F90021814607F085FC002840F0C682CD
:10293000484606F053FE04F093FF83468946384626
:102940004146FEF708FF06F049FE09F100490B4633
:1029500002464946584606F0C3FF07F06FF99AF859
:102960000130DFF880A1032BDAF83CB081464FF04C
:10297000000108BF00F10049584607F05BFC28B190
:102980000BF1004B09F10049CAF83CB00B9B4146E2
:10299000484603F1040B07F0AFFA0146384607F04A
:1029A000A1F94FF07C5107F0A7FA0C9B0AEB8B0BB7
:1029B0000433CBF80400394648460AEB830A07F093
:1029C0009BFA414607F090F94FF07C5107F094FADA
:1029D000CAF80400FEE6099A19EA020F00F07182B3
:1029E0009AF8032024F00E04012AA4B217D19946C4
:1029F000DFF8F4A0DFF8D8B0099B43FA09F3D90750
:102A000006D5DAF80000594607F076FACAF8000051
:102A100009F10109B9F1030F0AF1040AECD10C9B89
:102A2000DFF8C0A003F104090AEB8909D9F8041002
:102A3000404607F057F983460B9B384603F10408DC
:102A40000AEB8808D8F8041007F04CF95946FEF74D
:102A500082FED9F804100746D8F80400FEF77BFE82
:102A60000146CAF83C008046384607F03BF920F0A2
:102A700000471849384607F0FBFB00283FF4AAAE90
:102A80004FF07C51384607F0F3FB00287FF415AF78
:102A90001149404607F030FA394607F0CBFB0028D1
:102AA0003FF498AE09E745F010057237FFB2012FE9
:102AB00098BF45F00805002E3FF485AD0C2207496C
:102AC000074807F041FC00287FF484AEF5E600BF1C
:102AD0003333CB410AD7A33B6F12833AB80C0020A3
:102AE000480C0020700C0020840C0020AC4BAD4C36
:102AF00093F84930AC4F13F0020F0ED07B78013BB6
:102B0000022B88BF45F04005002E00F0D980079BBE
:102B1000022B40F0D58045F08005FB6AE361BB786D
:102B2000637013B108238DF85C303B69D7F840809F
:102B3000636141462069159307F072FB05F040067A
:102B400008B1AA060BD5607A38B12B0605D4002E41
:102B500000F0CA80002103F081FD3B6C23610EB9B7
:102B60002369169397F84430B87A2376637A8342C0
:102B700004D0169903F072FDBB7A63729DF85C3045
:102B8000627A787A13438DF85C30237A834206D0D8
:102B900002F0FCFD7B7A002B40F0A88023729DF8A8
:102BA0005C30227AE80543EA02038DF85C3015D5E3
:102BB000F87AA37A834200F09C8003F039FAFB7A1A
:102BC000012B1CBFA27A1343A3729DF85C30A27A3A
:102BD00025F480751343ADB28DF85C30387BE37A11
:102BE000834200F0948003F033FA3B7B002B40F0EB
:102BF0008B80E3729DF85C30E27A13438DF85C3091
:102C00003B78042B02D1386B02F088FB7B7923716F
:102C1000FB78A370079B032B0DD1BB7963710BB9B4
:102C200000233B653E6D606C314607F0F9FA10B940
:102C3000666401F081FFFB79A2799A4207D0A37103
:102C40005A4B12AA07CA83E8070001F075FF3B79C7
:102C5000E3703B78262B00F0938060D81C2B78D053
:102C60001E2B76D00A2B63D07B78502B23700FD08D
:102C7000079A022A0CD1012B40F0AA8015A94C48D2
:102C800002F070F94B4D4A4E0FCE0FC533682B60E2
:102C90003D7AE571002D3FF4E3AAFEF789FCE37964
:102CA000032B454B40F0C6801B78022B04D0082034
:102CB00001F098FFFEF712FB0025E571FFF7D0BA8F
:102CC000637A102B7FF429AF237805F04002013B93
:102CD000022B05D8002A3FF420AF45F020051CE761
:102CE000002A7FF41AAFF8E7414634E7227A13430B
:102CF00054E759077FF569AF184603F099F90423A3
:102D0000A3720123FB7260E7E27A134371E79A072B
:102D10007FF570AF184603F09BF9002369E75C2B41
:102D200033D0662B4ED0282B9ED12249072029E094
:102D3000224E0898314600F001FEA379089A93428A
:102D400092D196E80700194B83E8070001F0F4FEE2
:102D50008AE79DF85C3043F001038DF85C30079BF7
:102D60001BB115A9124802F0FDF8144E15A9304602
:102D700002F0F8F896E807000E4B83E8070073E7C7
:102D800006200C4900F0DAFD6EE70D4EDFF820C09A
:102D9000BCE80F000FC6DCF800303360D6E700BF98
:102DA000D0100020280C0020700C0020540C0020B3
:102DB000B80C0020480C0020EC0B0020840C0020F4
:102DC000600C00200023434AA363C2E90133BDE73E
:102DD00033B99DF85C3043F001038DF85C304DE76A
:102DE000023B012B12D80D9BC5F3800503930C9B6E
:102DF000049502930B9B384A0193FB6B15A9009332
:102E0000364B03F1340002F0E3F83BE79DF85C3009
:102E1000EAB243F0040315A931488DF85C3002F0A2
:102E2000ADFA00283FF42EAF01287FF431AFFFF751
:102E3000D1F82DE7642200250126DA711A725A7240
:102E40001B782571022BE5702680A5712581A6725D
:102E500015D02449284600F080FE00283FF4B0AB8E
:102E600001F06AFE0021284603F0B6FB284602F076
:102E70006FFC304603F0BEF8284603F095F80820B2
:102E800001F04AF918E70125FFF7EAB90225FFF733
:102E9000E7B91825FFF7E4B92625FFF7E1B91925A9
:102EA000FFF7DEB90425FFF7DBB91B25FFF7D8B91B
:102EB0002525FFF7D5B92025FFF7D2B92225FFF741
:102EC000CFB92325FFF7CCB92425FFF7C9B91025C1
:102ED000FFF7C6B9600C0020480C0020840C0020CD
:102EE000B80C0020540C00202DE9F041114804F0EA
:102EF00059F804281CD14FF6FF750E4C0E4E0F4F9B
:102F0000A31903F17843A3F5FE33198807EB0408EE
:102F1000A94202D0204604F065F8B8F80010A94292
:102F200002D0A01C04F05EF8054B04349C42E7D1AB
:102F3000BDE8F08100FC0108CC0C0020CE10FE178B
:102F4000000002080C4A30B510460C4B0C4C1D78A2
:102F500003F178410133A1F5FE31A3425554F6D176
:102F600013780A2B06D00023FF22C2540133B3F595
:102F7000806FFAD130BD00BFCC0C002000FC0108EE
:102F800000000208014B185C704700BFCC0C002009
:102F9000014B1954704700BFCC0C0020F0B4002442
:102FA0002346094D2F18A24204D115442B54F0BCDE
:102FB000FFF79ABF33B9DB090E5D33443E55DBB2F0
:102FC0000134F0E70123F7E7CC0C00200A4B10B5E1
:102FD000194400230244904211F8014F03D11B1BF6
:102FE0005842584110BD2BB9DB092344DBB200F82D
:102FF000014BF0E70123F8E7CB0C0020034B9B7A51
:1030000013B10522024B1A60704700BFFC13002069
:10301000C00600200422014B1A607047C006002041
:10302000034B1A78202A04BF00221A70704700BF91
:10303000C406002070470000212810B50BD1114BA9
:103040001B681B7803F07F03212B19D000220E4B45
:1030500002205A6013E02028F8D10A4B1B681B7825
:1030600003F07F03212B084B1870EFD1074B00248E
:10307000044A20461268936154829847204610BD46
:10308000034BF4E71C140020C4060020ED300008B8
:10309000D5300008094B1A68137803F07F03212B01
:1030A0000AD1022806D0222806D1D378044A03F098
:1030B0000103536000207047022070471C14002059
:1030C000C406002021B901288CBF022000207047CF
:1030D0000220704720B90822024B1B681A827047F1
:1030E000014870471C1400202C000020FFF7F2BF9D
:1030F00010B5002402F00EFA044B1B689C72FEF718
:10310000BFFEFEF767FA024B1C6010BD1C140020C6
:10311000C006002010B50024324B334A1B68D27918
:103120005C815A72204604F0CDF84FF400712046BD
:1031300004F0D0F81021204604F0DAF840212046AF
:1031400004F076F98021204604F062F9204604F06C
:1031500037F9264B204693F8341004F0A3F92046A3
:1031600004F00BF92146012004F0B4F8C02101203D
:1031700004F04EF92021012004F0BAF82146012084
:1031800004F0CFF84FF4C061022004F0A3F84FF42C
:103190008071022004F03CF92146022004F0C1F8BD
:1031A0002021022004F0A4F82146032004F092F824
:1031B0004FF48871032004F03BF94021032004F010
:1031C00071F94FF44051032004F0ABF8214603207D
:1031D00004F08EF8204603F063FE0122044B1A60CF
:1031E00010BD00BF1C140020B3A700082C00002055
:1031F000C0060020014903F05FBC00BF640000204E
:10320000014903F059BC00BF6C000020054B1B684E
:10321000DB78042B04D8044901EBC30103F04CBC58
:10322000002070471C14002074000020054B1B6810
:10323000052B05D1044B5868003018BF012070479A
:1032400000207047C0060020C406002070B5164C50
:10325000164E2268164D92B23280298832880A4072
:10326000910509D54FF6FF53124A236013780133B5
:10327000DBB2137004F01AF82A88338813401A045A
:1032800001D5FEF703FC33882A8813405B0509D576
:103290004FF6FF332360084B5B689847BDE87040EA
:1032A00004F00EB870BD00BF445C0040CC1000209C
:1032B00020140020CC060020340000202DE9F04F1F
:1032C0005E4D85B02C786F78002C08BF1824013C27
:1032D000E4B2A7426FD0342606FB0458D8F8201079
:1032E000D8F81C90084606F0FFFCD8F8241006F029
:1032F00003FE80460146484606F09CFF00B1C846E2
:10330000002C06FB04F608BF1824013CE4B2AB19FC
:10331000A742C3F81880DFF828912FD04FF0340867
:103320004E446B78A3422FD0002C274608FB049A0A
:1033300008BF182495F8E434013CE4B2A34201D15B
:10334000FDF704F908FB0757D7F81CB0B8695946D0
:1033500006F066FF80B9396A084606F0C5FC796A4E
:1033600006F0CAFD716906F0BFFC064601465846E4
:1033700006F07EFF10B3BE615646D2E795F8E434FE
:10338000BB4201D1FDF7E2F895F801A034260AF11D
:103390000104E4B2182C08BF00244FF0000806FB1B
:1033A0000A9B2B780293029BA3420AD1B8F1000F2B
:1033B00001D085F801A005B0BDE8F08FC7F818B0BE
:1033C000DAE706FB04F709EB07030393DBF8143095
:1033D0002F440093BB6900981946019306F02AFF19
:1033E000B0B1DBF81C10084606F07EFCDBF82010BC
:1033F00006F082FD009906F077FC834601460198AD
:1034000006F036FF20B1A2464FF00108C7F818B009
:1034100006FB0452D169906906F002FF002818BF2C
:10342000A24604F10104E4B218BF4FF00108182CC1
:1034300008BF0024DDF80CB0B5E700BFD0060020BF
:10344000D406002000220121034B83F8E4241A70E3
:1034500083F8E5145A707047D006002008B51C2286
:103460000021034806F0A2FFBDE80840FFF7EABFCD
:10347000B80B0020084B93F8E4141A788A420AD05B
:103480004A1CD2B2182A08BF0022587883F8E424D4
:10349000884208BF5A707047D00600203420034B82
:1034A0001A1D1B7800FB0320704700BFD0060020C8
:1034B000054B93F8E4041A7882421DBF342204338A
:1034C00002FB003000207047D0060020084A92F826
:1034D000E43411780133DBB2182B08BF0023994282
:1034E0001DBF342101FB032398690020704700BFF2
:1034F000D0060020044B93F8E40493F8E534C31A93
:1035000058425841704700BFD006002038B5837C30
:103510000546DA07C46A15D5164B187A06F098FCEA
:10352000154906F0E9FC0146204606F0E5FC044694
:103530004FF07E51204606F09BFE08B94FF07E54B6
:10354000204638BD5B070BD40A4BD87906F080FCC7
:10355000094906F0D1FC0146204606F0CDFC0446A0
:10356000AD6A2146284606F065FE0028E0D02C46CC
:10357000DEE700BFEC0B00200AD7233C2DE9F84F13
:103580004FF034081A4DDFF86CB095F8E44495F824
:10359000009005F1040AA14503D1C5F800B5BDE8C6
:1035A000F88F08FB04F60AEB0600FFF7AFFF0146B1
:1035B0000746584606F03EFE2E44B0B159465846DE
:1035C00006F09AFCF06108FB0456D6F828B0F069C2
:1035D000594606F04DFE08B1C6F81CB00134E4B2FD
:1035E000182C08BF0024BB46D5E739463846E7E724
:1035F000D0060020FFFF7F7F2DE9F04FA24C342240
:10360000A0468B4618F8045B91B002FB05F6B04467
:1036100001900021404606F0C9FE9BF80830264480
:1036200013F0020FDBF80420B37518BF974B7263D9
:1036300008BF04F59D6393E80700342300260DF1CD
:103640001C0A8AE8070003FB0549914A019B52F8CE
:10365000261053F82600029206F04EFC05F0BEFF3D
:1036600003F0A8FF5AF8261004AB43F82600401ACE
:1036700080EAE077A7EBE07748F82670D9F81010D9
:103680003B468F4238BF0B46C9F81030039306F013
:10369000DFFB029A0AAF52F8261006F0E1FC002187
:1036A00047F8260006F0C6FD039B38B1794AB9F801
:1036B000141052F826200A43A9F814200136032ECC
:1036C000C3D1002B00F0DB804FF034093846FEF701
:1036D00057F809FB05493946C9F824006E48FEF73A
:1036E00085F83946C9F820006C48FEF77FF899F84C
:1036F0001660C9F82C00F1074DD5C9F830002278C2
:1037000094F8E4344FF0000A9A4202D016F0020610
:103710004CD0342303FB0543C3F818A0C3F828A0FA
:10372000342606FB0546B37D9B0732D44046FFF79F
:10373000EDFED4F8009580460146484606F07AFD35
:10374000002800F099804946484606F0D5FB34230E
:1037500003FB0545F061AE6AE869314606F088FD75
:1037600000B1EE614E4B97E80700C4F8008583E88E
:10377000070004AA07CA03E9070094F8E534237098
:103780000133DBB2182B08BF002384F8E534FFF7C0
:1037900095FD012074E0DBF800103207C9F8301005
:1037A000ADD5D9F8240006F0A7FBA6E7D1460DF168
:1037B000340B3C4B3344DA68BB591046194603932B
:1037C000019206F099FB0146484606F08BFA019AF1
:1037D000039B81461146184606F084FA4BF8060012
:1037E00004360C2EE5D13049484606F041FD18B1AB
:1037F000342303FB054391E72C49484606F01AFDA4
:1038000028B1342303FB0543294A9A6288E75846C6
:10381000FDF7B6FF59462048FDF7E8FF49468246C6
:103820004FF07E5006F05EFA4FF07C5106F064FBDC
:1038300005F0D4FE04F014F806F000FA0646029BE8
:103840005046996B06F058FB314606F055FB314661
:1038500081464FF07E5006F045FA0146484606F094
:10386000FFFB0021064606F0E5FC00B100263423EC
:1038700003FB05439E6253E74146404665E7184611
:1038800011B0BDE8F08F00BFD0060020180C00205A
:10389000D01000204CA40008E8100020DC1000200C
:1038A000C40B0020B80B0020EFFF7F3FEFFF7FBF6E
:1038B000FFFF7F7F054A064B1168C3F8E814516883
:1038C0009268C3F8EC14C3F8F0247047180C002079
:1038D000D0060020064B1A7893F8E4349A422CBFA5
:1038E00003F1170003F1FF30801AC0B2704700BF28
:1038F000D006002008B5FCF729FE044B93F8E42419
:103900005A70BDE80840FFF7D9BC00BFD0060020C0
:1039100038B505460C46FDF74BFE512303FB05F079
:103920002146BDE83840502200F54070FFF736BB15
:103930000146502240F2AE30FFF730BB38B50546A5
:103940000C46FDF735FE0D2303FB05F02146BDE8CF
:1039500038400C2200F50070FFF720BB08B50A21A3
:103960000020FFF715FBBDE80840A0220149012017
:10397000FFF714BBD010002030B5C30785B0054653
:1039800061D56422484B4948C3E91822484A494C4A
:10399000DA641A65FA22A3F85420474ADFF864C1B2
:1039A0009A650522A3F85C20444ADFF85CE1C3E98C
:1039B000002202F540329A60414AC3E903025A618B
:1039C000404AC3E906421A623F4A5A6202F5681247
:1039D0009A62A2F5B002C3E90B225A633B4AC3E9DB
:1039E0000EC24FF07E52C3E910E24FF4A442A3F896
:1039F0004820032283F84A20042283F86820344AAE
:103A0000DA66344A1A67344A5A67344A9A67344A3B
:103A1000DA67344AC3F88020334AC3F88420334A33
:103A2000C3F88820324AC3F88C20324AC3F8902069
:103A3000314AC3F89420314AC3F89820304AC3F879
:103A40009C20FFF78BFFA9070AD50024CDE901448C
:103A50000394E0B201A90134FFF770FF082CF8D1FC
:103A60006A0713D500214FF44070FFF791FA002147
:103A700040F20130FFF78CFA002140F25130FFF79D
:103A800087FA002140F25230FFF782FA2B0709D55E
:103A9000002140F2AE30FFF77BFA002140F2AF3058
:103AA000FFF776FA05B030BDD010002000803B460D
:103AB0000000FA4400BADB4B0000204000001D4328
:103AC00000409C4580CB244B000066C36F12033B33
:103AD0009AED35469AB94A449AC9FE44CD8A0F46B2
:103AE000CD882A468647703CAA461E41C184093CBF
:103AF000D71339C07FF9253DA7209243B00A123E63
:103B00002DD2AF440AD7233C00007A4470B50D464D
:103B1000512141430646502201F540712846FFF7E6
:103B200055FA044630B9287029463046FFF7F0FEB2
:103B3000204670BD0120FCE738B5502240F2AE317E
:103B40000546FFF743FA044628B928702846FFF7D0
:103B5000EFFE204638BD0120FCE770B50C460D2174
:103B6000414306460C2201F500712046FFF72EFA6C
:103B7000054658B90023304623606360A360E360C4
:103B800023612146FFF7DAFE284670BD0120FCE7DD
:103B900008B50020FFF7F6F90A2808D1A022012174
:103BA0000448FFF713FA003018BF012008BD0020B9
:103BB000FCE700BFD010002038B50C4605460021B8
:103BC000204606F037FB002840F06881632D33D98A
:103BD000A5F16403DBB2022BC2B224D8032A06D8B3
:103BE000DFE802F002090E1A9C4A42F82340FFF770
:103BF000B5FE002038BD994A02EB8303DC60F6E78E
:103C0000974920469D1D06F077F9954906F074F90D
:103C1000924B43F82500EAE7904A04F1004402EB96
:103C200083035C62E3E7092B40F23A810130052807
:103C300000F036810A3BCDE7204603F0FDFD06F09B
:103C40005DFBC0B2352D00F22B81DFE815F03600A8
:103C50003D00410047004A00560060006F007300BD
:103C600079007F008300860089002901290129014C
:103C70002901290197009E00AB00B900C300C700CD
:103C8000CA00CD00D100D4002901DE00E300E60027
:103C90002901290129012901290129012901F0000E
:103CA000F400F700FA00FD00000103010B010F0111
:103CB000130117011B011F012301022840F2F280AA
:103CC000664B83F8300092E7644B83F834008EE74C
:103CD000624B83F83100FCF7BDFB88E75F4B5886E9
:103CE000F9E75E4A92F8493020B143F0040382F8C4
:103CF00049307CE723F00403F9E7584A92F8493049
:103D000010B143F04003F2E723F04003EFE7534ADA
:103D100092F8493038B163F07F03002082F84930CF
:103D200002F0A6F963E703F07F03F6E74B4B83F855
:103D30005D005CE7204606F0E1FA484B186656E75E
:103D4000204606F0DBFA454B586650E7434B83F8B4
:103D500035004CE7414B9C6349E7404BDC6346E749
:103D60003E4A92F8493030B143F0010382F84930BD
:103D700000F0E2FE3BE723F00103F7E7204606F000
:103D8000BDFA364B83F8480031E7344A92F849309F
:103D900028B1D90640F1888043F02003A7E723F03B
:103DA0002003A4E72D4A92F8493030B143F00803CC
:103DB00082F8493001F0FAFC19E723F00803F7E72D
:103DC000264A92F8493010B143F010038FE723F0F0
:103DD00030038CE7214B83F84A0008E71F4BDC6473
:103DE00005E71E4B1C6502E71C4BA3F85400FEE6DA
:103DF0001A4B9C65FBE6204606F080FA174BC0B2D2
:103E000083F85C0002F01CFAF1E6144B1C6493F892
:103E10005C00F7E7114B5C64F9E7104A92F849300F
:103E200010B143F0020362E723F002035FE70B4B9C
:103E300083F86800DBE6094BDC66D8E6074B1C67B5
:103E4000D5E6064B5C67D2E6044B9C67CFE6034B96
:103E5000DC67CCE6014BC3F88040C8E6D0100020F8
:103E600000007042114BC3F88440C0E60F4BC3F80A
:103E70008840BCE60D4BC3F88C40B8E60B4BC3F84A
:103E80009040B4E6094BC3F89440B0E6074BC3F842
:103E90009840ACE6054BC3F89C40A8E60420A9E690
:103EA0000320A7E60620A5E60A20A3E6D0100020FE
:103EB00008B5FFF76DFE48B9072000F005F9FF20AF
:103EC000FFF75AFDBDE8084000F07CB908BD0000CE
:103ED000014803F0A3B800BF41A6000808B55D2063
:103EE00001F062FEBDE80840FFF7F2BF10B50446DE
:103EF000202001F059FE282001F056FEE31F192B67
:103F00003ED8DFE803F00D17191B1D1F213D3D3D75
:103F10003D3D232527292B2D2F3133353D37393B87
:103F20002D4803F07BF8292001F03EFEBDE810404B
:103F3000FFF7CEBF2948F4E72948F2E72948F0E720
:103F40002948EEE72948ECE72948EAE72948E8E765
:103F50002948E6E72948E4E72948E2E72948E0E775
:103F60002948DEE72948DCE72948DAE72948D8E785
:103F70002948D6E72948D4E72948D2E72948D0E795
:103F80000023A4F16400C0B20928DCB203F10103EC
:103F900006D804280AD8DFE800F0060F1113150030
:103FA0000A38C0B2F0E7204803F038F8032CBAD83A
:103FB000DFE804F00A0C0E101C48F5E71C48F3E794
:103FC0001C48F1E71C48EFE71C48AAE71C48A8E793
:103FD0001C48A6E71C48A4E764A4000875A40008D0
:103FE0008FA40008A7A40008ABA40008B3A400088D
:103FF000BBA40008C4A40008DCA40008E4A40008D2
:10400000ECA40008F3A40008FEA4000806A500081C
:104010000EA5000817A5000822A5000838A500086D
:1040200040A5000848A5000872A5000815A50008CD
:104030004EA5000850A5000852A5000854A5000888
:104040005CA5000864A500086CA50008014802F002
:10405000E5BF00BF74A5000810B50446006803F072
:1040600099F82C2001F0A0FD606803F093F82C2053
:1040700001F09AFDA068BDE8104003F08BB810B5C0
:104080000446242001F090FD204602F0D0FFBDE858
:1040900010403D2001F088BD10B50C46FFF7EFFF42
:1040A000E0B202F0C4FFBDE81040FFF711BF38B521
:1040B0000C461546FFF7E3FF2946204603F006F8B5
:1040C000BDE83840FFF704BF10B5044620B9BDE88D
:1040D0001040064802F0A2BF054802F09FFF2046AC
:1040E00002F0A5FFBDE81040FFF7F2BE77A500087B
:1040F0007CA5000810B50446064802F08FFF204654
:1041000002F095FFFFF7E4FEBDE810404FF4FA70AF
:10411000FDF714BB83A5000810B50446144802F04F
:104120007DFF601E0A280AD8DFE800F0060D0F1197
:10413000131517191B1D1F000E4802F06FFFBDE875
:104140001040FFF7C5BE0C48F7E70C48F5E70C48F0
:10415000F3E70C48F1E70C48EFE70C48EDE70C48B3
:10416000EBE70C48E9E70C48E7E70C48E5E700BF58
:104170008AA5000890A50008A2A50008B6A5000819
:10418000C8A50008D0A50008D9A50008E4A5000826
:10419000F1A50008F9A500080CA600081EA6000855
:1041A00008B54FF4FA70FDF7C9FABDE808400148B8
:1041B00002F034BF27A60008014802F02FBF00BF5D
:1041C00044A600082DE9F8437F4C002094F83010F5
:1041D000FFF762FF94F834100120FFF75DFF94F8B9
:1041E00031100220FFF758FF618E0320FFF754FFC4
:1041F00094F849100420C1F38001FFF74DFF94F8B3
:1042000049100520C1F38011FFF746FF94F94910CA
:104210000620C90FFFF740FF94F85D500720FFF715
:104220002EFF284602F02BFFFFF752FE0720FFF774
:104230005DFE256E0820FFF722FF284602F01FFFD3
:10424000FFF746FE0820FFF751FE656E0920FFF7D5
:1042500016FF284602F013FFFFF73AFE0920FFF78A
:1042600045FE94F835100A20FFF716FF0322A16BD4
:104270000B20FFF71CFF0322E16B0C20FFF717FF59
:1042800094F849100D2001F00101FFF705FF94F8A3
:1042900048501320FFF7F3FE284602F0F0FEFFF728
:1042A00017FE1320FFF722FE94F849101420C1F3E3
:1042B0004011FFF7F1FE94F849101520C1F3C00139
:1042C000FFF7EAFE94F849101620C1F30011FFF73A
:1042D000E3FE94F84A101720FFF7DEFE0322E16C9C
:1042E0001820FFF7E4FE0322216D1920FFF7DFFEFF
:1042F000B4F854101A20FFF7CFFE0322A16D1B2043
:10430000FFF7D5FE94F85C0005F09EFD0022014603
:104310001C20FFF7CCFE1C20FFF7E8FD0022216CDB
:104320001E20FFF7C4FE0022616C1F20FFF7BFFEB6
:1043300094F849102020C1F34001FFF7ADFE642638
:104340000027DFF888900025032F10D8DFE807F05A
:10435000021A2330032206EB050854F825105FFAF1
:1043600088F84046FFF7A3FE4046FFF7BFFD013542
:10437000032DE9D10A36F6B20137962EFFB2E2D10B
:10438000BDE8F88306EB050804EB85035FFA88F8BF
:104390000322D968E5E704EB85034946986905F0EF
:1043A0005FFE06EB05085FFA88F803220146D8E7AE
:1043B00004EB8503596A06EB05085FFA88F801F1FA
:1043C00000410322CDE700BFD0100020000061456E
:1043D0001FB50B4802F022FE0A4901A800F0C4FBF9
:1043E00001A8FFF739FE3A2001F0DEFB064B5879B1
:1043F00002F01DFEFFF772FD05B05DF804FB00BF83
:104400008EA600080C0C0020EC0B00202DE9FF41CB
:104410000025234E234FDFF8A480ECB201A92046EB
:10442000FFF79BFB50B9204802F0F8FD072002F08F
:10443000FEFDFFF74DFD04B0BDE8F081304602F00F
:10444000EDFD062C07D0072C27D004F13600C0B2B2
:1044500002F0EDFD02E0384602F0E0FD3A2001F006
:10446000A3FB013501A8FFF7F7FDFFF737FD082D86
:10447000D3D10E4802F0D2FD0D48FFF7EDFDFFF756
:104480002DFD0C4802F0CAFD0B4B586C02F082FE69
:10449000FFF724FDFFF79CFFCDE74046DCE700BFB8
:1044A00094A6000897A600087CA500089DA6000811
:1044B000600C0020A3A60008280C00209AA6000883
:1044C00010B5484C484802F0A9FD20788B2805D942
:1044D000464802F0A3FD20787630C0B202F0A7FD76
:1044E000434802F09BFDA0793630C0B202F09FFD38
:1044F0003F4802F093FD20791130C0B202F097FDE1
:104500003B4802F08BFDA078C0F11500C0B202F06C
:104510008EFD374802F082FDE0785A30C0B202F0DA
:1045200086FD334802F07AFD6078C0F15E00C0B2CB
:1045300002F07DFDE37973B1FFF788FDE079032890
:1045400006D01E2801D0022805D102F070FD02E03D
:10455000302001F029FBFFF779FD637A102B04D09E
:10456000202B38D023B9352000E0332001F01CFB8C
:10457000FFF76CFDA37A23B1FFF768FD362001F049
:1045800013FBFFF763FD237A3BB31A0604D5FFF74D
:104590005DFD372001F008FB237A5B0604D5FFF7A9
:1045A00055FD382001F000FB124802F037FD207E57
:1045B00002F03DFD104802F031FD606902F0FEFDA1
:1045C0000E4802F02BFD2069002102F07FFDBDE8BE
:1045D0001040FFF783BC3420C8E7FFF737FD3920D0
:1045E000E0E700BF280C0020A9A60008AFA600083D
:1045F000B3A60008B6A60008B9A60008BCA6000825
:1046000038B505460C46084802F008FD284602F079
:104610000EFD3D2001F0C8FA204602F0FFFCBDE887
:104620003840FFF755BC00BFBFA6000838B50546A7
:104630000C463E2001F0B8FA284602F0EFFC3A2082
:1046400001F0B2FA2046BDE83840FFF73DBD00005A
:1046500010B504461B4802F0E1FC204602F0DEFCE7
:10466000FFF73CFC184802F0D9FC204602F0D6FCCB
:10467000FFF734FC154802F0D1FC204602F0CEFCD6
:10468000FFF72CFC124802F0C9FC562001F08CFA0E
:104690004D2001F089FA5A2001F086FA4C2001F0F1
:1046A00083FA2C2001F080FA172002F0C0FC2C20A5
:1046B00001F07AFAFA2002F0BAFCBDE81040FFF7E8
:1046C0000DBC00BFC2A60008D6A60008F6A60008CA
:1046D00013A700082DE9F04FAD4A8BB001AB04AF32
:1046E00007CAAC4C83E807001946384600F03CFA8C
:1046F0003C2001F059FA2378082B00F0BB8000F22F
:104700009A80012B00F0BC80C0F0B080022B00F03A
:10471000B980042B00F0B2809F4B93F83580994606
:1047200018F0010800F0C080237B002B00F0BC8053
:104730009A4802F073FC3846FFF78EFC99F8353042
:104740009A070ED5964802F069FCFFF7C3F802F00D
:104750006EFC2C2001F028FA01F0FEF9C0B202F044
:1047600066FC904802F05AFCFCF7F2FA02F026FDD3
:104770002C2001F019FA0021206902F0A7FC01F0B9
:104780005FF8064600F070F9054601F08FFC46EA36
:104790000503034313F0FF0F07463AD0824802F0A7
:1047A0003DFC17B1502001F0FFF9C6B1F30702D567
:1047B000582001F0F9F9B70702D5592001F0F4F9B2
:1047C000700702D55A2001F0EFF9310702D54120D8
:1047D00001F0EAF9F20602D5422001F0E5F9C5B18F
:1047E000EB0702D5442001F0DFF9AF0702D55220D4
:1047F00001F0DAF96E0702D5482001F0D5F9280753
:1048000002D5532001F0D0F9E90602D5462001F087
:10481000CBF9237B002B70D0013B2373E37A002B71
:104820007DD0013BE3723E2001F0BEF9FFF750FB63
:104830000BB0BDE8F08F202B1ED010D8102B7FF4CA
:104840006BAF94F90230002B16DB584802F0E6FB00
:10485000A378DE0724D5302001F0A6F95CE7402BD1
:1048600012D0802B7FF458AF514800E0514802F03D
:10487000D5FB51E75048FAE75048F8E75048F6E7CB
:104880005048F4E75048F2E7504802F0C7FBA378DD
:104890001D0701D53320DFE7580703D59906DAD580
:1048A0003120D9E73220D7E70025494E0DF11C0B06
:1048B000D6F844A0343656F8080C56F8041F05F014
:1048C00013FA022D4BF8250003D1514605F00CFADE
:1048D0000990B8F1000F07D157F825005BF82510B3
:1048E00005F000FA47F825000135032DE3D1B8F1B2
:1048F000000F7FF41DAF37481BE7237813F07C0FC0
:1049000014BF1D2313232373E37A0BB90123E3722E
:10491000314802F083FB07A8FFF79EFB7EE7237870
:104920002E4813F07C0F14BF13230E23E37202F002
:1049300075FBE07902F07BFB2C2001F035F9207A41
:1049400002F075FB2C2001F02FF9607A02F06FFB6A
:1049500001F054FC054600F0B5FE044615B90028E8
:104960003FF461AF1E4802F059FB2DB1012D0CBF81
:104970005320432001F018F9E20702D5462001F048
:1049800013F9A3077FF54FAF4D2001F00DF94AE76A
:10499000180C0020EC0B0020D010002051A70008BC
:1049A0005FA7000864A7000869A700082AA70008F5
:1049B0004BA7000821A7000826A7000830A7000879
:1049C00034A7000839A700083FA7000845A700083A
:1049D000280C002058A700086EA7000874A700083C
:1049E00079A7000830B5012185B00920FDF7C4FA88
:1049F00048238DF8033040F6E153022504A921F83D
:104A0000103D18488DF80250FCF73AFF05210120AF
:104A1000FCF7AEFF06210120FCF7AAFF07210120C9
:104A2000FCF7A6FF08210120FCF7A2FF4FF4F0736A
:104A30000293002301248DF80C300C2302A88DF87A
:104A40000D308DF80E4001F01BFE40F2172301A837
:104A5000ADF804308DF806508DF80740FCF72CFABD
:104A600005B030BD000C014008B50C48FCF769FFEB
:104A700088B180F48073C3F30023820658BF43F0EB
:104A80000203410658BF43F00403020601D443F079
:104A90000803D8B208BD0346FBE700BF000C014085
:104AA00008B54FF4F07001F02DFEFFF7DDFF40B1C7
:104AB000830707D500F0C4FC4FF400020C4BC3F889
:104AC000802108BD010705D50A4A137843F0020387
:104AD0001370F1E7420704D5064A137843F0080340
:104AE000F6E7C307E8D5034A137843F02003EFE75E
:104AF00000E100E0090C002008B5FFF7B5FF00F069
:104B0000010008BD38B50446002521462846FEF7B9
:104B1000FDFF40B9072120702046FFF787FD05B152
:104B200038BD0125F1E72378002BF8D02046FDF7AA
:104B300059FA0146F0E7000008B5FCF739FD0022FC
:104B4000014B1A7308BD00BFEC0B002010B50C46DA
:104B500050F8210005F07CF9024B53F8241005F0C1
:104B60007FFA10BDD010002070B505460E46002417
:104B7000A1B23046FFF7EAFF45F824000134032CC8
:104B8000F6D170BD2DE9F843814600240027144D6D
:104B900095F84A8059F8246048FA04F3DB0739464F
:104BA000304611D505F046FBC0B905EB8403586AC1
:104BB000314600F1004005F03DFB78B90134032C8B
:104BC000E8D10020BDE8F88305F052FB30B905EBD1
:104BD00084033146586A05F04BFBEEE70120F1E70C
:104BE000D010002072B6034A13781843107062B6D2
:104BF000704700BF090C00207FB5012344780546AB
:104C0000432C8DF8073003D00BD884B1242C58D115
:104C1000AD78D5B9432C3CD01DD8242C29D0002404
:104C200007E04A2C08D0582CF2D0472CEFE7FFF7CA
:104C3000C3FA204604B070BDA74B1B7813F0DF0FFA
:104C400040F0488183783D2B01D00324F1E7FDF744
:104C5000C9F90446EDE7472C14D0582CDFD19E4DFE
:104C60002B78012BDBD1FFF747FF044620B30D243F
:104C7000DFE7994B1C7814F0180440F02B81FFF704
:104C8000A1FAD6E7944B1B78002BC8D0FFF718FC8D
:104C9000C5E7914B1C78022C05D100F0D1FB052013
:104CA000FFF73AFABBE7002C40F0148102220420FF
:104CB0001A70FFF731FABCE70320FFF72DFA2C70CA
:104CC000B7E7854E3378012B00F20481492C62D07E
:104CD00005D8232C28D0482C2CD00024A9E0522C15
:104CE00077D0532C47D04E2CF7D10222AC788DF8D8
:104CF0000720002C40F09A8029462046FEF706FF48
:104D0000002800F08B8029462046FFF779FC2946D1
:104D10000120FEF7FBFE0446002800F083802946B0
:104D20000120FFF76DFC7AE7AC78002C8DD1FFF7FE
:104D30006DFB7EE7694B93F84930DB0640F1C88094
:104D4000FFF7DAFE002892D104233370AB78002BF2
:104D50007FF47BAF00F0F4FA7478002C7FF45FAF3F
:104D60003470FBF70DFAAB78002B7FF458AF284670
:104D7000FFF7C8FE5DE7AB784C2B7FF466AFEB78AE
:104D8000502B7FF462AF2C79002C7FF45EAF802033
:104D9000FFF728FF4DE70223AC788DF8073034B9D0
:104DA0002846FEF7C9FE2846FFF752FC41E73D2C96
:104DB0007FF44BAF0323EC5CEA18013302F8034C99
:104DC000DBB2002CF7D128468DF80730FEF7B0FD96
:104DD0002FE7AB78532B7FF438AFEB78542B7FF46D
:104DE00034AF2B793D2B7FF430AFAB79002B7FF4C0
:104DF0002CAF6B79242B06D02A2B0DD0232B7FF4DC
:104E000024AF022000E00120FEF7B6FD0920FFF7E5
:104E100083F900F015FB02E7FF20F5E70720FFF715
:104E200053F974E70720FFF74FF902E7002B51D140
:104E3000012402AA0DF107012846FCF7EDFB08B991
:104E40000224F6E69DF807305A1CEB5CD2B23D2BEB
:104E50008DF807207FF4F9AEE4B11346EC5C981AA4
:104E6000E9182C5409780133DBB20029F6D1284621
:104E70008DF80730FDF7B6F8044600287FF4D9AE68
:104E8000029802F0D9FC05F039FA2946C0B2FEF7C3
:104E90003FFDCEE603AA0DF107012846FCF7BCFB57
:104EA0000028CDD09DF80730EB5C002B7FF4CDAE11
:104EB000029C0B49204605F0DBF900287FF4C5AEC3
:104EC000204605F01BFA0399C0B2FEF775FEC0E656
:104ED0000524AEE60824ACE6EC0B0020D010002040
:104EE00000007F4372B6034A137823EA0000107073
:104EF00062B67047090C002072B6034A1378184353
:104F0000107062B6704700BF240C002072B60022F9
:104F1000014B1A7062B67047240C002072B6034A27
:104F200013781843107062B6704700BFE90B002079
:104F300072B6034A13781843107062B6704700BF08
:104F4000080C002072B60022014B1A7062B670473E
:104F5000E90B002072B60022014B1A7062B670474E
:104F6000080C0020F8B5174C074694F849200D4668
:104F700012F0200F144E04D03378202B01D000F013
:104F8000CBFD3378022B1BD0FCF7A8F97378BBB9A3
:104F9000FEF7B0FA10B1FBF7E9FFF5E7294638460E
:104FA000FEF72AFB60B994F849309A0708D52B7AA6
:104FB000DB0605D569681020BDE8F84001F04EBB5E
:104FC000F8BD00BFD0100020EC0B00200000000056
:104FD0002DE9F04F1C4692468FB09DF86C309DF83D
:104FE000645003939DF8703054F825700493AB001F
:104FF0001A44CDE90110E3185AF8251038460892F2
:10500000099304F071FE9DF8688005904FEA8803CB
:105010000AEB0302E31854F828405AF828102046F7
:105020000A920B9304F060FE029B0599069053F8D8
:10503000250004F057FE029B0546069953F8280008
:1050400004F050FE07F1004783462946384604F035
:1050500053FF04F1004480465946204604F04CFFBB
:105060000146404604F040FE04F0B8FA8046894606
:105070003846594604F040FF29468346204604F04E
:105080003BFF0146584604F02DFE04F0A7FA4B46BC
:105090004246189E02F0E2FB04F0D0FD049B054658
:1050A000002B48D004F09AFA93A3D3E9002380465A
:1050B000894604F071FD48B191A3D3E9002340462D
:1050C000494604F02BF904F0B9FD0546904B3146F2
:1050D000D3F83C80304604F007FE414604F002FE5F
:1050E000414604F009FF04F079FA02F0B9FB80466A
:1050F000894628464FF07C5104F0FEFE314604F00C
:10510000FBFE20F0004004F069FA42464B4604F0F2
:10511000E7FB04F093FD02F01FFB05F0EFF81FFA28
:1051200080FBBBF1000F19D1DDE901100FB0BDE824
:10513000F04FFFF717BF04F051FA73A3D3E9002330
:105140008046894604F01EFD0028BFD06CA3D3E939
:1051500000234046494604F0E3F8B4E7019B584673
:105160001E7A04F075FE3307804609D5019B01467F
:10517000186804F0C1FE019B26F0080618601E7234
:105180004146284604F06CFF039B06460AEB830366
:105190000493039B5AF82310DDE9023253F82200EE
:1051A00004F0A0FD414604F05BFF31460C90304610
:1051B00004F0A2FE01464FF0804004F093FD5549F3
:1051C0000546304604F098FE4FF08141804628465F
:1051D00004F08AFD0146404604F08EFE4FF07C51FB
:1051E0000390284604F088FE01254FF00008079040
:1051F000ABB29B4598D9B8F10B0F3FD8039938460D
:1052000004F07AFE07998146204604F075FE0146B7
:10521000484604F069FD07998146384604F06CFE63
:1052200003990746204604F067FE0146384604F01D
:1052300059FD4C46074608F101085FFA88F80599C0
:10524000384604F051FD089B06991860204604F08A
:105250004BFD0A9B0C991860049B0135186804F0FB
:1052600043FD049B019918605046FFF77BFE2A4BD3
:105270005B78002BBCD00FB0BDE8F08F284604F05F
:10528000E7FD314604F038FE04F0A8F9804689466F
:1052900002F048F904F0D2FC49460446404602F0C8
:1052A000CFF904F0CBFC099B0B9A1B68814603F1F4
:1052B000004318462146D2F800800D9304F01CFEEE
:1052C00049460746404604F017FE0146384604F0BA
:1052D0000BFD0D9B49460746184604F00DFE21467E
:1052E0008146404604F008FE0146484604F0FAFCB8
:1052F0004FF000080446A2E78DEDB5A0F7C6A0BEAA
:10530000182D4454FB2119408DEDB5A0F7C6A03EE1
:10531000D0100020ABAA2A3EEC0B002010B5074BA2
:1053200004461B78022B07D0FCF742F92046BDE863
:1053300010400021FCF7E0B910BD00BFEC0B0020CD
:1053400008B500F075FA072000F0EAFAFBF7C6FF8F
:10535000084B5B786BB9FCF73DFEFEF7ABFA4FF4F8
:10536000406001F0CFF94FF48072034BC3F8842101
:105370005A6008BDEC0B002000E100E02DE9F84385
:105380002B4C804623788946022B174625464DD064
:10539000FCF70EF9667816B10220BDE8F883C7F372
:1053A000C000667100F064FE00F080FE40B1042091
:1053B000FFF7A2FDFBF792FF304600F059FEEBE746
:1053C00040464946FFF7CEFD01231A4C02202370C8
:1053D000FFF708FCFBF782FF6B78002BDCD12B7802
:1053E000002BF7D12378012B1DD1FB0617D5124BCB
:1053F000124A07CA83E807000020207000F038FE38
:10540000FBF76CFFFBF75EF8FEF728F8FEF752FAA1
:10541000FEF7DEFF6879003018BF0120BDE70520E8
:10542000FFF76AFDE8E701236B71E5E70020B4E7C9
:10543000EC0B00200A0C00200C0C0020180C0020A3
:1054400008B5114B1B78DB061DD41020FFF7CAFBF3
:1054500000F0E0FE00F048F90C4A137813F02C0F2E
:1054600003D1127912F0060F0DD0042B09D1084B8D
:105470001B7813B90620FFF73FFDBDE80840FAF797
:105480007FBE0320F7E708BD090C0020EC0B0020CD
:10549000240C0020002370B51E46050FECB2092D28
:1054A00094BF3034373401F8134001EB4304013327
:1054B0006670DCB2A2424FEA0010EED870BD08B5AB
:1054C0000020FCF713FDBDE8084001214FF4000067
:1054D000FCF75EBD37B54FF4C060FBF7E3FC002579
:1054E0004FF48A73012401A8ADF804308DF80650FA
:1054F0008DF80740FBF7E0FC4FF4957301A8ADF879
:1055000004308DF806508DF80740FBF7D5FC03B04A
:1055100030BD7047094B10B518685C6808331B68CC
:10552000C0180AD008220649FFF7B4FF2046BDE89C
:10553000104004220349FFF7ADBF10BDE8F7FF1F7D
:10554000F600002006010020224A038890429BB208
:1055500012D002F5006290420ED0B0F1804F0BD015
:10556000A2F59832904207D002F58062904203D0B3
:1055700002F58062904203D14A8823F070031343FE
:10558000154A904208D002F5806290421FBF23F472
:105590004073CA889BB2134303808B8883850B8832
:1055A00003850C4B98420FD003F5006398420BD053
:1055B00003F54063984207D003F58063984203D017
:1055C00003F58063984201D10B7A0386012383821D
:1055D000704700BF002C014000100040038C70B5E4
:1055E00023F480531B041B0C0384038C8488828B5C
:1055F0000D8822F4E6421204120C42EA052223F43A
:1056000000530D894E881B0435431B0C43EA0533B8
:105610000B4DA4B2A84292B29BB203D005F500652F
:10562000A84205D18D8924F4804444EA8514A4B2AB
:1056300084808283CA88A0F84020038470BD00BFA4
:10564000002C0140038819B143F001030380704727
:1056500023F001031B041B0CF8E7838912B11943E3
:105660008181704723EA0101FAE7038923F00703E8
:105670001B041B0C03817047038819B143F080039E
:105680000380704723F080031B041B0CF8E7838B17
:1056900023F400631B041B0C43EA012189B28183BC
:1056A0007047038923F080031B041B0C03810389CB
:1056B000194301817047A0F840107047C94389B26F
:1056C0000182704710B50748FCF73EF9C0F3C004EB
:1056D0000448FCF739F9C30648BF44F002042046E9
:1056E00010BD00BF000C014010B5064C0022204642
:1056F0000821FCF72EF92046BDE8104000221021B9
:10570000FCF727B9000C014037B501210820FCF750
:1057100033FC02238DF80630182310250B4C02A908
:1057200021F8043D20468DF80750FCF7A9F82046E3
:1057300000220821FCF70DF9002229462046FCF73B
:1057400008F9FFF7D1FF03B030BD00BF000C0140E6
:1057500038B50C4C0546627822B920B9FFF7C4FF72
:105760000023E37238BD420604D501220821064811
:10577000FCF7EFF82B06F3D5012210210248FCF7C5
:10578000E8F8EDE7EC0B0020000C014010B5064BEB
:1057900004461B78022B06D0FBF70AFF2046BDE823
:1057A0001040FFF7D5BF10BDEC0B00201FB51E4BFE
:1057B00093F849301B0730D50A210120FCF7D8F8AF
:1057C0000B210120FCF7D4F80A210120FCF7D0F8C6
:1057D0000A210120FCF7CCF80A210120FCF7C8F8C7
:1057E0004FF440630293002301248DF80C300C2306
:1057F00002A88DF80D308DF80E4000F041FF4FF4F7
:105800000A73ADF80430032301A88DF806308DF833
:105810000740FBF751FB04B010BD4FF48072034BFF
:10582000C3F88420F7E700BFD010002000E100E0BB
:105830004FF48072014BC3F88420704700E100E010
:1058400008B51048FCF77DF803460F4A92F8492046
:1058500052065CBF80F440639BB28BB10B4A116867
:105860000B4218BF01205168926808BF00200B420C
:1058700018BF40F00200134201D040F0040008BD00
:105880001846FCE7000C0140D010002058A4000886
:1058900008B54FF4806000F027FF18B14FF4806026
:1058A00000F030FF4FF4006000F01EFF18B14FF41D
:1058B000006000F027FF4FF4806000F015FF18B182
:1058C0004FF4806000F01EFF4FF4806000F00CFF8A
:1058D00018B14FF4806000F015FF4FF4806000F0C5
:1058E00003FF18B14FF4806000F00CFF4FF480729A
:1058F000084BC3F88421084B1B78012B09D0074BB8
:105900001B7833B9FFF79CFDBDE808400120FFF785
:10591000F3BA08BD00E100E0EC0B0020240C0020ED
:105920002DE9F04F744B8DB05C7882469846002C80
:1059300040F0A98006234FF00009CDE906446F4DE1
:105940006F4E704F08940DF1140B8DF8203055F800
:105950002420A30004F80B204AFA04F2D0070BD548
:1059600033443946586A04F0C7FA4946009004F0B7
:1059700061FC08B9009B99460134032CE7D1604DC6
:1059800001272B6D00930423019309AB18465E4950
:105990000393FFF7E9F800200646014695F84A30E0
:1059A00009F1004C0293039B4AFA01FE1EF0010F1D
:1059B00017D00024544A013042F82140029AC0B264
:1059C00042FA01FE1EF0010F03D027B143F821C0B7
:1059D00003E0002FFAD043F821901BF801E046EADB
:1059E0000E0601310329DFD104F02EFA01F096FFF3
:1059F00088F806600146009804F07EFA06A9069031
:105A000009A8FDF7F9FD042388F80430FAF7B6FD7C
:105A1000FAF77CFBDFF8FC9087B1FFF711FF00235A
:105A20001BF80320324204D040FA03F1C90748BFF3
:105A300096430133032BF3D188F80660FAF79EFDF5
:105A400099F8003013F0340F4BD099F80060F6B29B
:105A5000F30602D50620FFF74FFAB40602D5072059
:105A6000FFF74AFA002F43D1FFF7EAFE10EA0A0FC8
:105A700002D00820FFF740FA244B1B7833B1FFF720
:105A8000DFFCFBF72BFC0DB0BDE8F08F0420FFF727
:105A900029FAFAF717FDB5F85400FBF74FFE87F027
:105AA00001060FBB1A49A86D04F026FA8146EB6C7B
:105AB0000093019B37465C1E14F0FF0301937FF4B3
:105AC00064AF1C462246104B4AFA04F1C90748BF8E
:105AD00043F824200134032CF6D1002388F8043045
