:020000040800F2
:10000000D02C0020A1180008E3750008E575000851
:10001000E7750008E9750008EB75000800000000AE
:10002000000000000000000000000000ED75000866
:10003000EF75000800000000F17500089D18000829
:100040009D1800089D1800089D1800089D180008BC
:100050009D1800089D1800089D1800089D180008AC
:100060009D1800089D1800089D1800089D1800089C
:100070009D1800089D1800089D1800089D1800088C
:100080009D1800089D1800089D1800089D1800087C
:10009000F37500089D1800089D180008694B0008BA
:1000A0009D1800089D1800089D1800089D1800085C
:1000B000F90100086D0400089D1800089D1800084B
:1000C0009D1800089D1800089D1800089D1800083C
:1000D0009D1800086D5E00089D1800089D18000816
:1000E0005D5900089D1800089D18000800000000D8
:1000F0000000000000000000000000000000000000
:1001000000000000000000005FF808F138B5174D4E
:10011000174C95F869204FF4004112F0040218BF03
:100120000122144801F049FC236C1348A36195F89F
:1001300050300125043BC3EBC30203EBC203DB4396
:100140009BB2E382013B9BB283852946858205F001
:100150001BFB4FF08042E36B5B68013B9BB29385D6
:1001600095824FF08052054B1A6038BD1011002067
:1001700040050020001001400004004000E100E0C4
:100180004FF08052164B10B5C3F880200022154C5A
:10019000154B94F8540083F84420144AFF28117832
:1001A00015D1134B1B7803F0FF0283B9802910D0BF
:1001B00094F869305B0748BF82F0010202B1012266
:1001C000BDE810404FF400410A4801F0F6BB042995
:1001D00003D001F0EDFA0122EAE70022E8E700BFD0
:1001E00000E100E01011002040050020040C002078
:1001F0004C0C002000100140F8B54FF080452B8AD0
:10020000DE0740F117812B8A914E23F001031B0476
:100210001B0C2B820023AB8496F844303446002B11
:1002200040F008818B4801F0C3FBF16920F4F070C5
:1002300021F4FC414004400C21F01F01014389B22C
:10024000844801F0BFFB0121834805F09DFA8148F5
:1002500001F0AEFBB16920F01F00014389B27D4877
:1002600001F0B0FB4FF000527C4BF76B1A6001239A
:1002700086F84430002F4CD1B6F84630B6F8482006
:100280009A4200F0D8800C23B6F8462006F14C01C3
:1002900092B2534319443344F163196D013989B261
:1002A000A985D96C93F8540096F83630B18683420C
:1002B00010D01C23434306F1DC0119443344D3F826
:1002C000F03086F836005B08C6E90333C6E901332F
:1002D000B1633360A36BD4F81002198B4140E16124
:1002E0000C2101FB0242186892F85510C8402062A8
:1002F0005868C84060629868C840A062D8681B69A6
:10030000C840E06223FA01F1B2F85600216306F01A
:1003100069F9534B1B78012B01D105F07FFE0023B7
:100320002268A361A16B236A1A444B6922609A4236
:100330000CD90120A0614B48D21A0D8B22600268B3
:10034000AD064CBF02F1FF32013202606268606AA2
:100350000244934262600ED2A069D21A40F00200B9
:10036000A06140480D8B626042686F064CBF02F18D
:10037000FF3201324260A268A06A02449342A26046
:100380000ED2A069D21A40F00400A06135480D8B4E
:10039000A26082682E064CBF02F1FF3201328260F9
:1003A000E268E06A02449342E2600ED2A069D21A87
:1003B00040F00800A0612B480D8BE260C268ED059B
:1003C0004CBF02F1FF320132C2602269206B02444D
:1003D000934222610FD2D31A224AB1F91810A069B0
:1003E00023611369002940F01000B4BF03F1FF330B
:1003F0000133A06113611C4B1A78042A01BF9B7959
:10040000A2691340A361A38E013B9BB2A38653B99B
:10041000E363B4F846300133DBB20C2B08BF002392
:100420009BB2A4F84630A369226C5340A361002319
:1004300084F84430F8BDFFF7A3FEB36B9B7E13B185
:10044000384606F0CFF8BDE8F840042004F02EBC92
:1004500040050020000801400004004000E100E0E9
:10046000220C0020380C0020040C0020114A08B592
:10047000138ADB071CD5138A0F4823F001031B04E2
:100480001B0C1382002393844FF000520B4BC3F8D4
:10049000802001F08DFA0A4B20F01F00196CBDE896
:1004A000084001F01F01014389B2034801F08ABAF4
:1004B00008BD00BF000400400008014000E100E06A
:1004C0004005002000232DE9F04117491C4691F812
:1004D0005170B1F852C01D4619461846134A144EC1
:1004E0001364C2F8103206F1140E47FA03F818F03C
:1004F000010F18BF56F823504CFA03F81CBF2843CD
:10050000012518F0010F18BF5EF8234003F1010325
:100510001CBF21430124052BE7D105B110640CB1A8
:10052000C2F81012BDE8F081101100204005002033
:1005300010A5000838B5204CFFF722FE3822002114
:1005400004F5057009F09AFF00214022204609F0C9
:1005500095FF00230122194DA4F85022A4F846303B
:10056000C4F84C32A4F8483084F84430FFF7AAFFAE
:10057000D4F810322846E36101F01AFA216C20F019
:100580001F0001F01F01014389B2284601F01AFA49
:10059000284601F00DFAD4F8101220F4F07021F47E
:1005A000FC414004400C21F01F01014389B2284660
:1005B000BDE8384001F006BA4005002000080140BF
:1005C00038B50A4CD4F84C5275B194F81532D4F8B9
:1005D000301243F0010384F81532084609F0F4FCA8
:1005E0000023E861C4F84C3238BD00BF400500204C
:1005F0002DE9F04FA54B8DB01B79DC0700F131835D
:10060000DFF88CA2BAF84620BAF85012914200F0F6
:100610002883DAF84C22002A53D19C4F3A795007AC
:1006200040F1C38002F076FFCAF84C02DAF84C526F
:10063000002D00F016839AF8156216F0010000F004
:10064000B78000228AF815220023DAF84C62CAF833
:100650002C32D6F824804FF07C50414609F068FDDA
:100660003A79044612F00201B56A00F01B810222B9
:10067000F66901468AF82822304609F0A5FC0146B1
:10068000284609F097FB0021044609F03BFE0028AC
:1006900000F0F6804146404609F08EFB294609F0FD
:1006A00093FC0146304609F085FB08F0FFFF07F098
:1006B00041F909F02BFBCAF838023A7942F00802F6
:1006C0003A71BAF848300C2219460193704B02FB7C
:1006D0000132DAF84C329AF8141202939B6A82F8CB
:1006E00054101846DAF82412089309F063FB00212D
:1006F0000A9009F007FE08B100230A93DAF83C32A9
:10070000DAF834B20493DAF8403204990593DAF84F
:100710002C3205980693DAF838329AF82882DAF8FB
:100720003042099309F0E4FD002800F087814FF082
:1007300002030027DBB20B930023B946554EDDF8C8
:1007400020A003930796B8F1010F00F0C481029B2B
:100750003046596AC0F08B81B8F1030F40F0ED814B
:1007600009F032FC81465946204609F023FB4946F0
:1007700009F0D2FD002800F064810499089809F07E
:1007800019FB014609F018FB21460546584609F0B9
:1007900013FB0146284609F0CBFC012706465C46C0
:1007A000B846049D4FF00109AFE102F0BDFE3BE702
:1007B0009AF814221C210132D2B20B2A08BF00225F
:1007C0005143354C324BB5F818C00C4419448AF8E3
:1007D0001422CAF85442A1F8F4C055F82010C900F8
:1007E00044F8201001300528F7D11C21284B6869F6
:1007F00001FB0232C100C2F8F01009F08DFBA96ABA
:10080000CAF81C0209F094FC0146CAF820022348E9
:1008100009F08EFC00233A79CAF824029107CAF83D
:10082000183201D4320721D5DAF8381226F008063A
:10083000CAF83012084609F0C7FB8AF81562E86169
:100840000022A276164A92F8692093077FF5FCAE43
:10085000AA7E96067FF5F8AE696B4FF07E5009F0E0
:1008600067FC0122CAF84402A276EDE6E86908F0C6
:100870001DFF07F05FF809F049FACAF83002DFE718
:100880000023CAF82C42CAF8383216E7040C0020BC
:10089000400500205304E9381C0600200000A03F5A
:1008A0001011002050078AF82812CAF83C5247D588
:1008B00000239846CAF83832DAF84C0202F062FE99
:1008C0000146029009F080FBDAF84C320546DE69F9
:1008D000014630460193D3F828B009F031FD0028D5
:1008E0004AD02946304609F065FA214609F06CFBEA
:1008F0000146584609F05EFA0021CAF83C0209F0A8
:100900000BFD48B30222019B8AF82822596A084647
:1009100009F052FA594609F057FB0146304609F0F2
:1009200049FA08F0C3FE07F005F809F0EFF99AF864
:100930001522CAF8380242F008028AF81522BCE6ED
:1009400002F000FE804608F0B1FE06F0F3FF09F069
:10095000DDF9CAF83802AFE74146284609F02AFA1D
:10096000214609F031FB0322029BCAF84002CAF873
:1009700034328AF82822A0E64146304609F01AFAB5
:10098000214609F021FB594609F016FA4FF07C5137
:1009900009F01AFB0021814609F0D2FC002845D05D
:1009A0004946584609F0CCFC00283DD0414628462F
:1009B00009F000FA214609F007FB4946CAF840024F
:1009C00009F0A0FCC0B1029B2946CAF83432304677
:1009D00009F08EFC08B10122CBE73146284609F028
:1009E000E9F9214609F0F0FA0146DAF83C0209F08B
:1009F000E1F9CAF83C0260E6019BCAF83C92596AE8
:100A0000CAF84092084609F0D7F9494609F0DCFADD
:100A1000414609F0D1F908F049FE06F08BFF09F0D4
:100A200075F9CAF8340248E60222A2E70023DAF890
:100A30003822CAF83C32CAF834223EE64FF00103AD
:100A400077E64FF07C51484609F0BEFA0146204651
:100A500009F0B0F9314609F0B7FA0146504609F0FD
:100A6000A9F905464946204609F0A4F931E009F004
:100A7000ABFA4FF07C51814609F0A6FA214609F005
:100A80009BF9314609F0A0FA0146504609F092F967
:100A900005460146049809F053FCB0B10499089842
:100AA00009F088F9014609F087F9214605465846BC
:100AB00009F082F90146284609F03AFB5C460646F1
:100AC000DDF82C80049D01276CE64946204609F09C
:100AD00073F9044666E63146584609F075FA014650
:100AE000504609F067F905460146059809F028FCCB
:100AF00058B10599504609F05DF9594609F018FBBF
:100B0000474606464FF00208059D3146039809F016
:100B100053F903900146079809F012FC002840D0D1
:100B20000399079809F046F929460646069809F000
:100B3000E9FB00283BD0AA4605E609F045FA8146C4
:100B40000146204609F0FCFBB8B14FF07C51484605
:100B500009F03AFA0146204609F02CF9314609F02D
:100B600033FA0146504609F025F905460146069834
:100B700009F0C8FB00287FF475AF0699504609F0CC
:100B800019F9014609F018F921460546099809F0B6
:100B900013F90146284609F0CBFA099C0646069D42
:100BA00000E60A99284609F0CBFB00285CD17F4B70
:100BB000B9F1000F01D0C3F830420FB183F8288299
:100BC0007A4C7B4FD4F8543226469A7E12B93B7940
:100BD00019071CD5029B9B7E13F030034BD0029B60
:100BE000D3F8388052B1D4F84412D4F8300209F066
:100BF000EBF90146404609F0E7F98046404605F02A
:100C00000BFDA4F848023B7923F008033B710C2349
:100C1000019AD4F8201203FB0263B4F84822284654
:100C2000A3F85620029309F0CFF9824606F0BAFDE8
:100C30008046D4F81C0206F0B5FD4146814609F015
:100C4000B9F809F0C3FB029B1FFA80FBC3F84CB054
:100C5000BBF1000F14D13B799A0711D543F0010382
:100C60003B710DB0BDE8F08F5249079809F0A4F828
:100C70000399079056E70022A4F848323A61C2E788
:100C8000D4F81812039809F097F851460290484694
:100C900009F090F8029B0146184609F049FA464BC4
:100CA000464A1B688146B3FBF2F05043029309F0B9
:100CB00033F9494609F088F9414909F085F906F008
:100CC00071FD09F083FB48F6A042029BB3FBF2F2F0
:100CD00082423CD90C23019A03FB0263002283F871
:100CE00055200C23019AB0F5803F03FB02632ABF15
:100CF0004FF0FF3218651A65B4F850325146A4F827
:100D0000483001339BB20C2B08BF0023A4F85032AB
:100D1000D4F84C32C4F81C829D62404609F04AF86F
:100D2000494609F051F92946C4F81802D4F82C02B2
:100D300009F0DEFA00283FF463AC002128463C7934
:100D400009F0FEFA48B344F001043C7189E744F22B
:100D50005062B3FBF2F2824211D90C23019A03FBD9
:100D60000263012283F855200C22019B02FB0362DF
:100D700092F85530D8400BFA03F3D364B1E742F24E
:100D80002832B3FBF2F383424FF00C03019A03FBCA
:100D900002638CBF02220322E4E714F00403D2D1E1
:100DA000C6F84C3202F0A2FB2AE400BF4005002046
:100DB000040C00205304E9380000002040420F00DA
:100DC00000007042044B1B7813F07C0F1ABF034BDA
:100DD000D3F8300200207047040C002040050020AA
:100DE00030B5013A85B00446ADF80420002201393F
:100DF000ADF8081001A91D46ADF80A20ADF806208F
:100E000004F008FC0121204604F0BEFC012220462B
:100E1000114604F088FC0121204604F079FC4FF4CF
:100E2000407000F079F8B4F1804F0ED11C238DF89A
:100E30000030012368468DF801508DF802308DF89E
:100E4000033000F073F805B030BD054B9C4201D172
:100E50001D23ECE7034B9C42EBD11E23E7E700BFC9
:100E600000040040000800402DE9F3414FF4004623
:100E70004FF00208102702AC224D0121102001F092
:100E8000B1F824F8046D214628468DF806808DF8C7
:100E9000077000F029FD0121042001F0A3F848F2B9
:100EA000FF1321461848194CADF804308DF8068020
:100EB0008DF8077000F018FD31462846002200F03A
:100EC0007CFDE3694FF0804043F00103E3610123BF
:100ED0001A461946FFF784FFE3690D4843EA080301
:100EE000E36101231A461946FFF77AFF4FF00052DB
:100EF000084BC3F880204FF08052C3F8802002B026
:100F0000BDE8F081001001400008014000100240DF
:100F10000004004000E100E040F0BF60024B40F4FC
:100F20000030D860704700BF00ED00E070B50125CB
:100F3000017801F01F039D40C3784C09C3B10F4BEA
:100F4000DA684378D243C2F30222C2F1040603FAFC
:100F500006F683780F2020FA02F213403343084A42
:100F60001B01DBB2114481F8003342F8245070BDFC
:100F7000034B203443F82450F9E700BF00ED00E0B4
:100F800000E100E038B50B6905460360037A01F122
:100F9000480443F0040303720F4B93F869309B0637
:100FA00010D429460D4D204604F040F82C7884B921
:100FB00002F0BAFA68B120232B70FFF719FBFFF794
:100FC000A5F807E0204603F041FE0028E9D00F24F1
:100FD00000E00024204638BD10110020040C002041
:100FE00008B502F0A1FA20B1BDE80840022003F0E4
:100FF0005DBE08BDF8B5374B374C1B78374E03F054
:10100000FF0593B101272846013D277003F0D4F86E
:10101000BD4208D8384603F0E1F8102003F0C6FFBF
:101020003378DF06FCD503F0D5FF337803F0FF05F6
:10103000002B00F0AF80EE0602D501236370F8BDEF
:10104000E80704D503F0AAFB012003F0AFFF15F079
:10105000E80F59D023786EB2990747D113F0280FC3
:1010600010D0A37813F0C00F0CD1FFF7A9FA022318
:1010700023712378202B05D1002E07DBA37863F0A2
:101080007F03A37023780BB90122A2706A0605D5ED
:101090009F065EBFA27842F04002A270280704D5E6
:1010A00013F0E00F04BF10232370A9061ED50620FD
:1010B00003F094F8A3781A0614D42278402A0FD1AA
:1010C0001F0704D523F01C0343F00203A370402341
:1010D000237007E04C0C0020040C0020210C0020A1
:1010E000802AF4D1A37843F02003A370002E08DAFD
:1010F0002378012B02BFA37843F00503A37080235C
:101100002370E82003F052FFA80723D515F0680FDD
:101110001DD12378402B07D1A37813F0200203D1EF
:10112000D90640F1D38022702378002B00F0D480C0
:10113000DF060CD5A278D60709D5102B40F0CC805D
:10114000A37A002B00F0C88043F00803A3720220AA
:1011500003F02CFF68071DD5227894F9023012F0B5
:10116000D00F00F0CE80E278002A40F0CA80002B39
:10117000C0F2C98002F002FC2379990748BFA27827
:1011800023F0060344BF42F00102A2702371042041
:1011900003F00CFF6B4B1B7803F0FF05002B37D0DF
:1011A00003F034FFE07915F0010F0CBF0346642310
:1011B000AA0748BF0A336F0744BF0A3B9BB22E07FA
:1011C00044BF01339BB2E90644BF03F1FF339BB236
:1011D000FF2B28BFFF230A2B38BF0A23217A15F0E3
:1011E000200F14BF64220A4615F0400F18BF3222A8
:1011F00015F0800F18BF1922984201D18A4207D0FA
:10120000E37100232272E37202F0F4F902F0B6FBFC
:101210004D4B1B7803F0FF06002B4ED003F0FEFE73
:10122000627A16F0010F0CBF13466423B70744BF60
:101230000A33DBB2750744BF0A3BDBB2300744BF59
:101240000133DBB2F10644BF03F1FF33DBB2C82B3D
:1012500028BFC8230A2B38BF0A239A4206D06372DC
:1012600000232279E37242F008022271B706227845
:1012700006D5102A04D1A37A002B5DD10223A372D4
:1012800016F0C00F19D012B112F0180F15D02F4F51
:1012900030063D7A05D529064CBF05F07F0545F09F
:1012A0008005720605D56B064CBF05F0BF0545F0FD
:1012B0004005284604F0B2FA3D72237813F0FC0F83
:1012C0003FF4BDAEBDE8F840FFF792B95A0744BFFE
:1012D00043F00803A37027E70023237102F024F9E9
:1012E00058B1A37813F0400307D1A37008232370EB
:1012F000FFF77EF9FEF70AFF29E70023A3702370AA
:1013000025E7002B09DA0023237102F0E3F8FFF749
:1013100011F900F095FE02F00BFBA37813F0200208
:101320001FBF03F07F0343F00103A37040230ABFF4
:10133000A270237022702AE7DD07A1D543F00403D1
:101340009DE700BF010C0020200C0020500C002065
:101350002DE9F84F654CFFF74DFEA378002B48D0E0
:1013600002F0E2F890BB624B5D7A1A7A1F6915436E
:10137000604E96F869309B0702D5202003F03CFEB2
:101380004FF000084FF0814AA37893B394F801908E
:10139000B9F1000F2DD1D80715D5217811F0C00073
:1013A0006AD013F0040B14D14146584684F80AB0B1
:1013B00005F07CF9584604F031FAA37823F00203D3
:1013C00043F00403A370FFF715FEDDE7857E876B0E
:1013D000CEE7802912D10B2002F000FF0021484601
:1013E00005F064F9484604F019FAFEF7C9FE63787F
:1013F0000BB1BDE8F88FFFF7FDFDF8E7402906D1F6
:1014000003F0DEFB18B9A37823F02003A370A378C0
:101410001907D8D5DFF8D8B09BF809204AB19A0748
:1014200007D496F869309B071CD5237943F008034D
:1014300023719BF808305BB1A378980708D405F0B6
:10144000400004F0EBF901214FF07E5000F08EF9DE
:10145000A3789907B7D443F010030220A37003F0D8
:1014600025FCB0E7394605F0300005F01FF90121F1
:10147000504600F07BF9DCE7A37A4BB39A0708D516
:101480001B4B5B7AE3B1414605F010F90123A372CF
:1014900099E713F00C0F96D0154B5B7A53B10A20E5
:1014A00002F09CFE96F8693099070BD5237943F03A
:1014B00008032371A37A1A0702D5022003F0F6FB72
:1014C0000023E4E7394605F0300005F0EFF8F1E7D6
:1014D00023791B077FF577AF394605F0300005F01B
:1014E000E5F8237923F0080323716CE7040C00204E
:1014F000500C0020101100202DE9F041454B464EC4
:1015000093F8693013F0080F07D004F0FFF920B109
:1015100001230720337002F061FE337813F081035A
:1015200014D0022002F05AFE012333700024254615
:101530003A4F04F0E1FBFF2817D1FFF751FDFFF709
:1015400007FF7378002BF4D0BDE8F081337003F00F
:1015500037FB30B1324A137843F020031370FFF7A2
:10156000F7FE2E4803F032FBE0E70A2801D00D28F1
:101570002CD1FFF7EDFE96F80180B8F1000FE3D112
:1015800007F8048000F0DAFB15F0010505D00B2008
:1015900002F0FCFD44462546CBE73C781CB92046CA
:1015A00002F0F4FDF7E7242C06D1384603F088FB5F
:1015B00002F0ECFD2C46EEE7337813F0210401D065
:1015C0000920F5E7384600F043FDE9E735B1292861
:1015D000AFD1AB07ADD505F0FD05AAE72028A8D906
:1015E0002F28A6D028280FD03B280FD04E2C0FD85C
:1015F0002346A0F16102D2B2192A04F1010498BF76
:101600002038E4B2F85494E7022592E7042590E7E5
:1016100001258EE710110020040C002098070020FF
:10162000210C002010B5FFF7DBFC064CFFF790FE05
:10163000637833B901F078FF0028F7D12378082BBD
:10164000F4D010BD040C00200020044B044A1860A4
:101650004FF406431380034A13607047445C004014
:1016600088140020405C004070B500F07F052846DB
:101670000E4605F0A1FF0446284605F061FF22460C
:101680000146304604F089FC204670BD2DE9F84F34
:101690000B789146C218C35C06462D2B884618D19C
:1016A00001275378951C00210A460C460846303B1A
:1016B000DBB2092B19D80132D2B2082A10D809B1ED
:1016C000013C64B200EB800003EB400015F8013BE5
:1016D000EDE72B2B12BF551C951C53780027E2E732
:1016E0000029F3D1013464B2F0E7FE2B02D109B92D
:1016F0000121EBE7D2B108F00FFC0021824608F08F
:10170000F7FD48B9DFF85CB0631C12DB19D1504615
:10171000134908F059FC82460FB10AF1004A012230
:10172000AD1B013DC9F800A088F800501046BDE887
:10173000F88F5046594608F047FC0234824664B29E
:10174000E2E7002CE8D0DFF820B05046594608F018
:101750003BFC013CE3B282465CB2002BF5D1DBE7F7
:10176000CDCCCC3D0AD7233C0000204170B50E46BD
:101770000D4908F029FC06F015F808F027FE0B4D7E
:1017800084B27CB16B786BB93EB9FFF7E1FD3220D2
:10179000013C00F0BFFAA4B2F3E7FFF72BFCAB78F3
:1017A0009B07F4D570BD00BF0000A041040C0020D1
:1017B00038B504464FF6FF75013CA4B2AC4200D1E7
:1017C00038BD012000F0A6FAF6E738B50D4601460F
:1017D00008F0FAFB29460446284608F0F5FB0146C6
:1017E000204608F0E9FA07F061FF06F0A3F808F0D8
:1017F0008DFA38BD2DE9F8430026041F2546B14671
:1018000000F1100755F8048F4946404608F070FD76
:1018100040B94146404608F0D7FB0146304608F043
:10182000CBFA0646BD42EDD1304606F0E1F801465E
:1018300006464FF07E5008F07BFC074654F8040F34
:10184000394608F0C1FBAC422060F7D13046BDE814
:10185000F88300002DE9F8430746884600244FF03E
:1018600000090D4D58F824604946304608F040FD07
:1018700060B9314657F8240008F05AFC20F00046C1
:101880002946304608F05CFD00B935460134052C88
:10189000E8D12846BDE8F883FFFF7F7FFEE7000020
:1018A00008B50C4A0C4B0D498B420ED30C480D4920
:1018B0004FF000028842B8BF40F8042BFADB00F07A
:1018C000A1F8BDE8084000F04DBA52F8040F43F803
:1018D000040BE9E714AB00080000002040050020DD
:1018E00040050020CC140020CA782DE9F041D30631
:1018F00048BF8B780E8802F00F0548BF1D4316F0D5
:10190000FF0F1AD000214FF0010C4FF00F0E0368AB
:101910000CFA01F737EA06040BD18C000EFA04F832
:1019200023EA080305FA04F4282A43EA040326D12B
:10193000476101310829EBD10360FF2E1DD908242E
:101940004FF0010C4FF00F0E41680CFA04F737EA24
:1019500006030ED104F18043083B9B000EFA03F806
:1019600021EA080105FA03F3282A41EA03010AD112
:1019700047610134102CE8D14160BDE8F081482A6C
:1019800008BF0761D5E7482A08BF0761F1E74FF6AE
:10199000FF730380022383700423C370704783683E
:1019A000194214BF012000207047806880B2704740
:1019B000C06880B27047416170470AB101617047E9
:1019C00041617047C160704741F480338361816138
:1019D000836183698369704710B50F2401F00303A5
:1019E00001F0FC0101F1804101F580318A689B0022
:1019F0009C4022EA04028A608A689840104388600A
:101A000010BD0000374B82B01A6842F001021A6024
:101A10005968354A0A405A601A6822F0847222F4E2
:101A200080321A601A6822F480221A605A6822F4FE
:101A3000FE025A604FF41F029A6000220092019247
:101A40001A6842F480321A601A6802F40032019275
:101A5000009A01320092019A1AB9009AB2F5A06F69
:101A6000F2D11A6812F4003218BF01220192019AD1
:101A7000012A30D11D4A116841F01001116011682E
:101A800021F003011160116841F0020111605A68F0
:101A90005A605A685A605A6842F480625A605A68BA
:101AA00022F47C125A605A6842F4E8125A601A68AA
:101AB00042F080721A601A689201FCD55A6822F0CE
:101AC00003025A605A6842F002025A605A6802F0F1
:101AD0000C02082AFAD14FF00062054B9A6002B05E
:101AE000704700BF001002400000FFF800200240D5
:101AF00000ED00E000232DE9F743DFF87091DFF8F7
:101B00007081ADF80630D9F80030524A99B21B0402
:101B100011804CD5138803F00F0388F80030002B98
:101B200065D14BF6BF764C4C4C4D23684C4F9BB265
:101B30002B802B8803F030033B802B8803F4405329
:101B40002B802368334083F4005383F0200343F455
:101B5000004343F080032360138813F0100F2368C1
:101B600028D123F4E14323F070031B041B0C2360F2
:101B700005F020FA23682A883340D6042A8848BF13
:101B800083F4805395043A8848BF83F40053D40605
:101B90003A8848BF83F01003900648BF83F02003C3
:101BA00043F4004343F080032B4A9BB2136003B01D
:101BB000BDE8F0839BB2ADF80630BDF806301A05DB
:101BC00008D5236823F070031B051B0D236005F067
:101BD0000BF8CFE7BDF806301B0494D5236823F03B
:101BE00070031B051B0D236005F060F9C2E79A0026
:101BF00002F1804202F5B842116889B2ADF80610D0
:101C0000BDF8061009040AD51168013B21F07001E6
:101C10000905090D1160134A52F823309847BDF8A1
:101C200006301A067FF56FAF98F80020930003F195
:101C3000804303F5B8431968013A21F4E14121F0EA
:101C400070010904090C1960074B53F822309847BA
:101C500059E700BF0C110020005C0040FA0B002087
:101C6000FC0B0020BC000020D8000020445C004099
:101C70006014002070B5064686B04FF44070FFF740
:101C80004BF90125252301A8ADF804308DF8075044
:101C9000FFF74CF9294644F2050000F0A3F94FF490
:101CA0000073ADF8003018238DF803300323184C6F
:101CB000694620468DF80230FFF716FE4FF4806328
:101CC000ADF800300423694620468DF80330FFF755
:101CD0000BFE00234FF44022CDE9033204F54054BB
:101CE000ADF81430A389029643F00C03A38102A936
:101CF000204604F06FFA2A46204640F2255104F0AF
:101D0000C4FA2946204604F0B5FA06B070BD00BFFB
:101D1000000801404FF47A72074B5A6000229A6023
:101D200001221A601A6802F00112012AFAD0002278
:101D30001A609A60704700BF10E000E010B5074CD1
:101D40004FF4005122780648FFF737FE237813F14D
:101D5000FF3318BF0123237010BD00BF1400002003
:101D6000001001402DE9F341002000F0D7F84FF4B6
:101D7000806000F0DDF8002000F0E4F80121102080
:101D800000F030F902238DF8063010238DF807306B
:101D90004FF40053474E0024374602A921F8043D72
:101DA0004548FFF7A1FD4FF4E130FFF763FF03F073
:101DB000ECFB03F0F5FB04F015FD05F00FFA01F064
:101DC00025FA3E4ADFF8F080136823F0040313601D
:101DD00003F038FF02F0D0F8FFF746F802F066FE95
:101DE000002004F097FA14220021354808F046FB41
:101DF00034701C2200213846357808F03FFB6423FC
:101E0000142200212F483570F3713372737208F079
:101E100035FB2D4B2D4D1C702D4B1C702D4B1C700C
:101E20002D4B1C702D4B1C702D4B1C702D4B1C70A2
:101E300004F09EF800F0EEF895F87C0004F06AFAE1
:101E400095F87C0002F098F804F016F903F0C2FC53
:101E500003F012FD04F0C8F801F03CFBFEF76AFB4A
:101E600001F066FD00F0ECF84FF480414046FFF7CA
:101E700096FD012812D01C4D1021284604F021FAAD
:101E800080B94FF44870FFF793FCFFF757FFF3E773
:101E90004FF47A70FFF78CFCFFF750FF01F078F9F0
:101EA0000028F5D002F0DEF9FFF748FFFFF724FB2A
:101EB0009FE700BF040C00200010014010E000E08C
:101EC000380C0020240C0020220C002010110020CF
:101ED0004D0C0020000C0020210C00204C0C002098
:101EE000010C0020200C00200038014008B5012022
:101EF00003F075FB01220020054B06491A60064AD3
:101F0000186010604FF4E0520A801A6008BD00BFEC
:101F1000405C004088140020445C0040034A536841
:101F200023F0F00318435060704700BF00100240D8
:101F3000034A536823F4E06318435060704700BFBE
:101F400000100240034A536823F4605343EAC00080
:101F50005060704700100240014B1860704700BF8E
:101F6000D80042421B4A10B5536803F00C03082BFB
:101F70001FD0194B036053681849C3F30313CC5C9B
:101F80000368E34043605468C4F302240C5D23FA01
:101F900004F484605468C4F3C2240C5DE340C3605D
:101FA0005268C2F3813211440A7CB3FBF2F303613D
:101FB00010BD53685168C3F38343CC0303F102039C
:101FC00002D407494B43D5E751688903F9D4024944
:101FD000F8E700BF0010024000127A001500002050
:101FE00000093D00044B9A6911B110439861704794
:101FF00022EA0000FAE700BF00100240044BDA6951
:1020000011B11043D861704722EA0000FAE700BF1F
:102010000010024008B500216022074808F02EFA9F
:102020000649002001F0F3FD20B9BDE80840072073
:1020300002F0ACB808BD00BF500C0020840C00209A
:102040000149024802F0F4BD380C0020700C002059
:102050002DE9F04F5C229BB081460021AC4808F08E
:102060000DFAAC4BAC4A984603F108051C4603CC6C
:10207000AC4210605160234602F10802F6D120689C
:1020800010602379137199F80030242B4FF000036E
:102090003CD01D468DF8433000242646CDE9094446
:1020A00007949DF8433019F803B0BBF1000F35D108
:1020B00026B1079B002B08BF02230793A70605D56F
:1020C000934BDA6A954B9A4200F32B87E80740F16D
:1020D000F781E10740F106828D4FFB78012B04D197
:1020E00038698F4907F070FF386114F4807F08BFAA
:1020F000D8F81030864F08BF3B643B78042B40F083
:102100000682600600F100821C25DFE0804A01257E
:102110009370032355708DF84330BDE7ABF1410A4E
:102120005FFA8AF2192A00F2EA86013311AA0DF148
:10213000430148468DF84330FFF7A8FA002800F025
:10214000E186119B1846089305F0E0FB08F03EF984
:10215000C7B2384607F0E4FE089B0146184607F070
:1021600029FE704907F030FF05F0A4FBBBF1470FD3
:1021700082B222D0BBF14D0F00F0DC80BAF1190F12
:102180004AD8DFE81AF01701340149004900490034
:102190003B01490049004001490152015B014900EE
:1021A0006001490067016C01710175017A01490004
:1021B0004900490088018F019601282F00F0A58071
:1021C00032D8132F23D8112F79D2042F09D06FD3EF
:1021D0000A2F21D12AB9079B002B40F096860123B4
:1021E00007934B4B07F0FD011C291F7002D05C2F99
:1021F00040F09C800AB10A2A0ED13844187000239E
:102200000A9A1A41D10740F1CD8015255EE01C2FB6
:10221000E0D003D8152F69D9142557E0212F47D0D6
:10222000262F45D01E2FD4E73D2F6AD01BD8352F3F
:10223000D7D011D82B2F01D0312FEDD1079B002BF8
:1022400040F06386312F57D1314B9DF81C209A7195
:10225000032208230792D3E73B2FDDD82C4B363FD0
:10226000DF7109232FE05B2F18D85A2F32D2502F5D
:10227000D2D12749262F4F705AD1A2F114039BB215
:102280001E2BC9D8284820FA03F3D807C4D50A233F
:10229000B2FBF3F2763A4A700123B1E75C2F99D092
:1022A0005E2FB9D81A4BC7F15E079F7005230AE06D
:1022B000079B002B40F0298602230793D9E7144B94
:1022C000113F5F710223002A9AD0172528461BB0C0
:1022D000BDE8F08F22B90E4B5A3F1F7103238FE7E1
:1022E0000A2A99D15A2F97D0042389E7084BC7F1BE
:1022F0001507DF700623E6E70A2A8DD1044B012279
:10230000A5E7002A88D10A237AE70723DBE700BF85
:10231000B00C0020500C0020B10C002080969800DA
:102320003333CB410000C842010410400023CAE708
:102330000123C8E7002AC8D1052F0AD8032F1BD3D1
:10234000042F6F4B21D0052F21D010229A720C231D
:1023500056E7092F0AD8072F694B1AD3082F1DD02B
:10236000092F1DD080225A720D2349E71E2F7FF4BA
:1023700053AF634B1F7202E01FB1012FF9D10B2342
:102380003EE703225E4B1A72F9E72022DEE70022C5
:10239000DCE7042245F48075DA72D8E74022E2E7F0
:1023A0000022E0E7012202FA03F30A9A13439BB2E8
:1023B0000A9376E60D27524B119A46F008065A65A5
:1023C00044FA07F3DA0700F1A68540F261333B4196
:1023D000DB0706D50021119807F094FF002840F094
:1023E0009D85012303FA07F73C43A4B259E6444B09
:1023F000119A46F010069A650E27E1E7404B119AB4
:1024000000271A61DCE73E4B119A01275A61099BAC
:1024100043F001030993D3E7394B119A02279A61DC
:10242000099B43F002030993CAE7354B119A03272E
:10243000DA61099B43F004030993C1E7304B83F849
:1024400028700427BCE7119807F09AFF2C4B05274A
:10245000D862B5E72A4B119A06271A63B0E7284BD2
:10246000119A5A630727ABE7254B119ADA63F9E70C
:10247000234B119A08271A64A2E72249119807F002
:102480005FFF002840F0448502221D4B83F8447012
:102490001A73092794E71A4B119A46F001069A64B9
:1024A0000A278DE7164B119A46F00206DA640B27CD
:1024B00086E7134B119A46F004061A650C277FE74E
:1024C0000F4FBB78012B0FD1079B022B7FF40DAE72
:1024D0007B78502B3FF409AE002B3FF406AEE207A9
:1024E0003FF503AE1625F1E698F80130002B7FF496
:1024F000FCADE3073FF5F1ADD8F814303B61F4E5EE
:10250000B00C002000007F4324F04004A4B27B798B
:10251000002B78D0012B0CBF012300230D930CBF9F
:10252000002302230C930CBF022301230B93FB789F
:10253000012B18D14FF00009B44BDFF8DCB246FA9A
:1025400009F2D2070AD503EB890ADAF8480059469E
:10255000089307F039FD089BCAF8480009F1010902
:10256000B9F1050FEBD1079B032B05D1BB79012BEB
:1025700002D1042E40F0D884DFF8A0C215AFBCE829
:102580000F000FC7DCF800303B600A9B9F4F13F42D
:10259000007F3DD197F80090B9F10A0F48D0B9F10A
:1025A0005C0F00F0A680079B032B1DD0E6B13B79A2
:1025B0004FF000080893964B48279A46DA6DDFF8EB
:1025C0004CB20E9246FA08F3DB0700F1C98007EB24
:1025D0000A0353F8283C47F80B3008F10108B8F11A
:1025E000050F07F10407EDD1B9F11E0F00F0E280ED
:1025F000B9F1350F00F0F980B9F11C0F40F0A88057
:1026000084490620D8E001220221CDE90C218DE782
:10261000F879062801D91D2558E698F80630834236
:10262000B8D015A901F0F3FA0028B3D107254DE67B
:102630000EB91A254AE614F0500F3FF465AD386B19
:1026400005F064F907F0C2FEC0B20628E3D897F897
:102650002830142B05D0022B7FF4DEAD23063FF586
:10266000DBAD002840D00138C3B20893694908980F
:1026700001F0CDFA0028D9D097F8283000270E9322
:10268000634BDFF888919846DA6D0F9246FA07F3AC
:10269000D90718D50E9ABB0003EB090A142ADAF8F9
:1026A00048B023D14344996C186A07F083FB59461C
:1026B00007F080FB022FCAF8140004D10F9907F02D
:1026C00079FBC9F81C000137052FDFD124F0500435
:1026D000A4B24E4B5F789A46502F40F08C80002E6B
:1026E00000F0BA801F25F1E5FB79BEE7CAF814B007
:1026F000E9E7002E9DD048274FF0000BD8F85C305A
:10270000DFF80C91DFF8048108930DF1540A46FAC2
:102710000BF2D2071FD509EB07025AF82B1052F81B
:10272000280C07F047FB58F8071007F043FBBBF1F4
:10273000020F48F8070004D1089907F03BFBC8F8DE
:1027400050000BF1010BBBF1050F07F10407DED1BF
:1027500000230893BDE759F8072048F80720F0E761
:10276000B9F1350F3FF439AF089A57F80B30BAB9C1
:102770000F9315AB5AF8071053F8280007F01CFB0D
:102780000F9B194607F018FBB8F1020F4BF8070032
:102790007FF423AF0E9907F00FFBCBF850001CE736
:1027A0000AEB0702194652F8280C07F005FB4BF814
:1027B000070012E70720174901F029FA00283FF423
:1027C00035AF16B9CDE9076683E700230F491048F6
:1027D00046FA03F2D70704D49A0057180244126A43
:1027E0007A610133052BF3D1B2E7084B5B78012BFB
:1027F000AED91E256AE5079A022A2DD187B913465C
:10280000002E08BF0023079326E000BFB00C002075
:10281000500C0020C40C00203333CB41840C00202A
:102820000021186907F064FD00287FF45BAE8C2F4F
:1028300000F0748108D8022F4AD0032F4AD0012F0C
:102840000AD1002E079BDCE78E2F00F06781C0F0D5
:1028500063818F2F00F0608115F00103079A15BF87
:1028600024F0210424F44874A4B224F0010412B129
:1028700024F4F844A4B2002C40F06283CDE9124461
:102880001494002B00F06C810A9B23F04903002B69
:1028900040F05983AA4B1B78352B02D0002B40F017
:1028A0005283A84CA6492369227A1393637A12A80B
:1028B00013438DF85030FEF765FB054600287FF482
:1028C00005ADA14E20340FCE0FC433682360FDE464
:1028D00045F00405002E3FF4ACAE01230B9A03FA39
:1028E00002F90C9A934049EA030916EA090F00F02D
:1028F0001E830B9B0B9ADFF84CB2123308325BF845
:1029000022105AF8230007F055FA0C9B0C9A123348
:10291000083207465BF822105AF8230007F04AFAFB
:1029200014F08003804600F08F8024F0800414228D
:1029300085490BF12000A4B207F06EFD08B92125EE
:10294000C4E49AF80330DAF83C00012B04D17F4943
:1029500007F03AFBCAF83C00DFF8E4A14FF08141F0
:10296000DAF83C90484607F02FFB494607F02CFB6D
:1029700039468146384607F027FB0146484607F0AE
:1029800019FA41468146404607F01EFB014648467B
:1029900007F010FA0021814607F0B4FC002840F04F
:1029A000C982484606F082FE04F0C4FF8346894689
:1029B00038464146FEF709FF06F078FE09F1004966
:1029C0000B4602464946584606F0F2FF07F09EF9CC
:1029D0009AF80130DFF868A1032BDAF83CB08146A1
:1029E0004FF0000108BF00F10049584607F08AFC8B
:1029F00028B10BF1004B09F10049CAF83CB00B9B20
:102A00004146484603F1040B07F0DEFA014638461A
:102A100007F0D0F94FF07C5107F0D6FA0C9B0AEB87
:102A20008B0B0433CBF80400394648460AEB830A83
:102A300007F0CAFA414607F0BFF94FF07C5107F0A2
:102A4000C3FACAF8040007E7099A19EA020F00F06E
:102A500074829AF8032024F00E04012AA4B217D13C
:102A60009946DFF8F8A0DFF8E4B0099B43FA09F3D0
:102A7000D90706D5DAF80000594607F0A5FACAF8D2
:102A8000000009F10109B9F1050F0AF1040AECD1BE
:102A90000C9BDFF8ACA003F104090AEB8909D9F813
:102AA0000410404607F086F983460B9B384603F135
:102AB00004080AEB8808D8F8041007F07BF9594697
:102AC000FEF783FED9F804100746D8F80400FEF795
:102AD0007CFE0146CAF83C008046384607F06AF999
:102AE00020F000471A49384607F02AFC00283FF436
:102AF000B3AE4FF07C51384607F022FC00287FF43B
:102B00001EAF1449404607F05FFA394607F0FAFB5A
:102B100000283FF4A1AE12E745F010057237FFB26E
:102B2000012F98BF45F00805002E3FF482AD142216
:102B30000549094807F070FC00287FF48DAEFEE6D9
:102B4000B00C0020500C0020F80C00203333CB4197
:102B50000AD7A33B6F12833A700C0020C40C0020EC
:102B6000AC4BAD4C93F86930AC4F13F0020F0ED064
:102B70007B78013B022B88BF45F04005002E00F01A
:102B8000DD80079B022B40F0D98045F08005FB6A71
:102B9000E361BB78637013B108238DF850303B6953
:102BA000D7F84080636141462069129307F0A0FB8B
:102BB00005F0400608B1AA060BD5607A38B12B069D
:102BC00005D4002E00F0CE80002103F0B1FD3B6C57
:102BD00023610EB92369139397F84430B87A2376AA
:102BE000637A834204D0139903F0A2FDBB7A637227
:102BF0009DF85030627A787A13438DF85030237AFA
:102C0000834206D002F028FE7B7A002B40F0AC8095
:102C100023729DF85030227AE80543EA02038DF8CA
:102C2000503015D5F87AA37A834200F0A08003F0E3
:102C3000B1FAFB7A012B1CBFA27A1343A3729DF851
:102C40005030A27A25F480751343ADB28DF8503020
:102C5000387BE37A834200F0988003F0ABFA3B7B49
:102C6000002B40F08F80E3729DF85030E27A1343DE
:102C70008DF850303B78042B02D1386B02F0B2FB58
:102C80007B792371FB78A370079B032B0DD1BB7954
:102C900063710BB900233B653E6DE06D314607F073
:102CA00027FB10B9E66501F0ABFFFB79A2799A42E8
:102CB0000BD05B4E0DF1540CA371BCE80F000FC696
:102CC000DCF80030336001F09BFF3B79E3703B7828
:102CD000262B00F0998060D81C2B7BD01E2B79D03E
:102CE0000A2B63D07B78502B23700FD0079A022ACF
:102CF0000CD1012B40F0A88012A94A4802F096F9A5
:102D0000494D484E0FCE0FC533682B603D7AE571B3
:102D1000002D3FF4DBAAFEF785FCE379032B434B40
:102D200040F0C4801B78022B04D0082001F0BEFFC5
:102D3000FEF70EFB0025E571FFF7C8BA637A102B8A
:102D40007FF425AF237805F04002013B022B05D824
:102D5000002A3FF41CAF45F0200518E7002A7FF455
:102D600016AFF8E7414630E7227A134350E7590798
:102D70007FF565AF184603F00DFA0423A372012313
:102D8000FB725CE7E27A13436DE79A077FF56CAF5D
:102D9000184603F00FFA002365E75C2B4AD0662B38
:102DA0004CD0282B9ED1204907202FE0204908989D
:102DB00000F008FEA379089A934293D1184EDFF8E9
:102DC00070C0BCE80F000FC6DCF80030336001F0C3
:102DD00017FF87E79DF8503043F001038DF850301E
:102DE000079B1BB112A90F4802F020F912A9104845
:102DF00002F01CF90C4EDFF838C0BCE80F000FC61B
:102E0000DCF8003033606DE70620074900F0DAFD9A
:102E100068E700BF10110020500C0020B00C00200B
:102E2000840C0020F80C0020700C0020040C002002
:102E3000C40C0020454EDFF820C1C2E71422002157
:102E4000424807F01BFBC2E733B99DF8503043F00E
:102E500001038DF850304FE7023B012B12D80D9B38
:102E6000C5F3800503930C9B049502930B9B384A92
:102E70000193FB6B12A90093364B03F1340002F06F
:102E80000BF93DE79DF85030EAB243F0040312A974
:102E900031488DF8503002F0D5FA00283FF430AFB9
:102EA00001287FF433AFFFF7CBF82FE7642200252A
:102EB0000126DA711A725A721B782571022BE5709D
:102EC0002680A5712581A67215D02449284600F0D8
:102ED0009EFE00283FF4AAAB01F092FE0021284696
:102EE00003F0E4FB284602F099FC304603F034F985
:102EF000284603F009F9082001F070F91AE70125C6
:102F0000FFF7E4B90225FFF7E1B91825FFF7DEB9AD
:102F10002625FFF7DBB91925FFF7D8B90425FFF7F8
:102F2000D5B91B25FFF7D2B92525FFF7CFB9202545
:102F3000FFF7CCB92225FFF7C9B92325FFF7C6B99A
:102F40002425FFF7C3B91025FFF7C0B9980C00205E
:102F5000700C0020C40C0020F80C0020840C002011
:102F6000034B9B7A13B10522024B1A60704700BFD6
:102F700064140020E80700200422014B1A60704707
:102F8000E8070020034B1A78202A04BF00221A7099
:102F9000704700BFEC07002070470000212810B5E3
:102FA0000BD1114B1B681B7803F07F03212B19D029
:102FB00000220E4B02205A6013E02028F8D10A4B61
:102FC0001B681B7803F07F03212B084B1870EFD18F
:102FD000074B0024044A20461268936154829847A4
:102FE000204610BD034BF4E784140020EC070020BA
:102FF0005130000839300008094B1A68137803F083
:103000007F03212B0AD1022806D0222806D1D378AB
:10301000044A03F001035360002070470220704708
:1030200084140020EC07002021B901288CBF022065
:10303000002070470220704720B90822024B1B680D
:103040001A82704701487047841400202C00002029
:10305000FFF7F2BF10B5002402F0C2FA044B1B6860
:103060009C72FEF743FFFEF7EFFA024B1C6010BDA7
:1030700084140020E807002010B50024324B334AA6
:103080001B68D2795C815A72204604F085F94FF4AE
:103090000071204604F088F91021204604F092F9CE
:1030A0004021204604F02EFA8021204604F01AFA2E
:1030B000204604F0EFF9264B204693F8341004F034
:1030C0005BFA204604F0C3F92146012004F06CF9B4
:1030D000C021012004F006FA2021012004F072F939
:1030E0002146012004F087F94FF4C061022004F06A
:1030F0005BF94FF48071022004F0F4F921460220BC
:1031000004F079F92021022004F05CF92146032023
:1031100004F04AF94FF48871032004F0F3F94021D8
:10312000032004F029FA4FF44051032004F063F91E
:103130002146032004F046F9204603F01BFF01223C
:10314000044B1A6010BD00BF841400209BA8000827
:103150002C000020E8070020014903F017BD00BF44
:1031600064000020014903F011BD00BF6C00002085
:10317000054B1B68DB78042B04D8044901EBC30121
:1031800003F004BD00207047841400207400002068
:10319000054B1B68052B05D1044B5868003018BF40
:1031A0000120704700207047E8070020EC0700204E
:1031B0002DE9F041114804F043F804281CD14FF6E2
:1031C000FF750E4C0E4E0F4FA31903F17843A3F574
:1031D000FE33198807EB0408A94202D0204604F008
:1031E0004FF8B8F80010A94202D0A01C04F048F82B
:1031F000054B04349C42E7D1BDE8F08100FC010896
:103200000C0D00200E11FE17000002080C4A30B50C
:1032100010460C4B0C4C1D7803F178410133A1F59D
:10322000FE31A3425554F6D113780A2B06D0002361
:10323000FF22C2540133B3F5806FFAD130BD00BF15
:103240000C0D002000FC010800000208014B185C76
:10325000704700BF0C0D0020014B1954704700BF90
:103260000C0D0020F0B400242346094D2F18A24273
:1032700004D115442B54F0BCFFF79ABF33B9DB09D6
:103280000E5D33443E55DBB20134F0E70123F7E72E
:103290000C0D00200A4B10B5194400230244904243
:1032A00011F8014F03D11B1B5842584110BD2BB9D7
:1032B000DB092344DBB200F8014BF0E70123F8E718
:1032C0000B0D002070B5164C164E2268164D92B2AA
:1032D0003280298832880A40910509D54FF6FF537C
:1032E000124A236013780133DBB2137004F048F8FC
:1032F0002A88338813401A0401D5FEF7FBFB338874
:103300002A8813405B0509D54FF6FF332360084B2D
:103310005B689847BDE8704004F03CB870BD00BFE2
:10332000445C00400C11002088140020F4070020A9
:10333000340000202DE9F04F5E4D85B02C786F7879
:10334000002C08BF1024013CE4B2A7426FD03C26F9
:1033500006FB0458D8F82810D8F82490084606F040
:103360002BFDD8F82C1006F02FFE8046014648466B
:1033700006F0C8FF00B1C846002C06FB04F608BFE3
:103380001024013CE4B2AB19A742C3F82080DFF857
:1033900028912FD04FF03C084E446B78A3422FD099
:1033A000002C274608FB049A08BF102495F8C43364
:1033B000013CE4B2A34201D1FDF702F908FB075733
:1033C000D7F824B0386A594606F092FF80B9B96A36
:1033D000084606F0F1FCF96A06F0F6FDF16906F020
:1033E000EBFC06460146584606F0AAFF10B33E62C3
:1033F0005646D2E795F8C433BB4201D1FDF7E0F859
:1034000095F801A03C260AF10104E4B2102C08BF93
:1034100000244FF0000806FB0A9B2B780293029BC6
:10342000A3420AD1B8F1000F01D085F801A005B080
:10343000BDE8F08FC7F820B0DAE706FB04F709EB28
:1034400007030393DBF81C302F4400933B6A00987A
:103450001946019306F056FFB0B1DBF82410084678
:1034600006F0AAFCDBF8281006F0AEFD009906F085
:10347000A3FC83460146019806F062FF20B1A246F4
:103480004FF00108C7F820B006FB0452516A106AD9
:1034900006F02EFF002818BFA24604F10104E4B292
:1034A00018BF4FF00108102C08BF0024DDF80CB045
:1034B000B5E700BFF8070020FC070020002201212B
:1034C000034B83F8C4231A7083F8C5135A707047EE
:1034D000F807002008B52C220021034806F0CEFF93
:1034E000BDE80840FFF7EABFC00B0020084B93F887
:1034F000C4131A788A420AD04A1CD2B2102A08BFD2
:103500000022587883F8C423884208BF5A70704755
:10351000F80700203C20034B1A1D1B7800FB0320FA
:10352000704700BFF8070020054B93F8C4031A78D2
:1035300082421DBF3C22043302FB00300020704752
:10354000F8070020084A92F8C43311780133DBB23F
:10355000102B08BF002399421DBF3C2101FB032310
:10356000186A0020704700BFF8070020044B93F84A
:10357000C40393F8C533C31A58425841704700BF7B
:10358000F807002038B5837E0546DA07446B15D569
:10359000164B187A06F0C4FC154906F015FD0146D5
:1035A000204606F011FD04464FF07E51204606F0FD
:1035B000C7FE08B94FF07E54204638BD5B070BD4D8
:1035C0000A4BD87906F0ACFC094906F0FDFC01462F
:1035D000204606F0F9FC04462D6B2146284606F0ED
:1035E00091FE0028E0D02C46DEE700BF040C00204E
:1035F0000AD7233C2DE9F84F4FF03C081A4DDFF86D
:103600006CB095F8C44395F8009005F1040AA14503
:1036100003D1C5F8F0B3BDE8F88F08FB04F60AEB58
:103620000600FFF7AFFF01460746584606F06AFE60
:103630002E44B0B15946584606F0C6FC706208FBED
:103640000456D6F830B0706A594606F079FE08B1D3
:10365000C6F824B00134E4B2102C08BF0024BB46E5
:10366000D5E739463846E7E7F8070020FFFF7F7FB8
:103670002DE9F04FA34C3C22A1468A4619F8046B71
:1036800099B002FB06F5A94401900021484606F0D6
:10369000F5FE9AF80830DAF8042025440DF1240BE1
:1036A000AB77EA635D4613F0020F14BF964F04F543
:1036B00072770FCF0FC53B6800272B603C2303FBBD
:1036C0000648924A019B52F8271053F827000292AD
:1036D00006F07AFC05F0EAFF03F0D6FF5BF827104E
:1036E00004AB43F82700401A80EAE075A5EBE075CB
:1036F00049F82750D8F818102B468D4238BF0B4692
:10370000C8F81830039306F00BFC029A0EAD52F87D
:10371000271006F00DFD002145F8270006F0F2FD08
:10372000039B38B17A4AB8F81C1052F827200A4394
:10373000A8F81C200137052FC3D1002B00F0DE8034
:103740004FF03C082846FEF755F808FB0648294686
:10375000C8F82C006F48FEF77DF82946C8F8280005
:103760006D48FEF777F898F81E70C8F83400F9072E
:1037700050D5C8F83800227894F8C4334FF0000AC6
:103780009A4202D017F002074FD03C2303FB0643B6
:10379000C3F820A0C3F830A03C2707FB0647BB7F37
:1037A0009B0735D44846FFF7EDFED4F8F0938046EA
:1037B0000146484606F0A6FD002800F09C804946D8
:1037C000484606F001FC3C2303FB06467862376B53
:1037D000706A394606F0B4FD00B177624F4E0FCDE6
:1037E000C4F8F0830FC62B68354604AE45F824397B
:1037F0000FCE0FC533682B6094F8C53323700133A7
:10380000DBB2102B08BF002384F8C533FFF792FD0D
:10381000012074E0DAF800103A07C8F83810AAD589
:10382000D8F82C0006F0D0FBA3E7D0460DF14C0BE6
:103830003B4B3B445A69EB5910461946039301929E
:1038400006F0C2FB0146404606F0B4FA019A039B1B
:1038500080461146184606F0ADFA4BF807000437CB
:10386000142FE5D12F49404606F06AFD18B13C23DC
:1038700003FB06438EE72C49404606F043FD28B182
:103880003C2303FB0643294A1A6385E75846FDF7A4
:10389000B1FF59461F48FDF7DDFF414682464FF014
:1038A0007E5006F087FA4FF07C5106F08DFB05F054
:1038B000FDFE04F03FF806F029FA0746029B504649
:1038C000996D06F081FB394606F07EFB394680464D
:1038D0004FF07E5006F06EFA0146404606F028FC96
:1038E0000021074606F00EFD00B100273C2303FB34
:1038F00006431F6350E74146404662E7184619B049
:10390000BDE8F08FF8070020380C002010110020CF
:1039100024A500083811002024110020D40B002019
:10392000C00B0020EFFF7F3FEFFF7FBFFFFF7F7FD8
:10393000084A094B1168C3F8C8135168C3F8CC137F
:103940009168C3F8D013D1681269C3F8D413C3F8CF
:10395000D8237047380C0020F8070020064B1A784F
:1039600093F8C4339A422CBF03F10F0003F1FF30E8
:10397000801AC0B2704700BFF807002008B5FCF7F6
:103980001FFE044B93F8C4235A70BDE80840FFF7AC
:10399000D1BC00BFF807002038B505460C46FDF73E
:1039A00041FE512303FB05F02146BDE8384050227B
:1039B00000F54070FFF756BC0146502240F2AE3091
:1039C000FFF750BC38B505460C46FDF72BFE152316
:1039D00003FB05F02146BDE83840142200F50070D5
:1039E000FFF740BC08B50A210020FFF735FCBDE811
:1039F0000840C02201490120FFF734BC101100200B
:103A000030B5C30787B0044672D56422524B534881
:103A1000C3E92022524A534DDA661A67FA22A3F804
:103A20007420514ADFF890C19A670522A3F87C20E0
:103A30004E4ADFF888E1C3E916024FF07E52C3E92F
:103A400018524FF4A442A3F86820032283F86A2096
:103A5000474AC3E9002202F54032C3E902221A6153
:103A6000444AC3E905C2C3E907225A62424AC3E98C
:103A70000AE2C3E90C229A63404ADA6302F568124B
:103A80001A64A2F5B002C3E91122DA643C4A1A654D
:103A900041F6FF72A3F85420042283F88820394AA3
:103AA000C3F88C20384AC3F89020384AC3F89420D1
:103AB000374AC3F89820374AC3F89C20364AC3F8DF
:103AC000A020364AC3F8A420354AC3F8A820354AB6
:103AD000C3F8AC20344AC3F8B020344AC3F8B42049
:103AE000334AC3F8B820334AC3F8BC20FFF77AFF43
:103AF000A1070CD51422002101A806F0BFFC002567
:103B0000E8B201A90135FFF75DFF082DF8D1620782
:103B100013D500214FF44070FFF79EFB002140F2C7
:103B20000130FFF799FB002140F25130FFF794FB81
:103B3000002140F25230FFF78FFB230709D5002107
:103B400040F2AE30FFF788FB002140F2AF30FFF7C4
:103B500083FB07B030BD00BF101100200AD7233C03
:103B60000000FA4400007A44000020406F12033B3A
:103B700000001D4300409C4580CB244B000066C3E1
:103B80000A0001009AED35469AB94A449AC9FE44A2
:103B9000CD8A0F46CD882A468647703CAA461E41EC
:103BA000C184093CD71339C07FF9253DA720924332
:103BB000B00A123E2DD2AF4400803B4600BADB4B28
:103BC00070B50D46512141430646502201F5407122
:103BD0002846FFF75FFB044630B928702946304677
:103BE000FFF7DAFE204670BD0120FCE738B5502211
:103BF00040F2AE310546FFF74DFB044628B9287068
:103C00002846FFF7D9FE204638BD0120FCE770B5F5
:103C10000C46152141430646142201F50071204649
:103C2000FFF738FB054658B9002330462360636030
:103C3000A360E36023612146FFF7C4FE284670BD00
:103C40000120FCE708B50020FFF700FB0A2808D197
:103C5000C02201210448FFF71DFB003018BF0120DE
:103C600008BD0020FCE700BF1011002038B50C464D
:103C700005460021204606F045FB002840F07281F1
:103C8000632D34D9A5F16403DBB2042BC2B225D86D
:103C9000032A06D8DFE802F002090E1B9F4A42F809
:103CA0002340FFF79FFE002038BD9C4A02EB8303B0
:103CB0005C61F6E79A49204603F10A0506F084F9AB
:103CC000974906F081F9954B43F82500E9E7934AB7
:103CD00004F1004402EB8303DC63E2E7092B40F2CA
:103CE00043810130052800F03F810A3BCCE72046A4
:103CF00003F00CFE06F06AFBC0B2352D00F23481F1
:103D0000DFE815F036003D00410047004B0057004A
:103D10006100700074007B008200860089008C00C6
:103D2000320132013201320132019A00A100AE00AB
:103D3000BC00C600CA00CD00D000D400D7003201BC
:103D4000E100E600E90032013201320132013201C4
:103D500032013201F300F700FB00FF00030107010D
:103D60001001140118011C012001240128012C015B
:103D7000022840F2FB80694B83F8500091E7674BC3
:103D800083F854008DE7654B83F85100FCF79AFBEC
:103D900087E7624BA3F85200F8E7604A92F869306F
:103DA00020B143F0040382F869307AE723F004037A
:103DB000F9E75A4A92F8693010B143F04003F2E74C
:103DC00023F04003EFE7554A92F8693038B163F0C9
:103DD0007F03002082F8693002F0F2F861E703F017
:103DE0007F03F6E74D4B83F87D005AE7204606F047
:103DF000EDFA4A4BC3F8800053E7204606F0E6FA96
:103E0000464BC3F884004CE7444B83F8550048E721
:103E1000424B9C6545E7414BDC6542E73F4A92F8DF
:103E2000693030B143F0010382F8693000F0E8FEF8
:103E300037E723F00103F7E7204606F0C7FA374BD0
:103E400083F868002DE7354A92F8693028B1D90621
:103E500040F18E8043F02003A5E723F02003A2E782
:103E60002E4A92F8693030B143F0080382F8693085
:103E700001F002FD15E723F00803F7E7274A92F85F
:103E8000693010B143F010038DE723F030038AE767
:103E9000224B83F86A0004E7204BDC6601E71F4BE6
:103EA0001C67FEE61D4BA3F87400FAE61B4B9C67EB
:103EB000F7E6204606F08AFA184BC0B283F87C0079
:103EC00002F028FAEDE6154B1C6693F87C00F7E744
:103ED000124B5C66F9E7114A92F8693010B143F071
:103EE000020360E723F002035DE70C4B83F88800D0
:103EF000D7E60A4BC3F88C40D3E6084BC3F8904092
:103F0000CFE6064BC3F89440CBE6044BC3F8984089
:103F1000C7E6024BC3F89C40C3E600BF1011002067
:103F200000007042134BC3F8A040BAE6114BC3F82F
:103F3000A440B6E60F4BC3F8A840B2E60D4BC3F859
:103F4000AC40AEE60B4BC3F8B040AAE6094BC3F851
:103F5000B440A6E6074BC3F8B840A2E6054BC3F849
:103F6000BC409EE604209FE603209DE606209BE6DB
:103F70000A2099E61011002008B5FFF763FE48B942
:103F8000072000F003F9FF20FFF73AFDBDE80840E5
:103F900000F07AB908BD0000014803F03AB800BF4C
:103FA00029A7000808B55D2001F064FEBDE80840BF
:103FB000FFF7F2BF10B50446202001F05BFE282079
:103FC00001F058FEE31F192B3ED8DFE803F00D1770
:103FD000191B1D1F213D3D3D3D3D232527292B2D2F
:103FE0002F3133353D37393B2D4803F012F8292066
:103FF00001F040FEBDE81040FFF7CEBF2948F4E7CE
:104000002948F2E72948F0E72948EEE72948ECE794
:104010002948EAE72948E8E72948E6E72948E4E7A4
:104020002948E2E72948E0E72948DEE72948DCE7B4
:104030002948DAE72948D8E72948D6E72948D4E7C4
:104040002948D2E72948D0E70023A4F16400C0B290
:104050000928DCB203F1010306D804280AD8DFE8F6
:1040600000F0060F111315000A38C0B2F0E720481F
:1040700002F0CFFF032CBAD8DFE804F00A0C0E10D0
:104080001C48F5E71C48F3E71C48F1E71C48EFE73C
:104090001C48AAE71C48A8E71C48A6E71C48A4E758
:1040A0004CA500085DA5000877A500088FA50008AD
:1040B00093A500089BA50008A3A50008ACA50008CF
:1040C000C4A50008CCA50008D4A50008DBA50008FD
:1040D000E6A50008EEA50008F6A50008FFA5000863
:1040E0000AA6000820A6000828A6000830A6000896
:1040F0005AA60008FDA5000836A6000838A6000844
:104100003AA600083CA6000844A600084CA60008F1
:1041100054A60008014802F07CBF00BF5CA600085E
:1041200038B50546002455F8240003F02FF8042C78
:1041300002D02C2001F09EFD0134052CF3D138BDB6
:1041400010B50446242001F095FD204602F06AFFD8
:10415000BDE810403D2001F08DBD10B50C46FFF7C5
:10416000EFFFE0B202F05EFFBDE81040FFF714BFC2
:1041700038B50C461546FFF7E3FF2946204602F006
:10418000A1FFBDE83840FFF707BF000010B50446A7
:1041900020B9BDE81040064802F03BBF054802F0D8
:1041A00038FF204602F03EFFBDE81040FFF7F4BEA6
:1041B0005FA6000864A6000810B50446064802F091
:1041C00028FF204602F02EFFFFF7E6FEBDE8104074
:1041D0004FF4FA70FDF7ECBA6BA6000810B5044670
:1041E000144802F016FF601E0A280AD8DFE800F023
:1041F000060D0F11131517191B1D1F000E4802F095
:1042000008FFBDE81040FFF7C7BE0C48F7E70C48B1
:10421000F5E70C48F3E70C48F1E70C48EFE70C48EA
:10422000EDE70C48EBE70C48E9E70C48E7E70C48FA
:10423000E5E700BF72A6000878A600088AA6000875
:104240009EA60008B0A60008B8A60008C1A60008EF
:10425000CCA60008D9A60008E1A60008F4A600082C
:1042600006A7000808B54FF4FA70FDF7A1FABDE8FB
:104270000840014802F0CDBE0FA70008014802F037
:10428000C8BE00BF2CA700082DE9F843804C0020D1
:1042900094F85010FFF761FF94F854100120FFF7D5
:1042A0005CFF94F851100220FFF757FFB4F852104A
:1042B0000320FFF752FF94F869100420C1F3800136
:1042C000FFF74BFF94F869100520C1F38011FFF749
:1042D00044FF94F969100620C90FFFF73EFF94F8D8
:1042E0007D500720FFF72CFF284602F0C3FEFFF7A2
:1042F00053FE0720FFF75EFED4F880500820FFF73A
:104300001FFF284602F0B6FEFFF746FE0820FFF723
:1043100051FED4F884500920FFF712FF284602F01E
:10432000A9FEFFF739FE0920FFF744FE94F8551067
:104330000A20FFF712FF0322A16D0B20FFF718FFE1
:104340000322E16D0C20FFF713FF94F869100D2094
:1043500001F00101FFF701FF94F868501320FFF707
:10436000EFFE284602F086FEFFF716FE1320FFF749
:1043700021FE94F869101420C1F34011FFF7EDFEFF
:1043800094F869101520C1F3C001FFF7E6FE94F818
:1043900069101620C1F30011FFF7DFFE94F86A10D0
:1043A0001720FFF7DAFE0322E16E1820FFF7E0FE88
:1043B0000322216F1920FFF7DBFEB4F874101A20D6
:1043C000FFF7CBFE0322A16F1B20FFF7D1FE94F86D
:1043D0007C0005F0A1FD002201461C20FFF7C8FE6D
:1043E0001C20FFF7E7FD0022216E1E20FFF7C0FE14
:1043F0000022616E1F20FFF7BBFE94F86910202099
:10440000C1F34001FFF7A9FE64260027DFF884907E
:104410000025032F10D8DFE807F0021A233003220B
:1044200006EB050854F825105FFA88F84046FFF7B8
:104430009FFE4046FFF7BEFD0135052DE9D10A3646
:10444000F6B20137962EFFB2E2D1BDE8F88306EB53
:10445000050804EB85035FFA88F803225969E5E74C
:1044600004EB85034946986A05F062FE06EB0508F1
:104470005FFA88F803220146D8E704EB8503D96B7D
:1044800006EB05085FFA88F801F100410322CDE749
:1044900010110020000061457FB50B4802F0B9FD06
:1044A0000A4901A800F0C4FB01A8FFF739FE3A2031
:1044B00001F0E0FB064B587902F0B4FDFFF772FD06
:1044C00007B05DF804FB00BF76A70008240C0020AD
:1044D000040C00202DE9F0410025234E234FDFF886
:1044E000A48086B0ECB201A92046FFF790FB50B93A
:1044F0001F4802F08EFD072002F094FDFFF74CFDEF
:1045000006B0BDE8F081304602F083FD062C07D0EE
:10451000072C27D004F13600C0B202F083FD02E080
:10452000384602F076FD3A2001F0A4FB013501A8DF
:10453000FFF7F6FDFFF736FD082DD3D10D4802F049
:1045400068FD0D48FFF7ECFDFFF72CFD0B4802F06E
:1045500060FD0B4BD86D02F019FEFFF723FDFFF74E
:104560009BFFCDE74046DCE77CA700087FA700085B
:1045700064A6000885A70008980C00208BA70008F7
:10458000500C002082A7000810B5484C484802F0A3
:1045900040FD20788B2805D9464802F03AFD207866
:1045A0007630C0B202F03EFD434802F032FDA07901
:1045B0003630C0B202F036FD3F4802F02AFD2079C5
:1045C0001130C0B202F02EFD3B4802F022FDA0786F
:1045D000C0F11500C0B202F025FD374802F019FD08
:1045E000E0785A30C0B202F01DFD334802F011FDF0
:1045F0006078C0F15E00C0B202F014FDE37973B1DF
:10460000FFF788FDE079032806D01E2801D0022894
:1046100005D102F007FD02E0302001F02BFBFFF78F
:1046200079FD637A102B04D0202B38D023B93520A4
:1046300000E0332001F01EFBFFF76CFDA37A23B1ED
:10464000FFF768FD362001F015FBFFF763FD237AC5
:104650003BB31A0604D5FFF75DFD372001F00AFBD6
:10466000237A5B0604D5FFF755FD382001F002FBE5
:10467000124802F0CEFC207E02F0D4FC104802F07A
:10468000C8FC606902F096FD0E4802F0C2FC206989
:10469000002102F017FDBDE81040FFF783BC342075
:1046A000C8E7FFF737FD3920E0E700BF500C0020D6
:1046B00091A7000897A700089BA700089EA70008DD
:1046C000A1A70008A4A7000838B505460C4608486D
:1046D00002F09FFC284602F0A5FC3D2001F0CAFA3A
:1046E000204602F096FCBDE83840FFF755BC00BFFD
:1046F000A7A7000838B505460C463E2001F0BAFAD7
:10470000284602F086FC3A2001F0B4FA2046BDE8C3
:104710003840FFF73BBD000010B504461B4802F0CF
:1047200078FC204602F075FCFFF73CFC184802F0CC
:1047300070FC204602F06DFCFFF734FC154802F0D7
:1047400068FC204602F065FCFFF72CFC124802F0E2
:1047500060FC562001F08EFA4D2001F08BFA5A20B1
:1047600001F088FA4C2001F085FA2C2001F082FA41
:104770000F2002F057FC2C2001F07CFAFE2002F002
:1047800051FCBDE81040FFF70DBC00BFAAA7000810
:10479000BEA70008DEA70008FBA700082DE9F04F20
:1047A000AD4D91B001AC0FCD0FC42B680DF11808C1
:1047B000236001A94046A94C00F03AFA3C2001F0E0
:1047C00059FA2378082B00F0BB8000F29A80012B65
:1047D00000F0BC80C0F0B080022B00F0B980042B48
:1047E00000F0B2809E4B93F85570994617F0010780
:1047F00000F0C080237B002B00F0BC80994802F0C1
:1048000008FC4046FFF78CFC99F855309A070ED506
:10481000954802F0FEFBFFF7A1F802F003FC2C2004
:1048200001F028FA01F0FEF9C0B202F0FBFB8F485C
:1048300002F0EFFBFCF7C6FA02F0BCFC2C2001F002
:1048400019FA0021206902F03DFC01F05FF80646EC
:1048500000F06EF9054601F0D1FB46EA050303437B
:1048600013F0FF0F07463AD0814802F0D2FB17B190
:10487000502001F0FFF9C6B1F30702D5582001F02E
:10488000F9F9B70702D5592001F0F4F9700702D5FC
:104890005A2001F0EFF9310702D5412001F0EAF981
:1048A000F20602D5422001F0E5F9C5B1EB0702D5C9
:1048B000442001F0DFF9AF0702D5522001F0DAF908
:1048C0006E0702D5482001F0D5F9280702D55320FC
:1048D00001F0D0F9E90602D5462001F0CBF9237B9F
:1048E000002B6DD0013B2373E37A002B7AD0013B80
:1048F000E3723E2001F0BEF9FFF74EFB11B0BDE8B8
:10490000F08F202B1ED010D8102B7FF46BAF94F9B2
:104910000230002B16DB574802F07BFBA378DE0742
:1049200024D5302001F0A6F95CE7402B12D0802B73
:104930007FF458AF504800E0504802F06AFB51E75E
:104940004F48FAE74F48F8E74F48F6E74F48F4E793
:104950004F48F2E74F4802F05CFBA3781D0701D5F2
:104960003320DFE7580703D59906DAD53120D9E798
:104970003220D7E70025484E0DF12C0BD6F85CA06D
:10498000443656F8100C56F8041F05F015FA022D9F
:104990004BF8250003D1514605F00EFA0D903FB9B2
:1049A00058F825005BF8251005F004FA48F82500B2
:1049B0000135052DE5D1002F7FF420AF37481EE7E4
:1049C000237813F07C0F14BF1D2313232373E37A82
:1049D0000BB90123E372324802F01BFB0BA8FFF76F
:1049E0009FFB81E723782F4813F07C0F14BF13231C
:1049F0000E23E37202F00DFBE07902F013FB2C2092
:104A000001F038F9207A02F00DFB2C2001F032F988
:104A1000607A02F007FB01F05BFC054600F0B8FE8F
:104A2000044615B900283FF464AF1F4802F0F1FABC
:104A30002DB1012D0CBF5320432001F01BF9E207DB
:104A400002D5462001F016F9A3077FF552AF4D209D
:104A500001F010F94DE700BF380C0020040C0020D5
:104A60001011002039A8000847A800084CA8000829
:104A700051A8000812A8000833A8000809A80008D7
:104A80000EA8000818A800081CA8000821A8000803
:104A900027A800082DA80008500C002040A80008F6
:104AA00056A800085CA8000861A8000830B50121DC
:104AB00085B00920FDF796FA48238DF8033040F6BB
:104AC000A953022504A921F8103D18488DF8025079
:104AD000FCF70AFF05210120FCF77EFF03210120DE
:104AE000FCF77AFF07210120FCF776FF082101205F
:104AF000FCF772FF4FF4D4730293002301248DF866
:104B00000C300C2302A88DF80D308DF80E4001F00A
:104B100021FE40F2172301A8ADF804308DF80650AD
:104B20008DF80740FCF702FA05B030BD000C0140DB
:104B300008B50C48FCF739FF88B180F48073C3F3E3
:104B40000023820658BF43F00203010758BF43F019
:104B50000403020601D443F00803D8B208BD03469B
:104B6000FBE700BF000C014008B54FF4D47001F022
:104B700033FEFFF7DDFF40B1830707D500F0C6FC29
:104B80004FF400020C4BC3F8802108BD010705D586
:104B90000A4A137843F002031370F1E7420704D581
:104BA000064A137843F00803F6E7C307E8D5034A3B
:104BB000137843F02003EFE700E100E0210C002030
:104BC00008B5FFF7B5FF00F0010008BD38B5044691
:104BD000002521462846FEF7F3FF40B90721207043
:104BE0002046FFF787FD05B138BD0125F1E72378A1
:104BF000002BF8D02046FDF72BFA0146F0E7000025
:104C000008B5FCF70FFD0022014B1A7308BD00BF69
:104C1000040C002010B50C4650F8210005F080F976
:104C2000024B53F8241005F083FA10BD1011002038
:104C300070B505460E460024A1B23046FFF7EAFFE4
:104C400045F824000134052CF6D170BD2DE9F84358
:104C5000814600240027144D95F86A8059F8246095
:104C600048FA04F3DB073946304611D505F04AFB14
:104C7000C0B905EB8403D86B314600F1004005F064
:104C800041FB78B90134052CE8D10020BDE8F88358
:104C900005F056FB30B905EB84033146D86B05F0BF
:104CA0004FFBEEE70120F1E71011002072B6034A36
:104CB00013781843107062B6704700BF210C0020B3
:104CC0007FB5012344780546432C8DF8073003D087
:104CD0000BD884B1242C58D1AD78D5B9432C3CD015
:104CE0001DD8242C29D0002407E04A2C08D0582CA9
:104CF000F2D0472CEFE7FFF7C1FA204604B070BDB1
:104D0000A74B1B7813F0DF0F40F0488183783D2BD1
:104D100001D00324F1E7FDF79BF90446EDE7472CAA
:104D200014D0582CDFD19E4D2B78012BDBD1FFF70F
:104D300047FF044620B30D24DFE7994B1C7814F09D
:104D4000180440F02B81FFF79FFAD6E7944B1B78AD
:104D5000002BC8D0FFF718FCC5E7914B1C78022C3C
:104D600005D100F0D3FB0520FFF738FABBE7002C94
:104D700040F01481022204201A70FFF72FFABCE7DA
:104D80000320FFF72BFA2C70B7E7854E3378012B01
:104D900000F20481492C62D005D8232C28D0482C5D
:104DA0002CD00024A9E0522C77D0532C47D04E2C85
:104DB000F7D10222AC788DF80720002C40F09A80C1
:104DC00029462046FEF7FCFE002800F08B8029468D
:104DD0002046FFF779FC29460120FEF7F1FE044644
:104DE000002800F0838029460120FFF76DFC7AE758
:104DF000AC78002C8DD1FFF76DFB7EE7694B93F803
:104E00006930DB0640F1C880FFF7DAFE002892D156
:104E100004233370AB78002B7FF47BAF00F0F4FAFF
:104E20007478002C7FF45FAF3470FBF7A9F9AB788E
:104E3000002B7FF458AF2846FFF7C8FE5DE7AB783C
:104E40004C2B7FF466AFEB78502B7FF462AF2C795C
:104E5000002C7FF45EAF8020FFF728FF4DE7022390
:104E6000AC788DF8073034B92846FEF7BFFE2846E7
:104E7000FFF752FC41E73D2C7FF44BAF0323EC5C82
:104E8000EA18013302F8034CDBB2002CF7D12846B4
:104E90008DF80730FEF790FD2FE7AB78532B7FF4AA
:104EA00038AFEB78542B7FF434AF2B793D2B7FF464
:104EB00030AFAB79002B7FF42CAF6B79242B06D06D
:104EC0002A2B0DD0232B7FF424AF022000E00120F9
:104ED000FEF796FD0920FFF781F900F017FB02E7C6
:104EE000FF20F5E70720FFF751F974E70720FFF7E8
:104EF0004DF902E7002B51D1012402AA0DF107015F
:104F00002846FCF7C3FB08B90224F6E69DF80730F3
:104F10005A1CEB5CD2B23D2B8DF807207FF4F9AE22
:104F2000E4B11346EC5C981AE9182C540978013363
:104F3000DBB20029F6D128468DF80730FDF788F856
:104F4000044600287FF4D9AE029802F0DFFC05F099
:104F50003DFA2946C0B2FEF71FFDCEE603AA0DF1C9
:104F600007012846FCF792FB0028CDD09DF80730BA
:104F7000EB5C002B7FF4CDAE029C0B49204605F084
:104F8000DFF900287FF4C5AE204605F01FFA03992B
:104F9000C0B2FEF76BFEC0E60524AEE60824ACE620
:104FA000040C00201011002000007F4372B6034A59
:104FB000137823EA0000107062B67047210C0020BD
:104FC00072B6034A13781843107062B6704700BF78
:104FD0004C0C002072B60022014B1A7062B670476A
:104FE0004C0C002072B6034A13781843107062B656
:104FF000704700BF010C002072B6034A13781843B3
:10500000107062B6704700BF200C002072B60022FC
:10501000014B1A7062B67047010C002072B6002274
:10502000014B1A7062B67047200C0020F8B5174C7F
:10503000074694F869200D4612F0200F144E04D054
:105040003378202B01D000F0CDFD3378022B1BD01C
:10505000FCF77EF97378BBB9FEF788FA10B1FBF75D
:10506000BFFFF5E729463846FEF702FB60B994F822
:1050700069309A0708D52B7ADB0605D569681020B8
:10508000BDE8F84001F054BBF8BD00BF101100208E
:10509000040C0020000000002DE9F04F1C46924651
:1050A0008FB09DF86C309DF8645003939DF870307C
:1050B00054F825700493AB001A44CDE90110E318AD
:1050C0005AF8251038460892099304F075FE9DF8A9
:1050D000688005904FEA88030AEB0302E31854F84E
:1050E00028405AF8281020460A920B9304F064FED8
:1050F000029B0599069053F8250004F05BFE029B85
:105100000546069953F8280004F054FE07F10047BD
:1051100083462946384604F057FF04F10044804690
:105120005946204604F050FF0146404604F044FE34
:1051300004F0BCFA804689463846594604F044FFDC
:1051400029468346204604F03FFF0146584604F0B6
:1051500031FE04F0ABFA4B464246189E02F0E8FBE3
:1051600004F0D4FD049B0546002B48D004F09EFAC1
:1051700093A3D3E900238046894604F075FD48B126
:1051800091A3D3E900234046494604F02FF904F0E7
:10519000BDFD0546904B3146D3F85C80304604F0A7
:1051A0000BFE414604F006FE414604F00DFF04F0FC
:1051B0007DFA02F0BFFB8046894628464FF07C51BD
:1051C00004F002FF314604F0FFFE20F0004004F03E
:1051D0006DFA42464B4604F0EBFB04F097FD02F0FB
:1051E00025FB05F0F3F81FFA80FBBBF1000F19D186
:1051F000DDE901100FB0BDE8F04FFFF717BF04F075
:1052000055FA73A3D3E900238046894604F022FDB2
:105210000028BFD06CA3D3E900234046494604F0E0
:10522000E7F8B4E7019B58461E7A04F079FE33078D
:10523000804609D5019B0146186804F0C5FE019B14
:1052400026F0080618601E724146284604F070FFDA
:10525000039B06460AEB83030493039B5AF823102F
:10526000DDE9023253F8220004F0A4FD414604F0C7
:105270005FFF31460C90304604F0A6FE01464FF029
:10528000804004F097FD55490546304604F09CFEE9
:105290004FF081418046284604F08EFD014640468D
:1052A00004F092FE4FF07C510390284604F08CFEEF
:1052B00001254FF000080790ABB29B4598D9B8F193
:1052C0000B0F3FD80399384604F07EFE07998146BC
:1052D000204604F079FE0146484604F06DFD07992A
:1052E0008146384604F070FE03990746204604F0D4
:1052F0006BFE0146384604F05DFD4C46074608F15A
:1053000001085FFA88F80599384604F055FD089BB6
:1053100006991860204604F04FFD0A9B0C9918600E
:10532000049B0135186804F047FD049B019918603F
:105330005046FFF77BFE2A4B5B78002BBCD00FB0AA
:10534000BDE8F08F284604F0EBFD314604F03CFE4A
:1053500004F0ACF98046894602F04EF904F0D6FC20
:1053600049460446404602F0D5F904F0CFFC099BBB
:105370000B9A1B68814603F1004318462146D2F878
:1053800000800D9304F020FE49460746404604F095
:105390001BFE0146384604F00FFD0D9B49460746AB
:1053A000184604F011FE21468146404604F00CFEEA
:1053B0000146484604F0FEFC4FF000080446A2E710
:1053C0008DEDB5A0F7C6A0BE182D4454FB211940A1
:1053D0008DEDB5A0F7C6A03E10110020ABAA2A3E65
:1053E000040C002010B5074B04461B78022B07D095
:1053F000FCF718F92046BDE810400021FCF7B6B9CB
:1054000010BD00BF040C002008B500F077FA07209B
:1054100000F0ECFAFBF79CFF084B5B786BB9FCF7EC
:105420000FFEFEF785FA4FF4406001F0D5F94FF416
:105430008072034BC3F884215A6008BD040C00201D
:1054400000E100E02DE9F8432C4C0646237889461C
:10545000022B904627464FD0FCF7E4F8657815B14B
:105460000220BDE8F883C8F3C000657100F0A8FD14
:1054700000F0C4FD40B10420FFF7A2FDFBF768FF78
:10548000284600F09DFDEBE730464946FFF7CEFD8C
:1054900001231B4E02203370FFF708FCFBF758FF77
:1054A0007B78002BDCD13B78002BF7D13378012BB4
:1054B0001FD118F0100F18D0124C134D0FCD0FC480
:1054C0002B6823600020307000F07AFDFBF740FF6E
:1054D000FBF730F8FDF7FEFFFEF72AFAFEF7DCFFD8
:1054E0007879003018BF0120BBE70520FFF768FD81
:1054F000E8E701237B71E5E70020B2E7040C002018
:10550000220C0020240C0020380C002008B5114B80
:105510001B78DB061DD41020FFF7C8FB00F0E4FE6B
:1055200000F048F90C4A137813F02C0F03D11279CC
:1055300012F0060F0DD0042B09D1084B1B7813B9BC
:105540000620FFF73DFDBDE80840FAF719BE03202D
:10555000F7E708BD210C0020040C00204C0C0020B3
:10556000002370B51E46050FECB2092D94BF3034F0
:10557000373401F8134001EB430401336670DCB2A9
:10558000A2424FEA0010EED870BD08B50020FCF72B
:10559000E3FCBDE8084001214FF40000FCF72EBDFC
:1055A00037B54FF4C060FBF7B7FC00254FF48A73A2
:1055B000012401A8ADF804308DF806508DF807409D
:1055C000FBF7B4FC4FF4957301A8ADF804308DF8E7
:1055D00006508DF80740FBF7A9FC03B030BD7047BB
:1055E000094B10B518685C6808331B68C0180AD0EE
:1055F00008220649FFF7B4FF2046BDE81040042208
:105600000349FFF7ADBF10BDE8F7FF1FF60000200C
:1056100006010020224A038890429BB212D002F574
:10562000006290420ED0B0F1804F0BD0A2F59832BC
:10563000904207D002F58062904203D002F580626A
:10564000904203D14A8823F070031343154A9042D5
:1056500008D002F5806290421FBF23F44073CA88CD
:105660009BB2134303808B8883850B8803850C4B87
:1056700098420FD003F5006398420BD003F54063C6
:10568000984207D003F58063984203D003F5806306
:10569000984201D10B7A038601238382704700BFB1
:1056A000002C014000100040038C70B523F480539F
:1056B0001B041B0C0384038C8488828B0D8822F4CA
:1056C000E6421204120C42EA052223F400530D892B
:1056D0004E881B0435431B0C43EA05330B4DA4B223
:1056E000A84292B29BB203D005F50065A84205D14D
:1056F0008D8924F4804444EA8514A4B28480828392
:10570000CA88A0F84020038470BD00BF002C01406F
:10571000038819B143F001030380704723F00103AC
:105720001B041B0CF8E7838912B119438181704770
:1057300023EA0101FAE7038923F007031B041B0C8A
:1057400003817047038819B143F0800303807047D9
:1057500023F080031B041B0CF8E7838B23F4006306
:105760001B041B0C43EA012189B281837047038922
:1057700023F080031B041B0C03810389194301815F
:105780007047A0F840107047C94389B20182704742
:1057900010B50748FCF70CF9C0F380140448FCF777
:1057A00007F9C30648BF44F00204204610BD00BFFD
:1057B000000C014010B5064C002220464021FCF7A9
:1057C000FCF82046BDE8104000221021FCF7F5B897
:1057D000000C014037B501210820FCF703FC02232F
:1057E0008DF80630502310250B4C02A921F8043DFA
:1057F00020468DF80750FCF777F82046002240211C
:10580000FCF7DBF8002229462046FCF7D6F8FFF724
:10581000D1FF03B030BD00BF000C014038B50C4CC7
:105820000546627822B920B9FFF7C4FF0023E3726E
:1058300038BD420604D5012240210648FCF7BDF8D8
:105840002B06F3D5012210210248FCF7B6F8EDE74C
:10585000040C0020000C014010B5064B04461B78D8
:10586000022B06D0FBF7DEFE2046BDE81040FFF716
:10587000D5BF10BD040C00201FB51E4B93F8693036
:105880001B0730D50A210120FCF7A6F80B210120C7
:10589000FCF7A2F80A210120FCF79EF80A2101205A
:1058A000FCF79AF80A210120FCF796F84FF44063C0
:1058B0000293002301248DF80C300C2302A88DF8EC
:1058C0000D308DF80E4000F045FF4FF40A73ADF82F
:1058D0000430032301A88DF806308DF80740FBF74C
:1058E00025FB04B010BD4FF48072034BC3F8842035
:1058F000F7E700BF1011002000E100E04FF48072D4
:10590000014BC3F88420704700E100E038B510482F
:10591000FCF74BF803460F4A92F8692052065CBF29
:1059200080F440639BB28BB10022012410460A49E7
:1059300051F822502B421CBF04FA02F5284302F111
:10594000010218BFC0B2052AF2D138BD1846FCE7E3
:10595000000C01401011002038A5000808B54FF4D4
:10596000806000F02BFF18B14FF4806000F034FF2E
:105970004FF4006000F022FF18B14FF4006000F017
:105980002BFF4FF4806000F019FF18B14FF48060D6
:1059900000F022FF4FF4806000F010FF18B14FF4C8
:1059A000806000F019FF4FF4806000F007FF18B12D
:1059B0004FF4806000F010FF4FF48072084BC3F882
:1059C0008421084B1B78012B09D0074B1B7833B976
:1059D000FFF79CFDBDE808400120FFF7F1BA08BDC4
:1059E00000E100E0040C00204C0C00202DE9F04FF9
:1059F000744B8FB05C7882469846002C40F0A880AB
:105A000006234FF00009CDE906446F4D6F4E704FED
:105A100008948DF8203055F8242004A90A554AFA34
:105A200004F2D0074FEA84030AD533443946D86BD1
:105A300004F0CAFA4946834604F064FC00B9D9462A
:105A40000134052CE7D104230127604D0193D5F8DB
:105A500070B009AB18465F490393FFF7E9F80020DF
:105A60000646014695F86A3009F1004C0293039B03
:105A70004AFA01FE1EF0010F18D00024554A0130E9
:105A800042F82140029AC0B242FA01FE1EF0010F14
:105A900003D027B143F821C003E0002FFAD043F828
:105AA000219004AA12F801E046EA0E060131052908
:105AB000DED104F031FA01F09BFF88F80660014660
:105AC000584604F081FA06A9069009A8FDF7D0FD12
:105AD000042388F80430FAF78BFDFAF717FBDFF898
