:020000040800F2
:10000000882B0020E5180008EB730008ED7300084A
:10001000EF730008F1730008F3730008000000009C
:10002000000000000000000000000000F573000860
:10003000F773000800000000F9730008FB73000864
:10004000E1180008E1180008E1180008E1180008AC
:10005000E1180008E1180008E1180008E11800089C
:10006000E1180008E1180008E1180008E11800088C
:10007000E1180008E1180008E1180008E11800087C
:10008000E1180008E1180008E1180008E11800086C
:10009000FD730008E1180008E1180008D5490008C0
:1000A000E1180008E1180008E1180008E11800084C
:1000B0001902000851040008E1180008E1180008BE
:1000C000E1180008E1180008E1180008E11800082C
:1000D000E1180008B55C0008E1180008E118000804
:1000E00019580008E1180008E11800080000000095
:1000F0000000000000000000000000000000000000
:1001000000000000000000005FF808F110B51F4C6F
:100110004FF4004194F849201D4812F0040218BF22
:10012000012201F068FC94F830201A4902EB8202A7
:100130000B6B02EB82020B61D343CB81164B188809
:1001400040F001001880188840F0800018809A85DF
:10015000022201201A8500229A8498829A890243F9
:100160009A811A8842F004021A804FF000530B4A19
:10017000C2F88030CB6A4FF080415B68013B9BB294
:100180008B854FF080538882136010BDF00F0020E4
:1001900000100140400500200004004000E100E0A4
:1001A0004FF08052164B10B5C3F880200022154C3A
:1001B000154B94F8340083F83420144AFF28117842
:1001C00015D1134B1B7803F0FF0283B9802910D09F
:1001D00094F849305B0748BF82F0010202B1012266
:1001E000BDE810404FF400410A4801F004BC042966
:1001F00003D001F0F9FA0122EAE70022E8E700BFA4
:1002000000E100E0F00F0020400500200C0B002072
:10021000440B0020001001402DE9F8434FF08045C9
:100220002B8ADF0740F1F5802B8A814E23F00103F2
:100230001B041B0C2B820023AB8496F8343034460D
:10024000002B40F0E6807B4801F0CEFB716920F482
:10025000F07021F4FC414004400C21F01F010143E7
:1002600089B2744801F0CCFB734B01271A884FF018
:10027000005942F001021A801A88DFF8D08142F05A
:1002800080021A806D4A6B4892F8302002EB82029D
:1002900002EB82029A8502221A859F829A893A434A
:1002A0009A81C8F8009001F09FFB316920F01F008F
:1002B000014389B25F4801F0A3FBC8F80090D6F86B
:1002C0002C8086F83470B8F1000F3ED1F38E328F57
:1002D0009A4200F0A0800C23F18E06F13C024B43C1
:1002E0001A4433441B6CF262013B9BB2AB85284637
:1002F000394605F05AF9F26A1368B384107A96F811
:10030000263083420ED01423434306F1CC01194416
:100310003344D3F8D83086F82600FB40C6E90133D1
:10032000B1623360A36AD4F8A801198A41406161BF
:10033000517A1868C840A06158689B68C840E0615D
:10034000CB405089236206F06FF83D4B1B78012BA0
:1003500001D105F045FE0023A06A22682361A3694C
:10036000C1681A448A4222600CD90123521A2260C1
:10037000344A058A23611368AE064CBF03F1FF338C
:10038000013313606268E3691A44914262600ED2DD
:100390002369521A62602B4A43F00203058A2361E3
:1003A00053686D064CBF03F1FF3301335360A368FC
:1003B000226A13449942A3600ED222695B1A42F06A
:1003C000040222611F4A018AA360936809064CBF98
:1003D00003F1FF33013393601B4B1A78042A01BFEA
:1003E0009B79226913402361A38C013B9BB2A384B8
:1003F00043B9E362E38E0133DBB20C2B08BF002369
:100400009BB2E3862369226B53402361002384F867
:100410003430BDE8F883FFF7C3FEB36A9B7C13B1A9
:10042000404606F001F8BDE8F843042004F06ABB3A
:10043000400500200008014000040040F00F0020AB
:100440002A0B0020380B00200C0B002000E100E0FC
:10045000104A08B5138ADB071AD5138A0E4823F011
:1004600001031B041B0C13824FF000520B4BC3F80B
:10047000802001F0B9FA0A4B20F01F00196BBDE88B
:10048000084001F01F01014389B2034801F0B8BAE6
:1004900008BD00BF000400400008014000E100E08A
:1004A0004005002000232DE9F04117491C4691F832
:1004B0003170B1F832C01D4619461846134A144E21
:1004C0001363C2F8A83106F10C0E47FA03F818F0CE
:1004D000010F18BF56F823504CFA03F81CBF2843ED
:1004E000012518F0010F18BF5EF8234003F1010346
:1004F0001CBF21430124032BE7D105B110630CB1CC
:10050000C2F8A811BDE8F081F00F002040050020DE
:1005100018A3000838B51F4CFFF742FE382200210F
:1005200004F5D67009F0AEFE00213022204609F015
:10053000A9FE00230122184DA4F8E821E386C4F89F
:10054000E431238784F83430FFF7ACFFD4F8A831C6
:100550002846636101F048FA216B20F01F0001F08A
:100560001F01014389B2284601F04AFA284601F0EA
:100570003BFAD4F8A81120F4F07021F4FC414004B7
:10058000400C21F01F01014389B22846BDE83840E4
:1005900001F036BA400500200008014038B50A4C89
:1005A000D4F8E45175B194F8AD31D4F8C81143F0E2
:1005B000010384F8AD31084609F00AFC00236861A4
:1005C000C4F8E43138BD00BF400500202DE9F04FEC
:1005D000B04B8DB01B79DD0700F13283DFF8B8B284
:1005E000BBF83620BBF8E811914200F02983DBF814
:1005F000E421002A52D1A74F3A79540740F1DA801A
:1006000002F0A8FFCBF8E401DBF8E441002C00F095
:1006100017839BF8AD61F00740F1CF8000228BF883
:10062000AD210023DBF8E461CBF8C431D6F81C809F
:100630004FF07C50414609F07FFC3A79044612F0B5
:100640000201356A00F0328102228BF8C0217669FE
:100650000146304609F0BCFB0146284609F0AEFAD7
:100660000021044609F052FD002800F00D814146AA
:10067000404609F0A5FA294609F0AAFB0146304692
:1006800009F09CFA08F016FF07F058F809F042FA52
:10069000CBF8D0013A7942F008023A71BBF8383011
:1006A0000C22194601937C4B02FB0132DBF8E4314A
:1006B0009BF8AC1102931B6A82F844101846DBF8D1
:1006C000BC11089309F07AFA00210A9009F01EFD86
:1006D00008B100230A93DBF8D431DBF8CCA10493F2
:1006E000DBF8D83104990593DBF8C43105980693FB
:1006F000DBF8D031DBF8C8419BF8C081099309F0E1
:10070000FBFC002800F09E814FF002030027DBB2C3
:100710000B930023BB46614EDDF8209003930796B0
:10072000B8F1010F00F0DD81029B3046D969C0F0BD
:10073000A281B8F1030F40F0F18109F049FB0746AF
:100740005146204609F03AFA394609F0E9FC0028FA
:1007500000F07B810499089809F030FA014609F00D
:100760002FFA21460546504609F02AFA0146284646
:1007700009F0E2FB012706465446BB46B846049DF5
:100780003146039809F01CFA03900146079809F0D6
:10079000DBFC002800F0F4810399079809F00EFAB9
:1007A00029460646069809F0B1FC002800F0EE81C3
:1007B000A946B5E702F0D8FE24E79BF8AC21142146
:1007C0000132D2B20B2A08BF00228BF8AC214A4377
:1007D000314B334D218A15441A44A2F8DC102168AC
:1007E000E068C900C2F8CC106168CBF8EC51C900D0
:1007F000C2F8D010A168C900C2F8D410C100C2F874
:10080000D81009F08DFA216ACBF8B40109F094FBF5
:100810000146CBF8B801234809F08EFB00233A7952
:10082000CBF8BC019107CBF8B03101D4320721D508
:10083000DBF8D01126F00806CBF8C811084609F0FD
:10084000C7FA8BF8AD6160610022AA74164A92F86B
:10085000492093077FF5E5AEA27C96067FF5E1AED1
:10086000E16A4FF07E5009F067FB0122CBF8DC0112
:10087000AA74D6E6606908F01DFE06F05FFF09F075
:1008800049F9CBF8C801DFE70023CBF8C441CBF826
:10089000D031FFE60C0B0020400500205304E9385E
:1008A0000C0600200000A03FF00F002050078BF83E
:1008B000C011CBF8D45147D500239846CBF8D0319E
:1008C000DBF8E40102F07EFE0146029009F080FAB6
:1008D000DBF8E43105465E69014630460193D3F802
:1008E00020A009F031FC00284AD02946304609F002
:1008F00065F9214609F06CFA0146504609F05EF9A7
:100900000021CBF8D40109F00BFC48B30222019B73
:100910008BF8C021D969084609F052F9514609F00F
:1009200057FA0146304609F049F908F0C3FD06F0D0
:1009300005FF09F0EFF89BF8AD21CBF8D00142F0AC
:1009400008028BF8AD21A5E602F01CFE804608F0F7
:10095000B1FD06F0F3FE09F0DDF8CBF8D001AFE70A
:100960004146284609F02AF9214609F031FA0322C6
:10097000029BCBF8D801CBF8CC318BF8C02189E6AB
:100980004146304609F01AF9214609F021FA51464C
:1009900009F016F94FF07C5109F01AFA002181464E
:1009A00009F0D2FB002845D04946504609F0CCFB5F
:1009B00000283DD04146284609F000F9214609F0BB
:1009C00007FA4946CBF8D80109F0A0FBC0B1029B59
:1009D0002946CBF8CC31304609F08EFB08B1012214
:1009E000CBE73146284609F0E9F8214609F0F0F94D
:1009F0000146DBF8D40109F0E1F8CBF8D40149E66F
:100A0000019BCBF8D491D969CBF8D891084609F06D
:100A1000D7F8494609F0DCF9414609F0D1F808F069
:100A200049FD06F08BFE09F075F8CBF8CC0131E6F4
:100A30000222A2E70023DBF8D021CBF8D431CBF897
:100A4000CC2127E64FF0010360E64FF07C51384699
:100A500009F0BEF90146204609F0B0F8314609F028
:100A6000B7F90146484609F0A9F805463946204637
:100A700009F0A4F832E009F0ABF94FF07C510746D9
:100A800009F0A6F9214609F09BF8314609F0A0F9D2
:100A90000146484609F092F805460146049809F0D7
:100AA00053FBB8B10499089809F088F8014609F099
:100AB00087F821460546504609F082F80146284647
:100AC00009F03AFA012706465446DDF82C80049DC9
:100AD000BB4655E63946204609F072F80446012720
:100AE0004EE63146504609F073F90146484609F092
:100AF00065F805460146059809F026FB00283FF4F5
:100B00003FAE0599484609F059F8514609F014FAE4
:100B1000C3460646059D4FF0020831E609F058F934
:100B20002146074609F0F2FAB0B14FF07C51384641
:100B300009F04EF90146204609F040F8314609F027
:100B400047F90146484609F039F805460146069836
:100B500009F0DCFA002889D10699484609F02EF8F8
:100B6000014609F02DF821460546099809F028F8B4
:100B70000146284609F0E0F9099C0646069DAEE7C5
:100B80000A99284609F0E0FA00285CD17E4BBBF1B7
:100B9000000F01D083F8C0810FB1C3F8C8417A4C6F
:100BA0007A4FD4F8EC3126469A7C12B93B79190772
:100BB0001CD5029B9B7C13F030034BD0029BD3F8D7
:100BC000308052B1D4F8DC11D4F8C80109F000F932
:100BD0000146404609F0FCF88046404605F044FCDA
:100BE000A4F8E0013B7923F008033B710C23019A40
:100BF000D4F8B81103FB0263B4F8E0212846A3F847
:100C00004620029309F0E4F8824606F0CFFC8046C5
:100C1000D4F8B40106F0CAFC4146814608F0CEFF84
:100C200009F0D8FA029B1FFA80FBC3F83CB0BBF175
:100C3000000F14D13B799A0711D543F001033B71A2
:100C40000DB0BDE8F08F5249079808F0B9FF03993D
:100C50000790A3E50022A4F8E0313A61C2E7D4F896
:100C6000B011039808F0ACFF51460290484608F0D6
:100C7000A5FF029B0146184609F05EF9454B464A1E
:100C80001B688146B3FBF2F05043029309F048F829
:100C9000494609F09DF8414909F09AF806F086FCAA
:100CA00009F098FA4FF4FA62029BB3FBF2F2824227
:100CB0003BD90C23019A03FB0263002283F84520F1
:100CC0000C23019AB0F5803F03FB02632ABF4FF665
:100CD000FF7218641A64B4F8E8315146238701336F
:100CE0009BB20C2B08BF0023A4F8E831D4F8E43100
:100CF000C4F8B4811D62404608F060FF494609F01F
:100D000067F82946C4F8B001D4F8C40109F0F4F931
:100D100000283FF463AC002128463C7909F014FA1E
:100D200048B344F001043C718AE74FF47A62B3FBA4
:100D3000F2F2824211D90C23019A03FB02630122D1
:100D400083F845200C22019B02FB036292F8453098
:100D5000D8400BFA03F3D363B2E74FF4FA52B3FB74
:100D6000F2F383424FF00C03019A03FB02638CBF42
:100D700002220322E4E714F00403D2D1C6F8E431DE
:100D800002F0D4FB2AE400BF400500200C0B002039
:100D90005304E9380000002040420F000000704278
:100DA000044B1B7813F07C0F1ABF034BD3F8C80118
:100DB000002070470C0B00204005002030B5013AA0
:100DC00085B00446ADF8042000220139ADF80810C2
:100DD00001A91D46ADF80A20ADF8062004F038FB45
:100DE0000121204604F0F9FB0121204604F0DDFB3F
:100DF00001222046114604F0B4FB0121204604F0F4
:100E0000A5FB4FF4407000F09DF8B4F1804F0ED177
:100E10001C238DF80030012368468DF801508DF8B1
:100E200002308DF8033000F097F805B030BD054B67
:100E30009C4201D11D23ECE7034B9C42EBD11E23C6
:100E4000E7E700BF00040040000800402DE9F3413F
:100E50004FF4004702244FF0100802AD334E012139
:100E6000102001F0E5F825F8047D294630468DF87C
:100E700006408DF8078000F059FD0121042001F0A3
:100E8000D7F848F2FF13294629482A4DADF8043017
:100E90008DF806408DF8078000F048FD3946304651
:100EA000002200F0A8FDEB694FF0804043F0010301
:100EB000EB6101231A461946FFF780FF0121204606
:100EC00001F0C2F8EB692343EB611B4B1A8842F037
:100ED00001021A801A8842F001021A801A8842F030
:100EE00080021A80154A92F8302002EB820202EB4F
:100EF00082029A8500221C859A849A8942F0010216
:100F00009A811A8822F0040202FA08F222FA08F200
:100F10001A804FF000520A4BC3F880204FF08052E5
:100F2000C3F8802002B0BDE8F08100BF001001408E
:100F3000000801400010024000040040F00F0020B3
:100F400000E100E040F0BF60024B40F40030D860A8
:100F5000704700BF00ED00E070B50125017801F099
:100F60001F039D40C3784C09C3B10F4BDA68437827
:100F7000D243C2F30222C2F1040603FA06F68378D2
:100F80000F2020FA02F213403343084A1B01DBB260
:100F9000114481F8003342F8245070BD034B2034D3
:100FA00043F82450F9E700BF00ED00E000E100E065
:100FB00038B50B6905460360037A01F1480443F034
:100FC000040303720F4B93F849309B0610D4294653
:100FD0000D4D204603F04AFF2C7884B902F0C4FA84
:100FE00068B120232B70FFF7F1FAFFF78FF807E0C5
:100FF000204603F057FD0028E9D00F2400E000242C
:10100000204638BDF00F00200C0B002008B502F080
:10101000ABFA20B1BDE80840022003F073BD08BD63
:10102000F8B5374B374C1B78374E03F0FF0593B1BB
:1010300001272846013D277003F026F8BD4208D855
:10104000384603F033F8102003F0D0FE3378DF0683
:10105000FCD503F0DFFE337803F0FF05002B00F032
:10106000AF80EE0602D501236370F8BDE80704D512
:1010700003F0E6FA012003F0B9FE15F0E80F59D0AD
:1010800023786EB2990747D113F0280F10D0A378B8
:1010900013F0C00F0CD1FFF781FA022323712378DC
:1010A000202B05D1002E07DBA37863F07F03A3700C
:1010B00023780BB90122A2706A0605D59F065EBF90
:1010C000A27842F04002A270280704D513F0E00F86
:1010D00004BF10232370A9061ED5062002F0E6FFE8
:1010E000A3781A0614D42278402A0FD11F0704D5FA
:1010F00023F01C0343F00203A3704023237007E096
:10110000440B00200C0B0020290B0020802AF4D176
:10111000A37843F02003A370002E08DA2378012B74
:1011200002BFA37843F00503A37080232370E82057
:1011300003F05CFEA80723D515F0680F1DD12378B6
:10114000402B07D1A37813F0200203D1D90640F138
:10115000D38022702378002B00F0D480DF060CD5DA
:10116000A278D60709D5102B40F0CC80A37A002BAB
:1011700000F0C88043F00803A372022003F036FE9B
:1011800068071DD5227894F9023012F0D00F00F0D4
:10119000D480E278002A40F0D080002BC0F2CF80CB
:1011A00002F004FC2379990748BFA27823F00603D4
:1011B00044BF42F00102A2702371042003F016FE26
:1011C0006E4B1B7803F0FF05002B37D003F03EFE7B
:1011D000E07915F0010F0CBF03466423AA0748BF4E
:1011E0000A336F0744BF0A3B9BB22E0744BF01334B
:1011F0009BB2E90644BF03F1FF339BB2FF2B28BF2C
:10120000FF230A2B38BF0A23217A15F0200F14BFC1
:1012100064220A4615F0400F18BF322215F0800FE5
:1012200018BF1922984201D18A4207D0E3710023E6
:101230002272E37202F0FEF902F0B8FB504B1B7809
:1012400003F0FF06002B4ED003F008FE627A16F082
:10125000010F0CBF13466423B70744BF0A33DBB248
:10126000750744BF0A3BDBB2300744BF0133DBB232
:10127000F10644BF03F1FF33DBB2C82B28BFC823FC
:101280000A2B38BF0A239A4206D0637200232279C0
:10129000E37242F008022271B706227806D5102ABE
:1012A00004D1A37A002B63D10223A37216F0C00FDE
:1012B00019D012B112F0180F15D0324F30063D7A06
:1012C00005D529064CBF05F07F0545F0800572065F
:1012D00005D56B064CBF05F0BF0545F04005284617
:1012E00004F0FAF93D72237813F0FC0F3FF4BDAE21
:1012F000BDE8F840FFF76AB95A0744BF43F0080356
:10130000A37027E70023237102F02EF970B1A378B0
:1013100013F040030AD12020A37003F067FD0823D7
:101320002370FFF753F9FEF7F1FE26E7202003F0C4
:101330005DFD0023A37023701FE7002B09DA002353
:10134000237102F0E7F8FFF7E5F800F09FFE02F0E6
:101350000DFBA37813F020021FBF03F07F0343F0BF
:101360000103A37040230ABFA2702370227024E7F8
:10137000DD079BD543F0040397E700BF090B00206E
:10138000280B0020480B00202DE9F84F654CFFF793
:1013900047FEA378002B48D002F0E6F890BB624BE2
:1013A0005D7A1A7A1F691543604E96F849309B079B
:1013B00002D5202003F040FD4FF000084FF0814A95
:1013C000A37893B394F80190B9F1000F2DD1D80709
:1013D00015D5217811F0C0006AD013F0040B14D198
:1013E0004146584684F80AB005F088F8584604F09B
:1013F00073F9A37823F0020343F00403A370FFF70B
:101400000FFEDDE7857C076BCEE7802912D10B202C
:1014100002F04CFE0021484605F070F8484604F002
:101420005BF9FEF7BDFE63780BB1BDE8F88FFFF7FF
:10143000F7FDF8E7402906D103F0F2FA18B9A378CE
:1014400023F02003A370A3781907D8D5DFF8D8B00C
:101450009BF809204AB19A0707D496F849309B07B0
:101460001CD5237943F0080323719BF808305BB146
:10147000A378980708D405F0400004F02DF9012165
:101480004FF07E5000F08EF9A3789907B7D443F05F
:1014900010030220A37003F035FBB0E7394605F0D6
:1014A000300005F02BF80121504600F07BF9DCE715
:1014B000A37A4BB39A0708D51B4B5B7AE3B141463D
:1014C00005F01CF80123A37299E713F00C0F96D0D6
:1014D000154B5B7A53B10A2002F0E8FD96F84930CB
:1014E00099070BD5237943F008032371A37A1A07D0
:1014F00002D5022003F006FB0023E4E7394605F09D
:10150000300004F0FBFFF1E723791B077FF577AF8D
:10151000394605F0300004F0F1FF237923F0080389
:1015200023716CE70C0B0020480B0020F00F00200B
:101530002DE9F041454B464E93F8493013F0080F22
:1015400007D004F049F920B101230720337002F0DD
:10155000ADFD337813F0810314D0022002F0A6FD14
:1015600001233370002425463A4F04F0E9FAFF289E
:1015700017D1FFF74BFDFFF707FF7378002BF4D06F
:10158000BDE8F081337003F04BFA30B1324A137882
:1015900043F020031370FFF7F7FE2E4803F042FAE2
:1015A000E0E70A2801D00D282CD1FFF7EDFE96F8D0
:1015B0000180B8F1000FE3D107F8048000F0DCFBF4
:1015C00015F0010505D00B2002F048FD44462546E4
:1015D000CBE73C781CB9204602F040FDF7E7242C0D
:1015E00006D1384603F098FA02F038FD2C46EEE7B3
:1015F000337813F0210401D00920F5E7384600F0D4
:101600004DFDE9E735B12928AFD1AB07ADD505F0E0
:10161000FD05AAE72028A8D92F28A6D028280FD072
:101620003B280FD04E2C0FD82346A0F16102D2B236
:10163000192A04F1010498BF2038E4B2F85494E761
:10164000022592E7042590E701258EE7F00F0020A0
:101650000C0B002030070020290B002010B5FFF7ED
:10166000D5FC064CFFF790FE637833B901F07CFFA0
:101670000028F7D12378082BF4D010BD0C0B0020E4
:101680000020044B044A18604FF406431380034AB9
:1016900013607047445C004040130020405C0040F1
:1016A00070B500F07F0528460E4605F089FE044619
:1016B000284605F049FE22460146304604F091FBDB
:1016C000204670BD2DE9F84F0B789146C218C35CD7
:1016D00006462D2B884618D101275378951C0021EA
:1016E0000A460C460846303BDBB2092B19D80132BA
:1016F000D2B2082A10D809B1013C64B200EB8000D4
:1017000003EB400015F8013BEDE72B2B12BF551CF6
:10171000951C53780027E2E70029F3D1013464B225
:10172000F0E7FE2B02D109B90121EBE7D2B108F0B5
:10173000F7FA0021824608F0DFFC48B9DFF85CB018
:10174000631C12DB19D15046134908F041FB824655
:101750000FB10AF1004A0122AD1B013DC9F800A0FA
:1017600088F800501046BDE8F88F5046594608F0FA
:101770002FFB0234824664B2E2E7002CE8D0DFF8A7
:1017800020B05046594608F023FB013CE3B28246A4
:101790005CB2002BF5D1DBE7CDCCCC3D0AD7233CA6
:1017A0000000204170B50E460D4908F011FB05F010
:1017B000FDFE08F00FFD0B4D84B27CB16B786BB968
:1017C0003EB9FFF7E1FD3220013C00F0C1FAA4B2BE
:1017D000F3E7FFF725FCAB789B07F4D570BD00BF9E
:1017E0000000A0410C0B002038B504464FF6FF75F1
:1017F000013CA4B2AC4200D138BD012000F0A8FAEF
:10180000F6E738B50D46014608F0E2FA29460446E7
:10181000284608F0DDFA0146204608F0D1F907F025
:1018200049FE05F08BFF08F075F938BD2DE9F84346
:1018300000250446A946061F00F1080856F8047F53
:101840004946384608F058FC40B93946384608F051
:10185000BFFA0146284608F0B3F905464645EDD1E2
:10186000284605F0C9FF064601464FF07E5008F0B5
:1018700063FB05460146206808F0AAFA2946206065
:10188000606808F0A5FA29466060A06808F0A0FA30
:10189000A0603046BDE8F8832DE9F8430746884646
:1018A00000244FF000090D4D58F824604946304699
:1018B00008F022FC60B9314657F8240008F03CFBE0
:1018C00020F000462946304608F03EFC00B9354677
:1018D0000134032CE8D12846BDE8F883FFFF7F7F61
:1018E000FEE7000008B50C4A0C4B0D498B420ED3A5
:1018F0000C480D494FF000028842B8BF40F8042B55
:10190000FADB00F09DF8BDE8084000F05DBA52F83F
:10191000040F43F8040BE9E754A800080000002076
:10192000400500204005002084130020CA782DE9DE
:10193000F041D30648BF8B780E8802F00F0548BFF0
:101940001D4316F0FF0F1AD000214FF0010C4FF08D
:101950000F0E03680CFA01F737EA06040BD18C006E
:101960000EFA04F823EA080305FA04F4282A43EAE5
:10197000040326D1476101310829EBD10360FF2E12
:101980001DD908244FF0010C4FF00F0E41680CFADE
:1019900004F737EA06030ED104F18043083B9B00AD
:1019A0000EFA03F821EA080105FA03F3282A41EAAE
:1019B00003010AD147610134102CE8D14160BDE830
:1019C000F081482A08BF0761D5E7482A08BF0761A8
:1019D000F1E74FF6FF730380022383700423C37083
:1019E0007047806880B27047C06880B270470161FC
:1019F0007047416170470AB10161704741617047AA
:101A0000C160704741F48033836181618361836980
:101A10008369704710B50F2401F0030301F0FC0146
:101A200001F1804101F580318A689B009C4022EAE7
:101A300004028A608A6898401043886010BD0000E4
:101A4000374B82B01A6842F001021A605968354A71
:101A50000A405A601A6822F0847222F480321A60B6
:101A60001A6822F480221A605A6822F4FE025A6030
:101A70004FF41F029A600022009201921A6842F409
:101A800080321A601A6802F400320192009A013220
:101A90000092019A1AB9009AB2F5A06FF2D11A68B1
:101AA00012F4003218BF01220192019A012A30D1AA
:101AB0001D4A116841F010011160116821F0030105
:101AC0001160116841F0020111605A685A605A6849
:101AD0005A605A6842F480625A605A6822F47C1252
:101AE0005A605A6842F4E8125A601A6842F08072EA
:101AF0001A601A689201FCD55A6822F003025A60F3
:101B00005A6842F002025A605A6802F00C02082A2F
:101B1000FAD14FF00062054B9A6002B0704700BFE7
:101B2000001002400000FFF80020024000ED00E03D
:101B300000232DE9F743DFF87091DFF87081ADF8ED
:101B40000630D9F80030524A99B21B0411804CD5A6
:101B5000138803F00F0388F80030002B65D14BF693
:101B6000BF764C4C4C4D23684C4F9BB22B802B883E
:101B700003F030033B802B8803F440532B80236811
:101B8000334083F4005383F0200343F4004343F0D5
:101B900080032360138813F0100F236828D123F4E7
:101BA000E14323F070031B041B0C236005F02CF9A8
:101BB00023682A883340D6042A8848BF83F4805398
:101BC00095043A8848BF83F40053D4063A8848BF46
:101BD00083F01003900648BF83F0200343F40043D2
:101BE00043F080032B4A9BB2136003B0BDE8F0833F
:101BF0009BB2ADF80630BDF806301A0508D523684B
:101C000023F070031B051B0D236004F017FFCFE7C3
:101C1000BDF806301B0494D5236823F070031B0520
:101C20001B0D236005F06CF8C2E79A0002F18042B8
:101C300002F5B842116889B2ADF80610BDF8061079
:101C400009040AD51168013B21F070010905090D4D
:101C50001160134A52F823309847BDF806301A062F
:101C60007FF56FAF98F80020930003F1804303F5F0
:101C7000B8431968013A21F4E14121F070010904E7
:101C8000090C1960074B53F82230984759E700BFF9
:101C9000EC0F0020005C0040020B0020040B002031
:101CA000BC000020D8000020445C00401813002035
:101CB00070B5064686B04FF44070FFF743F9012532
:101CC000252301A8ADF804308DF80750FFF744F93B
:101CD000294644F2050000F0ABF94FF40073ADF86B
:101CE000003018238DF803300323184C6946204632
:101CF0008DF80230FFF71AFE4FF48063ADF8003024
:101D00000423694620468DF80330FFF70FFE0023B9
:101D10004FF44022CDE9033204F54054ADF81430BD
:101D2000A389029643F00C03A38102A9204604F084
:101D300071F92A46204640F2255104F0C6F9294699
:101D4000204604F0B7F906B070BD00BF000801409E
:101D500042F2283300225843064B58609A60012211
:101D60001A601A6802F00112012AFAD000221A60E1
:101D70009A60704710E000E010B5074C4FF4005136
:101D800022780648FFF737FE237813F1FF3318BF98
:101D90000123237010BD00BF14000020001001407B
:101DA00010B5074C4FF4804162780648FFF723FED8
:101DB000637813F1FF3318BF0123637010BD00BFB8
:101DC00014000020001001402DE9F341002000F034
:101DD000CBF84FF4806000F0D1F8002000F0D8F884
:101DE0000121102000F024F902238DF80630102381
:101DF0008DF807304FF4C04302A921F8043D3F4855
:101E0000FFF794FD4FF46130FFF752FF03F0DBFA68
:101E100003F0E4FA04F010FC05F026F801F0EEF807
:101E2000374A00241368374D23F004031360364A01
:101E3000A8469369642643F0010393614FF0007252
:101E4000324B5A6003F04AFE02F032F8FEF7FEFF12
:101E500002F064FD002004F075F92D4B2C70C3E9ED
:101E600000449C601C22002140462F7808F00AFAAA
:101E7000284B2F70C3E900449C60274B274F1C70F0
:101E8000274BEE711C70274B2E721C70264B6E7206
:101E90001C70264B1C70264B1C70264B1C7003F0CC
:101EA0008BFF00F0DDF897F85C0004F04BF997F831
:101EB0005C0001F0FDFF03F0B9FF03F0C5FB03F088
:101EC0004DFC04F073F801F025FBFEF723FB01F055
:101ED0004DFD00F0DBF801F005FA30B102F02AF90F
:101EE000FFF74AFFFFF724FBBCE76420FFF77CFC09
:101EF000FFF742FFFFF754FFEDE700BF001001407E
:101F000010E000E00C0B0020001002400000014037
:101F1000380B00202C0B00202A0B0020F00F002093
:101F2000450B0020080B0020290B0020440B00204B
:101F3000090B0020280B002008B5012003F06DFAE2
:101F400001220020054B06491A60064A18601060FD
:101F50004FF4E0520A801A6008BD00BF405C0040A8
:101F600040130020445C0040034A536823F0F00310
:101F700018435060704700BF00100240034A536886
:101F800023F4E06318435060704700BF0010024024
:101F9000034A536823F4605343EAC000506070471B
:101FA00000100240014B1860704700BFD800424249
:101FB0001B4A10B5536803F00C03082B1FD0194BB4
:101FC000036053681849C3F30313CC5C0368E34010
:101FD00043605468C4F302240C5D23FA04F4846063
:101FE0005468C4F3C2240C5DE340C3605268C2F37A
:101FF000813211440A7CB3FBF2F3036110BD5368D4
:102000005168C3F38343CC0303F1020302D40749AD
:102010004B43D5E751688903F9D40249F8E700BF7B
:102020000010024000127A001600002000093D0056
:10203000044B9A6911B110439861704722EA00007D
:10204000FAE700BF00100240044BDA6911B11043F7
:10205000D861704722EA0000FAE700BF0010024092
:1020600008B500214822074808F00CF9064900206D
:1020700001F099FD20B9BDE80840072001F0EEBF4E
:1020800008BD00BF480B0020740B00200149024826
:1020900002F0FABC380B0020680B00202DE9F04F4D
:1020A0005C2299B081460021AC4808F0EBF8AC4BBB
:1020B000AC4A984603F108051C4603CCAC421060BC
:1020C0005160234602F10802F6D12068106023799E
:1020D000137199F80030242B4FF000033CD01D46BB
:1020E0008DF8433000242646CDE9094407949DF835
:1020F000433019F803B0BBF1000F35D126B1079B6F
:10210000002B08BF02230793A30605D5934BDA6A79
:10211000954B9A4200F32587EF0740F1F781E007DE
:1021200040F106828D4FFB78012B04D138698F492D
:1021300007F04EFE386114F4807F08BFD8F81030E5
:10214000864F08BF3B643B78042B40F00282630655
:1021500000F1FC811C25DFE0804A012593700323F8
:1021600055708DF84330BDE7ABF1410A5FFA8AF252
:10217000192A00F2E486013311AA0DF14301484601
:102180008DF84330FFF79EFA002800F0DB86119BA4
:102190001846089305F0BEFA08F01CF8C7B2384696
:1021A00007F0C2FD089B0146184607F007FD70497D
:1021B00007F00EFE05F082FABBF1470F82B222D083
:1021C000BBF14D0F00F0DC80BAF1190F4AD8DFE8FF
:1021D0001AF0170134014900490049003B01490048
:1021E00049004001490152015B0149006001490079
:1021F00067016C01710175017A01490049004900CC
:1022000088018F019601282F00F0A58032D8132F66
:1022100023D8112F79D2042F09D06FD30A2F21D1BF
:102220002AB9079B002B40F09086012307934B4B64
:1022300007F0FD011C291F7002D05C2F40F09C802C
:102240000AB10A2A0ED13844187000230A9A1A419A
:10225000D00740F1CD8015255EE01C2FE0D003D8DB
:10226000152F69D9142557E0212F47D0262F45D0A7
:102270001E2FD4E73D2F6AD01BD8352FD7D011D8C9
:102280002B2F01D0312FEDD1079B002B40F05D8625
:10229000312F57D1314B9DF81C209A71032208230E
:1022A0000792D3E73B2FDDD82C4B363FDF71092354
:1022B0002FE05B2F18D85A2F32D2502FD2D1274976
:1022C000262F4F705AD1A2F114039BB21E2BC9D8EE
:1022D000284820FA03F3DF07C4D50A23B2FBF3F240
:1022E000763A4A700123B1E75C2F99D05E2FB9D8B6
:1022F0001A4BC7F15E079F7005230AE0079B002B6E
:1023000040F0238602230793D9E7144B113F5F71F6
:102310000223002A9AD01725284619B0BDE8F08F6D
:1023200022B90E4B5A3F1F7103238FE70A2A99D116
:102330005A2F97D0042389E7084BC7F11507DF70A0
:102340000623E6E70A2A8DD1044B0122A5E7002ADD
:1023500088D10A237AE70723DBE700BF900B002030
:10236000480B0020910B0020809698003333CB411E
:102370000000C842010410400023CAE70123C8E757
:10238000002AC8D1052F0AD8032F1BD3042FAA4B2C
:1023900021D0052F21D010229A720C2356E7092F45
:1023A0000AD8072FA44B1AD3082F1DD0092F1DD0F0
:1023B00080225A720D2349E71E2F7FF453AF9E4BA4
:1023C0001F7202E01FB1012FF9D10B233EE7032258
:1023D000994B1A72F9E72022DEE70022DCE704229B
:1023E00045F48075DA72D8E74022E2E70022E0E7A0
:1023F000012202FA03F30A9A13439BB20A9376E688
:102400000D278D4B119A46F008065A6544FA07F3DA
:10241000D90700F1A08540F261333B41DA0706D5C8
:102420000021119807F072FE002840F097850123E3
:1024300003FA07F73C43A4B259E67F4B119A46F0E2
:1024400010069A650E27E1E77B4B119A00271A6167
:10245000DCE7794B119A01275A61099B43F001038C
:102460000993D3E7744B119A02279A61099B43F0B1
:1024700002030993CAE7704B119A0327DA61099B9B
:1024800043F004030993C1E76B4B83F828700427DA
:10249000BCE7119807F078FE674B0527D862B5E7CF
:1024A000654B119A06271A63B0E7634B119A5A637A
:1024B0000727ABE7604B119ADA63F9E75E4B119A95
:1024C00008271A64A2E75D49119807F03DFE00282D
:1024D00040F03E850222584B83F844701A73092756
:1024E00094E7554B119A46F001069A640A278DE746
:1024F000514B119A46F00206DA640B2786E74E4BE1
:10250000119A46F004061A650C277FE74A4FBB78FC
:10251000012B0FD1079B022B7FF40DAE7B78502B44
:102520003FF409AE002B3FF406AEE1073FF503AEE2
:102530001625F1E698F80130002B7FF4FCADE20798
:102540003FF5F1ADD8F814303B61F4E524F04004D8
:10255000A4B27B79002B7BD0012B0CBF012300237D
:102560000D930CBF002302230C930CBF0223012305
:102570000B93FB78012B18D14FF000092E4BDFF89D
:10258000C8B046FA09F2D0070AD503EB890ADAF88F
:1025900048005946089307F01BFC089BCAF84800FE
:1025A00009F10109B9F1030FEBD1079B032B05D109
:1025B000BB79012B02D1042E40F0D684204A12AB05
:1025C00007CA83E807000A9A1B4F12F4007F45D11F
:1025D00097F80090B9F10A0F50D0B9F15C0F00F0F4
:1025E000AD80079B032B18D0BEB13B790027089321
:1025F000D8F84430DFF854A0DFF83C800E9346FA58
:1026000007F3DB0700F1D180BB0003EB0802534462
:102610001B6A93640137032FF1D1B9F11E0F00F04B
:10262000EE80B9F1350F00F00581B9F11C0F40F0D3
:10263000B58004490620E4E0900B002000007F43B1
:10264000740B0020A40B00203333CB41480B002037
:1026500001224FF0020CCDE90C2C89E7F87906280D
:1026600001D91D2558E698F806208242B0D01946B7
:1026700001F099FA0028ABD107254DE60EB91A25CD
:102680004AE614F0500F3FF465AD386B05F042F8A0
:1026900007F0A0FDC0B20628E3D897F82830142B25
:1026A00005D0022B7FF4DEAD21063FF5DBAD00281F
:1026B0003FD00138C3B20893AF49089801F073FACC
:1026C0000028D9D097F828900027D8F84430DFF8B0
:1026D000B0820E9346FA07F3DA0719D5BB0003EB75
:1026E000080AB9F1140FDAF848B024D1A34A134408
:1026F000996B186A07F062FA594607F05FFA022FE1
:10270000CAF8140004D10E9907F058FAC8F81C0052
:102710000137032FDED124F05004A4B2984B5F7828
:102720009A46502F40F08C80002E00F0AF801F257D
:10273000F2E5FB79BFE7CAF814B0E9E7002E9ED0B6
:102740004FF0000BD8F84430DFF838828B4F0893F5
:102750000DF14809A8F1480A46FA0BF212F0010FF0
:102760004FEA8B023A441CD059F82B10106A07F03C
:1027700025FAD8F8001007F021FABBF1020FC8F8CB
:10278000000004D1089907F019FACAF850000BF1BB
:10279000010BBBF1030F08F10408DDD100230893FE
:1027A000BCE7926BC8F80020F1E7B9F1350F3FF4B0
:1027B00031AFBA00089902EB080BDBF84830B1B929
:1027C00052440F9312AB53F82710906B07F0F8F9AF
:1027D0000F9B194607F0F4F9022FCBF848007FF45D
:1027E00019AF0E9907F0ECF9C8F8500012E75244FF
:1027F0001946106A07F0E4F9CBF848000AE7072009
:102800005D4901F0D0F900283FF436AF16B9CDE9A3
:10281000076683E700235A49584846FA03F2D70768
:1028200004D49A0057180244126A7A610133032BC8
:10283000F3D1B3E7524B5B78012BAFD91E256BE583
:10284000079A022A22D12FB91346002E08BF00236F
:1028500007931BE00021186907F04EFC00287FF465
:1028600067AE8C2F00F07D8108D8022F4AD0032F4D
:102870004AD0012F0AD1002E079BE7E78E2F00F0E8
:102880007081C0F06C818F2F00F0698115F0010319
:10289000079A15BF24F0210424F44874A4B224F04C
:1028A000010412B124F4F844A4B2002C40F068836F
:1028B000CDE915441794002B00F074810A9B23F096
:1028C0004903002B40F05F832D4B1B78352B02D042
:1028D000002B40F05883294C29492369227A16930A
:1028E000637A15A813438DF85C30FEF761FB05464B
:1028F00000287FF411AD234E20340FCE0FC433686F
:10290000236009E545F00405002E3FF4B8AE01232D
:102910000B9A03FA02F90C9A934049EA030916EA62
:10292000090F00F024830B9B0B9ADFF850B0123391
:1029300008325BF822105AF8230007F03FF90C9B8D
:102940000C9A1233083207465BF822105AF823001B
:1029500007F034F914F08003804600F0988024F0EA
:1029600080040C2207490BF12000A4B207F058FCA8
:1029700050B92125D0E400BFA40B0020480B002053
:10298000900B0020D80B00209AF80330DAF83C00B6
:10299000012B04D17C4907F01BFACAF83C00DFF890
:1029A000FCA14FF08141DAF83C90484607F010FA5C
:1029B000494607F00DFA39468146384607F008FACD
:1029C0000146484607F0FAF841468146404607F07E
:1029D000FFF90146484607F0F1F80021814607F06B
:1029E00095FB002840F0C682484606F063FD04F0DF
:1029F000A5FE8346894638464146FEF702FF06F0AB
:102A000059FD09F100490B4602464946584606F071
:102A1000D3FE07F07FF89AF80130DFF880A1032B8E
:102A2000DAF83CB081464FF0000108BF00F10049E0
:102A3000584607F06BFB28B10BF1004B09F1004938
:102A4000CAF83CB00B9B4146484603F1040B07F023
:102A5000BFF90146384607F0B1F84FF07C5107F056
:102A6000B7F90C9B0AEB8B0B0433CBF80400394607
:102A700048460AEB830A07F0ABF9414607F0A0F895
:102A80004FF07C5107F0A4F9CAF80400FEE6099A59
:102A900019EA020F00F071829AF8032024F00E0464
:102AA000012AA4B217D19946DFF8F4A0DFF8D8B014
:102AB000099B43FA09F3D90706D5DAF8000059460D
:102AC00007F086F9CAF8000009F10109B9F1030F0E
:102AD0000AF1040AECD10C9BDFF8C0A003F1040951
:102AE0000AEB8909D9F80410404607F067F88346D5
:102AF0000B9B384603F104080AEB8808D8F8041049
:102B000007F05CF85946FEF77CFED9F8041007463A
:102B1000D8F80400FEF775FE0146CAF83C0080466E
:102B2000384607F04BF820F000471849384607F0C0
:102B30000BFB00283FF4AAAE4FF07C51384607F05B
:102B400003FB00287FF415AF1149404607F040F918
:102B5000394607F0DBFA00283FF498AE09E745F064
:102B600010057237FFB2012F98BF45F00805002EFF
:102B70003FF485AD0C220749074807F051FB0028B8
:102B80007FF484AEF5E600BF3333CB410AD7A33BD5
:102B90006F12833AD80B0020680B0020900B0020A6
:102BA000A40B0020AC4BAD4C93F84930AC4F13F064
:102BB000020F0ED07B78013B022B88BF45F0400509
:102BC000002E00F0D980079B022B40F0D58045F005
:102BD0008005FB6AE361BB78637013B108238DF84D
:102BE0005C303B69D7F840806361414620691593AA
:102BF00007F082FA05F0400608B1AA060BD5607A04
:102C000038B12B0605D4002E00F0CA80002103F055
:102C1000B9FC3B6C23610EB92369169397F84430D5
:102C2000B87A2376637A834204D0169903F0AAFC1B
:102C3000BB7A63729DF85C30627A787A13438DF8C0
:102C40005C30237A834206D002F078FD7B7A002B39
:102C500040F0A88023729DF85C30227AE80543EAB0
:102C600002038DF85C3015D5F87AA37A834200F020
:102C70009C8003F067F9FB7A012B1CBFA27A1343F7
:102C8000A3729DF85C30A27A25F480751343ADB22F
:102C90008DF85C30387BE37A834200F0948003F057
:102CA00061F93B7B002B40F08B80E3729DF85C3038
:102CB000E27A13438DF85C303B78042B02D1386BF9
:102CC00002F0B0FA7B792371FB78A370079B032B8A
:102CD0000DD1BB7963710BB900233B653E6D606C10
:102CE000314607F009FA10B9666401F0B5FEFB79C8
:102CF000A2799A4207D0A3715A4B12AA07CA83E855
:102D0000070001F0A9FE3B79E3703B78262B00F029
:102D1000938060D81C2B78D01E2B76D00A2B63D0E2
:102D20007B78502B23700FD0079A022A0CD1012BED
:102D300040F0AA8015A94C4802F098F84B4D4A4E35
:102D40000FCE0FC533682B603D7AE571002D3FF43F
:102D5000E3AAFEF783FCE379032B454B40F0C680E2
:102D60001B78022B04D0082001F0CCFEFEF70CFBF0
:102D70000025E571FFF7D0BA637A102B7FF429AFF5
:102D8000237805F04002013B022B05D8002A3FF4CE
:102D900020AF45F020051CE7002A7FF41AAFF8E7C2
:102DA000414634E7227A134354E759077FF569AF68
:102DB000184603F0C7F80423A3720123FB7260E7EF
:102DC000E27A134371E79A077FF570AF184603F074
:102DD000C9F8002369E75C2B33D0662B4ED0282B33
:102DE0009ED12249072029E0224E0898314600F062
:102DF00001FEA379089A934292D196E80700194BF5
:102E000083E8070001F028FE8AE79DF85C3043F074
:102E100001038DF85C30079B1BB115A9124802F025
:102E200025F8144E15A9304602F020F896E8070060
:102E30000E4B83E8070073E706200C4900F0DAFD2B
:102E40006EE70D4EDFF820C0BCE80F000FC6DCF8BF
:102E500000303360D6E700BFF00F0020480B0020A1
:102E6000900B0020740B0020D80B0020680B002072
:102E70000C0B0020A40B0020800B00200023434AF1
:102E8000A363C2E90133BDE733B99DF85C3043F079
:102E900001038DF85C304DE7023B012B12D80D9BEE
:102EA000C5F3800503930C9B049502930B9B384A52
:102EB0000193FB6B15A90093364B03F1340002F02C
:102EC0000BF83BE79DF85C30EAB243F0040315A928
:102ED00031488DF85C3002F0D5F900283FF42EAF70
:102EE00001287FF431AFFFF7D1F82DE764220025E8
:102EF0000126DA711A725A721B782571022BE5705D
:102F00002680A5712581A67215D02449284600F097
:102F10004AFE00283FF4B0AB01F09EFD0021284698
:102F200003F0ECFA284602F0D7FB304602F0ECFF43
:102F3000284602F0C3FF082001F0B8F818E7012581
:102F4000FFF7EAB90225FFF7E7B91825FFF7E4B95B
:102F50002625FFF7E1B91925FFF7DEB90425FFF7AC
:102F6000DBB91B25FFF7D8B92525FFF7D5B92025F3
:102F7000FFF7D2B92225FFF7CFB92325FFF7CCB948
:102F80002425FFF7C9B91025FFF7C6B9800B00202B
:102F9000680B0020A40B0020D80B0020740B00202D
:102FA0002DE9F041114803F091FF04281CD14FF6A0
:102FB000FF750E4C0E4E0F4FA31903F17843A3F586
:102FC000FE33198807EB0408A94202D0204603F01B
:102FD0009DFFB8F80010A94202D0A01C03F096FF94
:102FE000054B04349C42E7D1BDE8F08100FC0108A8
:102FF000EC0B0020EE0FFE17000002080C4A30B563
:1030000010460C4B0C4C1D7803F178410133A1F5AF
:10301000FE31A3425554F6D113780A2B06D0002373
:10302000FF22C2540133B3F5806FFAD130BD00BF27
:10303000EC0B002000FC010800000208014B185CAA
:10304000704700BFEC0B0020014B1954704700BFC4
:10305000EC0B0020F0B400242346094D2F18A242A7
:1030600004D115442B54F0BCFFF79ABF33B9DB09E8
:103070000E5D33443E55DBB20134F0E70123F7E740
:10308000EC0B00200A4B10B5194400230244904277
:1030900011F8014F03D11B1B5842584110BD2BB9E9
:1030A000DB092344DBB200F8014BF0E70123F8E72A
:1030B000EB0B0020034B9B7A13B10522024B1A60E5
:1030C000704700BF1C130020800700200422014B22
:1030D0001A60704780070020034B1A78202A04BF2B
:1030E00000221A70704700BF84070020704700005C
:1030F000212810B50BD1114B1B681B7803F07F03FF
:10310000212B19D000220E4B02205A6013E02028F8
:10311000F8D10A4B1B681B7803F07F03212B084B67
:103120001870EFD1074B0024044A204612689361BF
:1031300054829847204610BD034BF4E73C1300200F
:1031400084070020A53100088D310008094B1A685A
:10315000137803F07F03212B0AD1022806D02228FE
:1031600006D1D378044A03F001035360002070476E
:10317000022070473C1300208407002021B9012859
:103180008CBF0220002070470220704720B908221F
:10319000024B1B681A827047014870473C1300209D
:1031A0002C000020FFF7F2BF10B5002402F036F922
:1031B000044B1B689C72FEF7BFFEFEF761FA024BE0
:1031C0001C6010BD3C1300208007002010B50024B7
:1031D000324B334A1B68D2795C815A72204603F025
:1031E000DFFF4FF40071204603F0E2FF102120467C
:1031F00003F0ECFF4021204604F088F880212046AF
:1032000004F074F8204604F049F8264B204693F861
:10321000341004F0B5F8204604F01DF821460120D2
:1032200003F0C6FFC021012004F060F82021012036
:1032300003F0CCFF2146012003F0E1FF4FF4C06111
:10324000022003F0B5FF4FF48071022004F04EF825
:103250002146022003F0D3FF2021022003F0B6FF15
:103260002146032003F0A4FF4FF48871032004F0EB
:103270004DF84021032004F083F84FF4405103201F
:1032800003F0BDFF2146032003F0A0FF204603F01A
:103290009BFD0122044B1A6010BD00BF3C130020AF
:1032A000D5A500082C00002080070020014903F06C
:1032B00097BB00BF64000020014903F091BB00BF31
:1032C0006C000020054B1B68DB78042B04D80449F4
:1032D00001EBC30103F084BB002070473C130020C6
:1032E00074000020054B1B68052B05D1044B586862
:1032F000003018BF01207047002070478007002071
:103300008407002070B5164C164E2268164D92B2F6
:103310003280298832880A40910509D54FF6FF533B
:10332000124A236013780133DBB2137003F02CFFD1
:103330002A88338813401A0401D5FEF7F9FB338835
:103340002A8813405B0509D54FF6FF332360084BED
:103350005B689847BDE8704003F020BF70BD00BFB8
:10336000445C0040EC0F0020401300208C0700203C
:10337000340000202DE9F04F5E4D85B02C786F7839
:10338000002C08BF1024013CE4B2A7426FD03426C1
:1033900006FB0458D8F82010D8F81C90084606F010
:1033A0000FFCD8F8241006F013FD8046014648466D
:1033B00006F0ACFE00B1C846002C06FB04F608BFC0
:1033C0001024013CE4B2AB19A742C3F81880DFF81F
:1033D00028912FD04FF034084E446B78A3422FD061
:1033E000002C274608FB049A08BF102495F84433A4
:1033F000013CE4B2A34201D1FDF7D0F808FB075726
:10340000D7F81CB0B869594606F076FE80B9396A1B
:10341000084606F0D5FB796A06F0DAFC716906F019
:10342000CFFB06460146584606F08EFE10B3BE613D
:103430005646D2E795F84433BB4201D1FDF7AEF8CA
:1034400095F801A034260AF10104E4B2102C08BF5B
:1034500000244FF0000806FB0A9B2B780293029B86
:10346000A3420AD1B8F1000F01D085F801A005B040
:10347000BDE8F08FC7F818B0DAE706FB04F709EBF0
:1034800007030393DBF814302F440093BB690098C3
:103490001946019306F03AFEB0B1DBF81C1008465D
:1034A00006F08EFBDBF8201006F092FC009906F087
:1034B00087FB83460146019806F046FE20B1A246EE
:1034C0004FF00108C7F818B006FB0452D1699069A3
:1034D00006F012FE002818BFA24604F10104E4B26F
:1034E00018BF4FF00108102C08BF0024DDF80CB005
:1034F000B5E700BF900700209407002000220121BB
:10350000034B83F844231A7083F845135A707047AD
:103510009007002008B51C220021034806F0B2FEE7
:10352000BDE80840FFF7EABFD80A0020084B93F82F
:1035300044131A788A420AD04A1CD2B2102A08BF11
:103540000022587883F84423884208BF5A70704795
:10355000900700203420034B1A1D1B7800FB03202A
:10356000704700BF90070020054B93F844031A787A
:1035700082421DBF3422043302FB0030002070471A
:1035800090070020084A92F8443311780133DBB2E7
:10359000102B08BF002399421DBF342101FB0323D8
:1035A00098690020704700BF90070020044B93F8F3
:1035B000440393F84533C31A58425841704700BF3B
:1035C0009007002038B5837C0546DA07C46A15D514
:1035D000164B187A06F0A8FB154906F0F9FB0146D0
:1035E000204606F0F5FB04464FF07E51204606F0DB
:1035F000ABFD08B94FF07E54204638BD5B070BD4B5
:103600000A4BD87906F090FB094906F0E1FB014628
:10361000204606F0DDFB0446AD6A2146284606F04A
:1036200075FD0028E0D02C46DEE700BF0C0B002023
:103630000AD7233C2DE9F84F4FF034081A4DDFF834
:103640006CB095F8444395F8009005F1040AA14543
:1036500003D1C5F860B3BDE8F88F08FB04F60AEBA8
:103660000600FFF7AFFF01460746584606F04EFD3D
:103670002E44B0B15946584606F0AAFBF06108FB4B
:103680000456D6F828B0F069594606F05DFD08B139
:10369000C6F81CB00134E4B2102C08BF0024BB46AD
:1036A000D5E739463846E7E790070020FFFF7F7FE0
:1036B0002DE9F04FA24C3422A0468B4618F8045B4B
:1036C00091B002FB05F6B04401900021404606F09F
:1036D000D9FD9BF80830264413F0020FDBF80420D4
:1036E000B37518BF974B726308BF04F5527393E824
:1036F0000700342300260DF11C0A8AE8070003FBAB
:103700000549914A019B52F8261053F8260002926F
:1037100006F05EFB05F0CEFE03F0BAFE5AF8261066
:1037200004AB43F82600401A80EAE077A7EBE07785
:1037300048F82670D9F810103B468F4238BF0B4628
:10374000C9F81030039306F0EFFA029A0AAF52F864
:10375000261006F0F1FB002147F8260006F0D6FC03
:10376000039B38B1794AB9F8141052F826200A435D
:10377000A9F814200136032EC3D1002B00F0DB8002
:103780004FF034093846FEF751F809FB0549394630
:10379000C9F824006E48FEF77FF83946C9F82000C2
:1037A0006C48FEF779F899F81660C9F82C00F10713
:1037B0004DD5C9F83000227894F844334FF0000A10
:1037C0009A4202D016F002064CD0342303FB054384
:1037D000C3F818A0C3F828A0342606FB0546B37D1D
:1037E0009B0732D44046FFF7EDFED4F86093804645
:1037F0000146484606F08AFC002800F099804946B8
:10380000484606F0E5FA342303FB0545F061AE6A4D
:10381000E869314606F098FC00B1EE614E4B97E83E
:103820000700C4F8608383E8070004AA07CA03E915
:10383000070094F8453323700133DBB2102B08BF27
:10384000002384F84533FFF795FD012074E0DBF891
:1038500000103207C9F83010ADD5D9F8240006F0B1
:10386000B7FAA6E7D1460DF1340B3C4B3344DA6886
:10387000BB59104619460393019206F0A9FA014676
:10388000484606F09BF9019A039B8146114618466B
:1038900006F094F94BF8060004360C2EE5D13049B9
:1038A000484606F051FC18B1342303FB054391E769
:1038B0002C49484606F02AFC28B1342303FB054373
:1038C000294A9A6288E75846FDF7B0FF59462048D2
:1038D000FDF7E2FF494682464FF07E5006F06EF952
:1038E0004FF07C5106F074FA05F0E4FD03F026FF7A
:1038F00006F010F90646029B5046996B06F068FAEE
:10390000314606F065FA314681464FF07E5006F0AA
:1039100055F90146484606F00FFB0021064606F021
:10392000F5FB00B10026342303FB05439E6253E7F9
:103930004146404665E7184611B0BDE8F08F00BF2C
:1039400090070020380B0020F00F002024A300086F
:1039500008100020FC0F0020E40A0020D80A0020F4
:10396000EFFF7F3FEFFF7FBFFFFF7F7F054A064BE3
:103970001168C3F8481351689268C3F84C13C3F830
:1039800050237047380B002090070020064B1A7810
:1039900093F844339A422CBF03F10F0003F1FF3038
:1039A000801AC0B2704700BF9007002008B5FCF72E
:1039B000F5FD044B93F844235A70BDE80840FFF727
:1039C000D9BC00BF9007002038B505460C46FDF76E
:1039D00045FE512303FB05F02146BDE83840502247
:1039E00000F54070FFF736BB0146502240F2AE3082
:1039F000FFF730BB38B505460C46FDF72FFE0D230B
:103A000003FB05F02146BDE838400C2200F50070AC
:103A1000FFF720BB08B50A210020FFF715FBBDE822
:103A20000840A02201490120FFF714BBF00F00203D
:103A300030B5C40785B0054643D53A4B3A493B4AB1
:103A4000D9643B499A631965FA213A4AA3F854109C
:103A5000DA63394A4FF081411A644FF07E525A645A
:103A600003229965052183F84B2083F84A20334AC5
:103A70003348C3E9002202F540329A60314A83F8A4
:103A80005C10DA60A2F500021A612F4A5221C3E9E4
:103A900005022E4A83F84910DA61A2F5C902A2F59F
:103AA0000C621A622A4A5A62A2F568129A62A2F558
:103AB000F012DA62274A1A6340F6FF229A86FFF76D
:103AC000A9FFA9070AD50024CDE901440394E0B277
:103AD00001A90134FFF78EFF082CF8D16A0713D52E
:103AE00000214FF44070FFF7AFFA002140F201309F
:103AF000FFF7AAFA002140F25130FFF7A5FA0021A2
:103B000040F25230FFF7A0FA2B0709D5002140F20E
:103B1000AE30FFF799FA002140F2AF30FFF794FA88
:103B200005B030BDF00F00200080BB450AD7233C14
:103B30000000FA446F12033B00007A4400001D436A
:103B400000409C450080BB4600BADB4B4054894B8B
:103B50000000A0C30A00010070B50D465121414389
:103B60000646502201F540712846FFF78BFA0446BD
:103B700030B9287029463046FFF726FF204670BD31
:103B80000120FCE738B5502240F2AE310546FFF780
:103B900079FA044628B928702846FFF725FF204601
:103BA00038BD0120FCE770B50D460D2141430646A6
:103BB0000C2201F500712846FFF764FA044648B963
:103BC000002330462B606B60AB602946FFF712FF85
:103BD000204670BD0120FCE708B50020FFF72EFA53
:103BE0000A2808D1A02201210448FFF74BFA00302F
:103BF00018BF012008BD0020FCE700BFF00F002027
:103C000038B50D4604460021284606F07FFA002804
:103C100040F04481632C30D9643CE4B2022CC3B23E
:103C200024D8032B06D8DFE803F002090E1A9E4BB6
:103C300043F82450FFF7EEFE002038BD9A4B03EB0B
:103C40008404E560F6E79949284606F0C1F89749EB
:103C500006F0BEF8944B063443F82400EAE7924B92
:103C600005F1004503EB84046562E3E7092C19D9EB
:103C70000130052816D00A3CCFE7284603F04AFD5C
:103C800006F0A8FA152CC0B200F0B88037D8052C81
:103C900000F0848016D8022C74D005D8002C66D091
:103CA000012C6BD00320C8E7032C71D0042CF9D170
:103CB0007D4A92F8493000286DD043F0040382F821
:103CC0004930B7E70B2C00F0828007D8062C6FD064
:103CD0000A2CE7D1744B83F83500ABE70D2C7CD070
:103CE00078D3142CDED1704A92F84930002800F0C5
:103CF0008280D90640F1D68043F02003DFE71C2CF8
:103D000000F09C8014D8182C00F0908008D8162C55
:103D100000F08280172CC5D1634B83F84B0089E7F4
:103D20001A2C614B00F0878040F283809D6581E70B
:103D3000202C00F0928007D81E2C00F089801F2CC8
:103D4000B0D1594B5D6485E0622C00F09380632C08
:103D500000F09A80612CA5D1534B93F84A2000289B
:103D600000F0858042F0040283F84A2072E00028C7
:103D700000F096804C4B83F830005BE74A4B83F8A9
:103D8000340057E7484B83F83100FCF78BFB51E7D1
:103D9000454B5886F9E723F0040390E7424A92F82E
:103DA000493010B143F0400389E723F0400386E730
:103DB0003D4A92F8493038B163F07F03002082F821
:103DC000493002F0DFF835E703F07F03F6E7364BC2
:103DD0009D632FE7344BDD632CE7334A92F849307B
:103DE00030B143F0010382F8493000F035FE21E79D
:103DF00023F00103F7E723F0200360E72A4A92F853
:103E0000493030B143F0080382F8493001F0A6FC94
:103E100010E723F00803F7E7234A92F8493010B17E
:103E200043F010034BE723F0300348E71E4BDD64FB
:103E300000E71D65FEE6A3F85400FBE6284606F001
:103E4000C9F9194BC0B283F85C0002F07BF9F1E6C6
:103E5000154B1D6493F85C00F7E7134A92F849305C
:103E600010B143F002032AE723F0020327E722F010
:103E7000040279E70C4B93F84A2010B142F001029A
:103E800072E722F001026FE7074B93F84A2010B166
:103E900042F0020268E722F0020265E70420CCE665
:103EA0000620CAE60A20C8E6F00F00200000704293
:103EB00008B5FFF791FE48B9072000F0CFF8FF20C2
:103EC000FFF7B6FDBDE8084000F046B908BD0000A8
:103ED000014803F037B800BF64A4000808B55D20AE
:103EE00001F000FEBDE80840FFF7F2BF38B5044618
:103EF000202001F0F7FD282001F0F4FD202C2AD02D
:103F000013D81E2C23D024D81C2C16D00023643C9C
:103F1000E4B2092CDDB203F1010322D8042C26D827
:103F2000DFE804F0222B2D2F3100622C15D0632CFA
:103F300015D0612CEAD1194800E0194803F002F8C5
:103F4000292001F0CFFDBDE83840FFF7C1BF15487B
:103F5000F4E71548F2E71548F0E71548EEE715488D
:103F6000ECE70A3CE4B2D4E7134802F0EBFF032D80
:103F7000E6D8DFE805F00A0C0E101048F5E7104807
:103F8000F3E71048F1E71048EFE71048D6E710488C
:103F9000D4E71048D2E71048D0E700BF02A40008D9
:103FA0003CA300084AA3000852A300085AA3000833
:103FB00060A3000868A3000895A300086FA3000889
:103FC00071A3000873A3000875A3000877A3000875
:103FD0007FA3000887A300088FA30008014802F010
:103FE000B1BF00BF97A3000810B50446006803F0F6
:103FF0003FF82C2001F076FD606803F039F82C20A2
:1040000001F070FDA068BDE8104003F031B810B5B4
:104010000446242001F066FD204602F09CFFBDE826
:1040200010403D2001F05EBD10B50C46C0B2FFF758
:10403000EEFFE0B202F08FFFBDE81040FFF748BF8F
:1040400038B50C461546FFF7E2FF2946204602F038
:10405000ABFFBDE83840FFF73BBF000010B504469A
:1040600020B9BDE81040064802F06CBF054802F0D8
:1040700069FF204602F06FFFBDE81040FFF728BF40
:104080009AA300089FA3000810B50446064802F052
:1040900059FF204602F05FFFFFF71AFFBDE810400E
:1040A0004FF4FA70FDF7A0BBA6A3000810B50446B4
:1040B000144802F047FF601E0A280AD8DFE800F023
:1040C000060D0F11131517191B1D1F000E4802F0C6
:1040D00039FFBDE81040FFF7FBBE0C48F7E70C487E
:1040E000F5E70C48F3E70C48F1E70C48EFE70C481C
:1040F000EDE70C48EBE70C48E9E70C48E7E70C482C
:10410000E5E700BFADA30008B3A30008C5A30008FE
:10411000D9A30008EBA30008F3A30008FCA3000840
:1041200007A4000814A400081CA400082FA4000879
:1041300041A4000808B54FF4FA70FDF755FBBDE83F
:104140000840014802F0FEBE4AA40008014802F0FF
:10415000F9BE00BF67A400082DE9F843754C0020A4
:1041600094F83010FFF760FF94F834100120FFF747
:104170005BFF94F831100220FFF756FF618E032099
:10418000FFF752FF94F849100420C1F38001FFF7B4
:104190004BFF94F849100520C1F38011FFF744FF4D
:1041A00094F949100620C90FFFF73EFF94F8351027
:1041B0000A20FFF739FF0322A16B0B20FFF740FF16
:1041C0000322E16B0C20FFF73BFF94F849100D2010
:1041D00001F00101FFF728FF94F849101420C1F302
:1041E0004011FFF721FF94F849101520C1F3C001D9
:1041F000FFF71AFF94F849101620C1F30011FFF7DA
:1042000013FF94F84B101720FFF70EFF0322E16C09
:104210001820FFF715FF0322216D1920FFF710FF6B
:10422000B4F854101A20FFF7FFFE0322A16D1B20E3
:10423000FFF706FF94F85C0005F072FD00220146CE
:104240001C20FFF7FDFE1C20FFF750FE0022216C12
:104250001E20FFF7F5FE0022616C1F20FFF7F0FE25
:1042600094F849102020C1F34001FFF7DDFE94F8D7
:104270004A106120C1F38001FFF7D6FE6120FFF7ED
:1042800035FE94F84A10622001F00101FFF7CCFEE0
:104290006220FFF72BFE94F84A106320C1F340011F
:1042A000FFF7C2FE6320FFF721FE64260027DFF838
:1042B00088900025032F10D8DFE807F0021A23307A
:1042C000032206EB050854F825105FFA88F84046EB
:1042D000FFF7B6FE4046FFF709FE0135032DE9D191
:1042E0000A36F6B20137962EFFB2E2D1BDE8F88366
:1042F00006EB050804EB85035FFA88F80322D9680A
:10430000E5E704EB85034946986905F015FE06EBE1
:1043100005085FFA88F803220146D8E704EB850315
:10432000596A06EB05085FFA88F801F1004103229B
:10433000CDE700BFF00F0020000061451FB50B481E
:1043400002F000FE0A4901A800F09EFB01A8FFF759
:104350004BFE3A2001F0C6FB064B587902F0FBFDFC
:10436000FFF7BCFD05B05DF804FB00BFB1A4000879
:104370002C0B00200C0B00202DE9FF410025234EC3
:10438000234FDFF8A480ECB201A92046FFF70BFC15
:1043900050B9204802F0D6FD072002F0DCFDFFF7FF
:1043A00097FD04B0BDE8F081304602F0CBFD062C4D
:1043B00007D0072C27D004F13600C0B202F0CBFDA5
:1043C00002E0384602F0BEFD3A2001F08BFB0135D9
:1043D00001A8FFF709FEFFF781FD082DD3D10E4894
:1043E00002F0B0FD0D48FFF7FFFDFFF777FD0C4829
:1043F00002F0A8FD0B4B586C02F03AFEFFF76EFD81
:10440000FFF79CFFCDE74046DCE700BFB7A40008FC
:10441000BAA400089FA30008C0A40008800B0020D5
:10442000C6A40008480B0020BDA4000810B5484CE5
:10443000484802F087FD20788B2805D9464802F0CD
:1044400081FD20787630C0B202F085FD434802F04D
:1044500079FDA0793630C0B202F07DFD3F4802F010
:1044600071FD20791130C0B202F075FD3B4802F0B9
:1044700069FDA078C0F11500C0B202F06CFD3748AC
:1044800002F060FDE0785A30C0B202F064FD3348BB
:1044900002F058FD6078C0F15E00C0B202F05BFD32
:1044A000E37973B1FFF79AFDE079032806D01E285F
:1044B00001D0022805D102F04EFD02E0302001F0CB
:1044C00011FBFFF78BFD637A102B04D0202B38D023
:1044D00023B9352000E0332001F004FBFFF77EFD17
:1044E000A37A23B1FFF77AFD362001F0FBFAFFF73C
:1044F00075FD237A3BB31A0604D5FFF76FFD37200D
:1045000001F0F0FA237A5B0604D5FFF767FD382047
:1045100001F0E8FA124802F015FD207E02F01BFDC2
:10452000104802F00FFD606902F0B6FD0E4802F07F
:1045300009FD2069002102F037FDBDE81040FFF7BA
:10454000CDBC3420C8E7FFF749FD3920E0E700BFC4
:10455000480B0020CCA40008D2A40008D6A4000870
:10456000D9A40008DCA40008DFA4000838B505467B
:104570000C46084802F0E6FC284602F0ECFC3D2020
:1045800001F0B0FA204602F0DDFCBDE83840FFF74C
:104590009FBC00BFE2A4000838B505460C463E208B
:1045A00001F0A0FA284602F0CDFC3A2001F09AFA78
:1045B0002046BDE83840FFF751BD000010B5044665
:1045C0001B4802F0BFFC204602F0BCFCFFF786FC53
:1045D000184802F0B7FC204602F0B4FCFFF77EFC5E
:1045E000154802F0AFFC204602F0ACFCFFF776FC69
:1045F000124802F0A7FC562001F074FA4D2001F099
:1046000071FA5A2001F06EFA4C2001F06BFA2C205E
:1046100001F068FA0F2002F09EFC2C2001F062FAF3
:10462000FA2002F098FCBDE81040FFF757BC00BF2D
:10463000E5A40008F9A4000819A5000835A500089C
:104640002DE9F04FA04A8BB001AB04AF07CA9F4CD5
:1046500083E807001946384600F016FA3C2001F0BE
:1046600041FA2378082B00F0A18000F28180012B11
:1046700000F0A280C0F09680022B00F09F80042BF7
:1046800000F09880924B93F83580994618F0010815
:1046900000F0A680237B002B00F0A2808D4802F062
:1046A00051FC3846FFF7A0FC99F8353099070ED534
:1046B000894802F047FCFFF769F902F04CFC2C2016
:1046C00001F010FA01F0FAF9C0B202F044FC83489C
:1046D00002F038FCFCF764FB02F0DEFC2C2001F059
:1046E00001FA0021206902F05FFC01F075F806462E
:1046F00000F05AF9054601F063FC46EA0503184349
:1047000010F0FF0F22D0764802F01CFC4EB1F207E9
:1047100002D5582001F0E6F9B30702D5592001F07F
:10472000E1F99DB1EF0702D5522001F0DBF9AE07A8
:1047300002D5482001F0D6F9680702D5532001F0D0
:10474000D1F9E90602D5462001F0CCF9237B002BF4
:104750006FD0013B2373E37A002B7CD0013BE372E3
:104760003E2001F0BFF9FFF7B3FB0BB0BDE8F08FBF
:10477000202B1DD00FD8102B84D194F90230002BA0
:1047800016DB584802F0DEFBA378DB0724D5302087
:1047900001F0A8F976E7402B12D0802B7FF472AF9E
:1047A000514800E0514802F0CDFB6BE75048FAE772
:1047B0005048F8E75048F6E75048F4E75048F2E729
:1047C000504802F0BFFBA3781E0701D53320DFE776
:1047D0005D0703D59806DAD53120D9E73220D7E72F
:1047E0000025494E0DF11C0BD6F844A0343656F87E
:1047F000080C56F8041F05F0E3F9022D4BF82500CC
:1048000003D1514605F0DCF90990B8F1000F07D14A
:1048100057F825005BF8251005F0D0F947F825007A
:104820000135032DE3D1B8F1000F7FF437AF3748DE
:1048300035E7237813F07C0F14BF1D231323237354
:10484000E37A0BB90123E372314802F07BFB07A83E
:10485000FFF7CAFB7FE723782E4813F07C0F14BFC5
:1048600013230E23E37202F06DFBE07902F073FB79
:104870002C2001F037F9207A02F06DFB2C2001F09A
:1048800031F9607A02F067FB01F038FC054600F070
:10489000A9FE044615B900283FF462AF1E4802F095
:1048A00051FB2DB1012D0CBF5320432001F01AF90B
:1048B000E20702D5462001F015F9A3077FF550AFB6
:1048C0004D2001F00FF94BE7380B00200C0B0020B6
:1048D000F00F002073A5000881A5000886A5000838
:1048E0008BA500084CA500086DA5000843A500088D
:1048F00048A5000852A5000856A500085BA50008B9
:1049000061A5000867A50008480B00207AA50008EB
:1049100090A5000896A500089BA500087FB5012179
:104920000920FDF785FB48238DF8033040F6E1535D
:1049300002251C4E04A921F8103D30468DF8025086
:10494000FCF7F4FF05210120FDF764F806210120A2
:10495000FDF760F807210120FDF75CF80821012030
:10496000FDF758F84FF4F0730293002301248DF8FB
:104970000C300C2302A88DF80D308DF80E4001F09C
:1049800013FE08213046FDF73DF840F2172301A839
:10499000ADF804308DF806508DF80740FCF7DCFACE
:1049A00004B070BD000C014008B50948FDF719F8C6
:1049B000B0F5F07F09D080F4F07083B2C3F34010FB
:1049C0001B0601D540F0040008BD0020FCE700BF35
:1049D000000C014008B54FF4F07001F027FEFFF71E
:1049E000E3FF40B1C10707D500F0AEFC4FF4000271
:1049F000094BC3F8802108BD420705D5074A137843
:104A000043F002031370F1E78307EFD5034A1378ED
:104A100043F00803F6E700BF00E100E0290B0020A7
:104A20000020704738B50446002521462846FFF788
:104A300093F840B9072120702046FFF7ADFD05B17E
:104A400038BD0125F1E72378002BF8D02046FDF78B
:104A500025FB0146F0E7000008B5FCF7FFFD00224A
:104A6000014B1A7308BD00BF0C0B002010B50C469B
:104A700050F8210005F058F9024B53F8241005F0C6
:104A80005BFA10BDF00F002070B505460E460024FD
:104A9000A1B23046FFF7EAFF45F824000134032CA9
:104AA000F6D170BD2DE9F843814600240027144D4E
:104AB00095F84B8059F8246048FA04F3DB0739462F
:104AC000304611D505F022FBC0B905EB8403586AC6
:104AD000314600F1004005F019FB78B90134032C90
:104AE000E8D10020BDE8F88305F02EFB30B905EBD6
:104AF00084033146586A05F027FBEEE70120F1E711
:104B0000F00F002072B6034A13781843107062B693
:104B1000704700BF290B00207FB50123447805466C
:104B2000432C8DF8073003D00BD884B1242C52D1FC
:104B3000AD78D5B9432C3BD01DD8242C28D00024E7
:104B400007E04A2C08D0582CF2D0472CEFE7FFF7AB
:104B5000FDFA204604B070BDA14B1B7813F0DF0FA7
:104B600040F03C8183783D2B01D00324F1E7FDF731
:104B700095FA0446EDE7472C13D0582CDFD1984C1A
:104B80002378012BDBD10320FFF790FA2570D6E7BD
:104B9000934B1C7814F0180440F02081FFF7DCFAE6
:104BA000D7E78F4B1B78002BC9D0FFF73FFCC6E738
:104BB0008B4B1C78022C05D100F0C6FB0520FFF7BB
:104BC00075FABCE7002C40F00981022204201A701B
:104BD000FFF76CFABDE7824E3378012B00F2FE80BE
:104BE000492C5CD005D8232C27D0482C2BD000246E
:104BF000A3E0522C71D0532C41D04E2CF7D102227D
:104C0000AC788DF80720002C40F09480294620468F
:104C1000FEF7A2FF002800F0858029462046FFF716
:104C2000A5FC29460120FEF797FF044600287DD009
:104C300029460120FFF79AFC81E7AC78002C94D13B
:104C4000FFF79AFB85E7674B93F84930DB0640F1A5
:104C5000C3800423A8783370002886D100F0F4FACA
:104C60007478002C7FF46BAF3470FBF799FAAB7853
:104C7000002B7FF464AF2846FFF7D4FE69E7AB78DA
:104C80004C2B7FF472AFEB78502B7FF46EAF2C7906
:104C9000002C7FF46AAF8020FFF734FF59E702232E
:104CA000AC788DF8073034B92846FEF76BFF2846FC
:104CB000FFF784FC4DE73D2C7FF457AF0323EC5CFA
:104CC000EA18013302F8034CDBB2002CF7D1284676
:104CD0008DF80730FEF788FE3BE7AB78532B7FF467
:104CE00044AFEB78542B7FF440AF2B793D2B7FF40E
:104CF0003CAFAB79002B7FF438AF6B79242B06D017
:104D00002A2B0DD0232B7FF430AF022000E00120AE
:104D1000FEF78EFE0920FFF7C9F900F015FB0EE73C
:104D2000FF20F5E70720FFF799F97AE70720FFF75B
:104D300095F90EE7002B51D1012402AA0DF10701CC
:104D40002846FCF7BFFC08B9022402E79DF80730AB
:104D50005A1CEB5CD2B23D2B8DF807207FF405AFD7
:104D6000E4B11346EC5C981AE9182C540978013325
:104D7000DBB20029F6D128468DF80730FDF78EF911
:104D8000044600287FF4E5AE029802F0C3FC05F06B
:104D900021FA2946C0B2FEF717FEDAE603AA0DF1A2
:104DA00007012846FCF78EFC0028CDD09DF807307F
:104DB000EB5C002B7FF4D9AE029C0B49204605F03A
:104DC000C3F900287FF4D1AE204605F003FA039919
:104DD000C0B2FEF715FFCCE60524BAE60824B8E613
:104DE0000C0B0020F00F002000007F4372B6034A36
:104DF000137823EA0000107062B67047290B002078
:104E000072B6034A13781843107062B6704700BF39
:104E1000440B002072B60022014B1A7062B6704734
:104E2000440B002072B6034A13781843107062B620
:104E3000704700BF090B002072B6034A137818436D
:104E4000107062B6704700BF280B002072B60022B7
:104E5000014B1A7062B67047090B002072B600222F
:104E6000014B1A7062B67047280B0020F8B5174C3A
:104E7000074694F849200D4612F0200F144E04D036
:104E80003378202B01D000F0F9FD3378022B1BD0B2
:104E9000FCF77AFA7378BBB9FEF788FB10B1FCF720
:104EA000B5F8F5E729463846FEF702FC60B994F8F4
:104EB00049309A0708D52B7ADB0605D5696810209A
:104EC000BDE8F84001F05EBBF8BD00BFF00F002068
:104ED0000C0B0020000000002DE9F04F1C4692460C
:104EE0008FB09DF86C309DF8645003939DF870303E
:104EF00054F825700493AB001A44CDE90110E3186F
:104F00005AF8251038460892099304F059FE9DF886
:104F1000688005904FEA88030AEB0302E31854F80F
:104F200028405AF8281020460A920B9304F048FEB5
:104F3000029B0599069053F8250004F03FFE029B62
:104F40000546069953F8280004F038FE07F100479B
:104F500083462946384604F03BFF04F1004480466E
:104F60005946204604F034FF0146404604F028FE2E
:104F700004F0A0FA804689463846594604F028FFD6
:104F800029468346204604F023FF0146584604F094
:104F900015FE04F08FFA4B464246189E02F0CCFBF9
:104FA00004F0B8FD049B0546002B48D004F082FABB
:104FB00093A3D3E900238046894604F059FD48B104
:104FC00091A3D3E900234046494604F013F904F0C5
:104FD000A1FD0546904B3146D3F83C80304604F0A5
:104FE000EFFD414604F0EAFD414604F0F1FE04F015
:104FF00061FA02F0A3FB8046894628464FF07C51B7
:1050000004F0E6FE314604F0E3FE20F0004004F038
:1050100051FA42464B4604F0CFFB04F07BFD02F010
:1050200009FB05F0D7F81FFA80FBBBF1000F19D17F
:10503000DDE901100FB0BDE8F04FFFF717BF04F036
:1050400039FA73A3D3E900238046894604F006FDAC
:105050000028BFD06CA3D3E900234046494604F0A2
:10506000CBF8B4E7019B58461E7A04F05DFE330787
:10507000804609D5019B0146186804F0A9FE019BF2
:1050800026F0080618601E724146284604F054FFB8
:10509000039B06460AEB83030493039B5AF82310F1
:1050A000DDE9023253F8220004F088FD414604F0A5
:1050B00043FF31460C90304604F08AFE01464FF023
:1050C000804004F07BFD55490546304604F080FEE3
:1050D0004FF081418046284604F072FD014640466B
:1050E00004F076FE4FF07C510390284604F070FEE9
:1050F00001254FF000080790ABB29B4598D9B8F155
:105100000B0F3FD80399384604F062FE0799814699
:10511000204604F05DFE0146484604F051FD079923
:105120008146384604F054FE03990746204604F0B1
:105130004FFE0146384604F041FD4C46074608F153
:1051400001085FFA88F80599384604F039FD089B94
:1051500006991860204604F033FD0A9B0C991860EC
:10516000049B0135186804F02BFD049B019918601D
:105170005046FFF77BFE2A4B5B78002BBCD00FB06C
:10518000BDE8F08F284604F0CFFD314604F020FE44
:1051900004F090F98046894602F032F904F0BAFC36
:1051A00049460446404602F0B9F904F0B3FC099BB5
:1051B0000B9A1B68814603F1004318462146D2F83A
:1051C00000800D9304F004FE49460746404604F073
:1051D000FFFD0146384604F0F3FC0D9B49460746A7
:1051E000184604F0F5FD21468146404604F0F0FDE6
:1051F0000146484604F0E2FC4FF000080446A2E7EE
:105200008DEDB5A0F7C6A0BE182D4454FB21194062
:105210008DEDB5A0F7C6A03EF00F0020ABAA2A3E48
:105220000C0B002010B5074B04461B78022B07D04F
:10523000FCF714FA2046BDE810400021FCF7B2BA92
:1052400010BD00BF0C0B002008B500F0BDFA032014
:1052500000F018FBFCF798F8084B5B786BB9FCF78B
:1052600015FFFEF783FB4FF4F84001F0DFF94FF430
:105270008072034BC3F884215A6008BD0C0B0020D8
:1052800000E100E02DE9F8432B4C80462378894665
:10529000022B174625464DD0FCF7E0F9667816B18B
:1052A0000220BDE8F883C7F3C000667100F06AFE13
:1052B00000F086FE40B10420FFF7A2FDFCF764F881
:1052C000304600F05FFEEBE740464946FFF7CEFD73
:1052D00001231A4C02202370FFF714FCFCF754F84A
:1052E0006B78002BDCD12B78002BF7D12378012BA6
:1052F0001DD1FB0617D5124B124A07CA83E80700D7
:105300000020207000F03EFEFCF73EF8FBF702F9AB
:10531000FEF700F9FEF72AFBFFF710F86879003076
:1053200018BF0120BDE70520FFF76AFDE8E701236C
:105330006B71E5E70020B4E70C0B00202A0B00207E
:105340002C0B0020380B002008B5114B1B78DB0616
:105350001DD41020FFF7D6FB00F0DCFE00F054F95E
:105360000C4A137813F02C0F03D1127912F0060FA8
:105370000DD0042B09D1084B1B7813B90620FFF779
:105380003FFDBDE80840FAF70BBF0320F7E708BD73
:10539000290B00200C0B0020440B0020002370B5CB
:1053A0001E46050FECB2092D94BF3034373401F896
:1053B000134001EB430401336670DCB2A2424FEAB2
:1053C0000010EED870BD08B50020FCF7EBFDBDE87D
:1053D000084001214FF40000FCF736BE37B54FF40A
:1053E000C060FBF7AFFD00254FF48A73012401A8CC
:1053F000ADF804308DF806508DF80740FBF7ACFD92
:105400004FF4957301A8ADF804308DF806508DF86F
:105410000740FBF7A1FD03B030BD7047094B10B545
:1054200018685C6808331B68C0180AD0082206494F
:10543000FFF7B4FF2046BDE8104004220349FFF700
:10544000ADBF10BDE8F7FF1FF600002006010020E9
:10545000224A038890429BB212D002F50062904229
:105460000ED0B0F1804F0BD0A2F59832904207D009
:1054700002F58062904203D002F58062904203D12F
:105480004A8823F070031343154A904208D002F56E
:10549000806290421FBF23F44073CA889BB21343BB
:1054A00003808B8883850B8803850C4B98420FD033
:1054B00003F5006398420BD003F54063984207D090
:1054C00003F58063984203D003F58063984201D1CD
:1054D0000B7A038601238382704700BF002C0140B2
:1054E00000100040038C70B523F480531B041B0C88
:1054F0000384038C8488828B0D8822F4E642120494
:10550000120C42EA052223F400530D894E881B0435
:1055100035431B0C43EA05330B4DA4B2A84292B2AB
:105520009BB203D005F50065A84205D18D8924F40E
:10553000804444EA8514A4B284808283CA88A0F897
:105540004020038470BD00BF002C0140038819B1C6
:1055500043F001030380704723F001031B041B0C7D
:10556000F8E7838912B119438181704723EA010169
:10557000FAE7038923F007031B041B0C0381704720
:10558000038819B143F080030380704723F0800340
:105590001B041B0CF8E7838B23F400631B041B0C18
:1055A00043EA012189B281837047038819B143F02E
:1055B00004030380704723F004031B041B0CF8E76B
:1055C000038923F080031B041B0C03810389194307
:1055D00001817047A0F840107047C94389B2018229
:1055E0007047000010B50748FCF7FEF9C0F3C0345F
:1055F0000448FCF7F9F9C30648BF44F0020420460A
:1056000010BD00BF000C014010B50D4C002220461B
:105610004FF40041FCF7EFF900224FF480410948B4
:10562000FCF7E9F9204600221021FCF7E4F92046B6
:10563000BDE8104000224FF40041FCF7DCB900BF88
:10564000000C014000100140F7B501210820FCF7D3
:10565000EFFC48F21003102502271D4C02AE26F87D
:10566000043D314620468DF806708DF80750FCF752
:105670005DF920464FF40041FCF7C4F901210820F0
:10568000FCF7D6FC314620468DF806708DF80750A1
:10569000ADF80450FCF74AF9204600224FF40041CF
:1056A000FCF7A9F900224FF480410A48FCF7A3F95E
:1056B000294620460022FCF79EF900224FF40041C3
:1056C0002046FCF798F9FFF79FFF03B0F0BD00BF3D
:1056D000000C01400010014038B5154C05466278B9
:1056E00022B920B9FFF790FF0023E37238BD4206CC
:1056F00010D501224FF400410E48FCF77CF94FF41D
:1057000080410D480122FCF776F94FF40041094829
:10571000FCF76DF92B06E7D5012210210548FCF7AF
:105720006AF901224FF400410248FCF764F9DBE713
:105730000C0B0020000C01400010014010B5064B7E
:1057400004461B78022B06D0FBF788FF2046BDE8F5
:105750001040FFF7C1BF10BD0C0B00201FB5184B48
:1057600093F849301B0724D50A210120FCF752F990
:105770000B210120FCF74EF94FF440630293002304
:1057800001248DF80C300C2302A88DF80D308DF813
:105790000E4000F009FF4FF40A73ADF80430032304
:1057A00001A88DF806308DF80740FBF7D5FB04B053
:1057B00010BD4FF48072034BC3F88420F7E700BF9D
:1057C000F00F002000E100E04FF48072014BC3F8BD
:1057D0008420704700E100E008B50C48FCF701F9AF
:1057E0000B4B93F849305B065CBF80F4406080B29D
:1057F00058B1084A1368526818420CBF00230123AD
:1058000010420CBF184643F0020008BD000C0140D6
:10581000F00F002030A3000808B54FF4806000F0BE
:10582000F7FE18B14FF4806000F000FF4FF4006005
:1058300000F0EEFE18B14FF4006000F0F7FE4FF4F8
:10584000805000F0E5FE18B14FF4805000F0EEFEFD
:105850004FF48072084BC3F88421084B1B78012B4E
:1058600009D0074B1B7833B9FFF76EFDBDE8084040
:105870000120FFF7C5BA08BD00E100E00C0B0020D5
:10588000440B00202DE9F04F744B8DB05C788246BC
:105890009846002C40F0A98006234FF00009CDE97E
:1058A00006446F4D6F4E704F08940DF1140B8DF838
:1058B000203055F82420A30004F80B204AFA04F203
:1058C000D0070BD533443946586A04F081FA49466B
:1058D000009004F01BFC08B9009B99460134032C8E
:1058E000E7D1604D01272B6D00930423019309AB91
:1058F00018465E490393FFF7C7F8002006460146A5
:1059000095F84B3009F1004C0293039B4AFA01FED3
:105910001EF0010F17D00024544A013042F82140F4
:10592000029AC0B242FA01FE1EF0010F03D027B165
:1059300043F821C003E0002FFAD043F821901BF870
:1059400001E046EA0E0601310329DFD104F0E8F94F
:1059500001F052FF88F806600146009804F038FA1A
:1059600006A9069009A8FDF7A3FE042388F80430D1
:10597000FAF72CFEFAF7CAFBDFF8FC9087B1FFF7C5
:105980002BFF00231BF80320324204D040FA03F11E
:10599000C90748BF96430133032BF3D188F806604B
:1059A000FAF714FE99F8003013F0340F4BD099F841
:1059B0000060F6B2F30602D50620FFF721FAB4061E
:1059C00002D50720FFF71CFA002F43D1FFF704FF91
:1059D00010EA0A0F02D00820FFF712FA244B1B78B6
:1059E00033B1FFF7B1FCFBF7CFFC0DB0BDE8F08F92
:1059F0000420FFF7FBF9FAF78DFDB5F85400FBF72B
:105A0000F3FE87F001060FBB1A49A86D04F0E0F918
:105A10008146EB6C0093019B37465C1E14F0FF033C
:105A200001937FF464AF1C462246104B4AFA04F1FE
:105A3000C90748BF43F824200134032CF6D10023C2
:105A400088F80430D1E7F00698D1D4E7D5F858901B
:105A50002B6DDFE77307C1D50920BDE70C0B0020D4
:105A600018A30008F00F00200000C0BF380B002072
:105A7000440B00200000A040290B002010B5FFF7C8
:105A800011F8B8B101220C4C2078E270082808D136
:105A9000FFF738F8FBF778FC63785BB92378002BC5
:105AA000F8D1FFF751FC0220FFF7AAF9BDE810403A
:105AB000FBF76ABC10BD00BF0C0B0020064A138820
:105AC00052889BB29A422CBF03F1FA0003F1FF30D7
:105AD000801A80B2704700BFF40A00200121102014
